{"contracts/core/LoanManager.sol":{"LoanManager":{"abi":[{"inputs":[{"internalType":"address","name":"admin","type":"address"},{"internalType":"contract IERC20","name":"_debtAsset","type":"address"},{"internalType":"contract IVault","name":"_vault","type":"address"}],"stateMutability":"nonpayable","type":"constructor"},{"inputs":[],"name":"AccessControlBadConfirmation","type":"error"},{"inputs":[{"internalType":"address","name":"account","type":"address"},{"internalType":"bytes32","name":"neededRole","type":"bytes32"}],"name":"AccessControlUnauthorizedAccount","type":"error"},{"inputs":[],"name":"EnforcedPause","type":"error"},{"inputs":[],"name":"ExpectedPause","type":"error"},{"inputs":[],"name":"ReentrancyGuardReentrantCall","type":"error"},{"inputs":[{"internalType":"address","name":"token","type":"address"}],"name":"SafeERC20FailedOperation","type":"error"},{"anonymous":false,"inputs":[{"indexed":false,"internalType":"uint256","name":"newIndex","type":"uint256"},{"indexed":false,"internalType":"uint256","name":"dt","type":"uint256"}],"name":"AccrueInterest","type":"event"},{"anonymous":false,"inputs":[{"indexed":true,"internalType":"address","name":"user","type":"address"},{"indexed":false,"internalType":"uint256","name":"amount","type":"uint256"}],"name":"Borrow","type":"event"},{"anonymous":false,"inputs":[{"indexed":false,"internalType":"address","name":"account","type":"address"}],"name":"Paused","type":"event"},{"anonymous":false,"inputs":[{"indexed":true,"internalType":"address","name":"user","type":"address"},{"indexed":false,"internalType":"uint256","name":"amount","type":"uint256"}],"name":"Repay","type":"event"},{"anonymous":false,"inputs":[{"indexed":true,"internalType":"bytes32","name":"role","type":"bytes32"},{"indexed":true,"internalType":"bytes32","name":"previousAdminRole","type":"bytes32"},{"indexed":true,"internalType":"bytes32","name":"newAdminRole","type":"bytes32"}],"name":"RoleAdminChanged","type":"event"},{"anonymous":false,"inputs":[{"indexed":true,"internalType":"bytes32","name":"role","type":"bytes32"},{"indexed":true,"internalType":"address","name":"account","type":"address"},{"indexed":true,"internalType":"address","name":"sender","type":"address"}],"name":"RoleGranted","type":"event"},{"anonymous":false,"inputs":[{"indexed":true,"internalType":"bytes32","name":"role","type":"bytes32"},{"indexed":true,"internalType":"address","name":"account","type":"address"},{"indexed":true,"internalType":"address","name":"sender","type":"address"}],"name":"RoleRevoked","type":"event"},{"anonymous":false,"inputs":[{"indexed":false,"internalType":"address","name":"account","type":"address"}],"name":"Unpaused","type":"event"},{"anonymous":false,"inputs":[{"indexed":false,"internalType":"uint256","name":"targetLtv","type":"uint256"},{"indexed":false,"internalType":"uint256","name":"liquidationLtv","type":"uint256"},{"indexed":false,"internalType":"uint256","name":"baseRate","type":"uint256"}],"name":"UpdateParams","type":"event"},{"anonymous":false,"inputs":[{"indexed":false,"internalType":"uint256","name":"baseRateBps","type":"uint256"}],"name":"UpdateRates","type":"event"},{"inputs":[],"name":"DEFAULT_ADMIN_ROLE","outputs":[{"internalType":"bytes32","name":"","type":"bytes32"}],"stateMutability":"view","type":"function"},{"inputs":[],"name":"ROLE_ADMIN","outputs":[{"internalType":"bytes32","name":"","type":"bytes32"}],"stateMutability":"view","type":"function"},{"inputs":[],"name":"ROLE_KEEPER","outputs":[{"internalType":"bytes32","name":"","type":"bytes32"}],"stateMutability":"view","type":"function"},{"inputs":[],"name":"ROLE_ORACLE","outputs":[{"internalType":"bytes32","name":"","type":"bytes32"}],"stateMutability":"view","type":"function"},{"inputs":[],"name":"ROLE_PAUSER","outputs":[{"internalType":"bytes32","name":"","type":"bytes32"}],"stateMutability":"view","type":"function"},{"inputs":[],"name":"ROLE_RISK","outputs":[{"internalType":"bytes32","name":"","type":"bytes32"}],"stateMutability":"view","type":"function"},{"inputs":[],"name":"accrueInterest","outputs":[],"stateMutability":"nonpayable","type":"function"},{"inputs":[],"name":"baseRateBps","outputs":[{"internalType":"uint256","name":"","type":"uint256"}],"stateMutability":"view","type":"function"},{"inputs":[{"internalType":"uint256","name":"amount","type":"uint256"}],"name":"borrow","outputs":[],"stateMutability":"nonpayable","type":"function"},{"inputs":[],"name":"collateralToken","outputs":[{"internalType":"address","name":"","type":"address"}],"stateMutability":"view","type":"function"},{"inputs":[],"name":"collateralVault","outputs":[{"internalType":"contract IVault","name":"","type":"address"}],"stateMutability":"view","type":"function"},{"inputs":[],"name":"debtAsset","outputs":[{"internalType":"contract IERC20","name":"","type":"address"}],"stateMutability":"view","type":"function"},{"inputs":[{"internalType":"address","name":"user","type":"address"}],"name":"debtOf","outputs":[{"internalType":"uint256","name":"","type":"uint256"}],"stateMutability":"view","type":"function"},{"inputs":[{"internalType":"address","name":"user","type":"address"}],"name":"getAccountData","outputs":[{"internalType":"uint256","name":"collateral","type":"uint256"},{"internalType":"uint256","name":"_debt","type":"uint256"},{"internalType":"uint256","name":"healthFactor","type":"uint256"}],"stateMutability":"view","type":"function"},{"inputs":[{"internalType":"bytes32","name":"role","type":"bytes32"}],"name":"getRoleAdmin","outputs":[{"internalType":"bytes32","name":"","type":"bytes32"}],"stateMutability":"view","type":"function"},{"inputs":[{"internalType":"bytes32","name":"role","type":"bytes32"},{"internalType":"address","name":"account","type":"address"}],"name":"grantRole","outputs":[],"stateMutability":"nonpayable","type":"function"},{"inputs":[{"internalType":"bytes32","name":"role","type":"bytes32"},{"internalType":"address","name":"account","type":"address"}],"name":"hasRole","outputs":[{"internalType":"bool","name":"","type":"bool"}],"stateMutability":"view","type":"function"},{"inputs":[],"name":"interestIndex","outputs":[{"internalType":"uint256","name":"","type":"uint256"}],"stateMutability":"view","type":"function"},{"inputs":[],"name":"lastAccrual","outputs":[{"internalType":"uint256","name":"","type":"uint256"}],"stateMutability":"view","type":"function"},{"inputs":[],"name":"liquidationLtv","outputs":[{"internalType":"uint256","name":"","type":"uint256"}],"stateMutability":"view","type":"function"},{"inputs":[],"name":"oracle","outputs":[{"internalType":"contract IOracle","name":"","type":"address"}],"stateMutability":"view","type":"function"},{"inputs":[],"name":"paused","outputs":[{"internalType":"bool","name":"","type":"bool"}],"stateMutability":"view","type":"function"},{"inputs":[{"internalType":"address","name":"","type":"address"}],"name":"principalDebt","outputs":[{"internalType":"uint256","name":"","type":"uint256"}],"stateMutability":"view","type":"function"},{"inputs":[{"internalType":"bytes32","name":"role","type":"bytes32"},{"internalType":"address","name":"callerConfirmation","type":"address"}],"name":"renounceRole","outputs":[],"stateMutability":"nonpayable","type":"function"},{"inputs":[{"internalType":"uint256","name":"amount","type":"uint256"}],"name":"repay","outputs":[],"stateMutability":"nonpayable","type":"function"},{"inputs":[{"internalType":"address","name":"payer","type":"address"},{"internalType":"address","name":"user","type":"address"},{"internalType":"uint256","name":"amount","type":"uint256"}],"name":"repayFrom","outputs":[],"stateMutability":"nonpayable","type":"function"},{"inputs":[{"internalType":"bytes32","name":"role","type":"bytes32"},{"internalType":"address","name":"account","type":"address"}],"name":"revokeRole","outputs":[],"stateMutability":"nonpayable","type":"function"},{"inputs":[{"internalType":"contract IOracle","name":"_oracle","type":"address"},{"internalType":"address","name":"_collateralToken","type":"address"}],"name":"setOracle","outputs":[],"stateMutability":"nonpayable","type":"function"},{"inputs":[{"internalType":"uint256","name":"_target","type":"uint256"},{"internalType":"uint256","name":"_liq","type":"uint256"},{"internalType":"uint256","name":"_baseRate","type":"uint256"}],"name":"setParams","outputs":[],"stateMutability":"nonpayable","type":"function"},{"inputs":[{"internalType":"bytes4","name":"interfaceId","type":"bytes4"}],"name":"supportsInterface","outputs":[{"internalType":"bool","name":"","type":"bool"}],"stateMutability":"view","type":"function"},{"inputs":[],"name":"targetLtv","outputs":[{"internalType":"uint256","name":"","type":"uint256"}],"stateMutability":"view","type":"function"},{"inputs":[{"internalType":"address","name":"","type":"address"}],"name":"userIndex","outputs":[{"internalType":"uint256","name":"","type":"uint256"}],"stateMutability":"view","type":"function"}],"evm":{"bytecode":{"linkReferences":{},"object":"60c0604052611770600555611d4c6006556101f4600755670de0b6b3a76400006008553480156200002f57600080fd5b506040516200164c3803806200164c833981016040819052620000529162000291565b826200006e6000805160206200162c833981519152826200017e565b50620000aa7f73079b33c7c96c67a1fb6c710d1995195c9f4b3e62a619f237584f1bb28d0aa96000805160206200162c8339815191526200022d565b620000e57f66098348ac86aa2c1efef4ea51eb3a0dd075bfeef7e5784ec740dc5b4ee760fd6000805160206200162c8339815191526200022d565b620001207f061671c5d9c2848c4e78f3cfd7efc04c5d793e746efab769b3416aa5bbfb40cc6000805160206200162c8339815191526200022d565b6200015b7f372d55e37651a7c6e1940a3fb8628e4b6122a3c1a8b2b70aee13e072286045676000805160206200162c8339815191526200022d565b5060016002556001600160a01b039182166080521660a0525042600955620002e5565b6000828152602081815260408083206001600160a01b038516845290915281205460ff1662000223576000838152602081815260408083206001600160a01b03861684529091529020805460ff19166001179055620001da3390565b6001600160a01b0316826001600160a01b0316847f2f8788117e7eff1d82e926ec794901d17c78024a50270940304540a733656f0d60405160405180910390a450600162000227565b5060005b92915050565b600082815260208190526040808220600101805490849055905190918391839186917fbd79b86ffe0ab8e8776151514217cd7cacd52c909f66475c3af44e129f0b00ff9190a4505050565b6001600160a01b03811681146200028e57600080fd5b50565b600080600060608486031215620002a757600080fd5b8351620002b48162000278565b6020850151909350620002c78162000278565b6040850151909250620002da8162000278565b809150509250925092565b60805160a05161130c620003206000396000818161023701526107360152600081816103de01528181610ab20152610bee015261130c6000f3fe608060405234801561001057600080fd5b50600436106101f05760003560e01c8063895ec75f1161010f578063c5ebeaec116100a2578063d547741f11610071578063d547741f146104b0578063de9ce35c146104c3578063ec921dc1146104e3578063f0173703146104ec57600080fd5b8063c5ebeaec14610443578063c96679fe14610456578063d283e75f14610476578063d391014b1461048957600080fd5b8063a919802d116100de578063a919802d146103d9578063aaa6a39114610400578063b047eb0214610409578063b2016bd41461043057600080fd5b8063895ec75f1461038f57806391d14854146103b6578063a217fddf146103c9578063a6afed95146103d157600080fd5b80635a0ce67611610187578063623142451161015657806362314245146103615780637a89dfca1461036a5780637b3baab4146103735780637dc0d1d01461037c57600080fd5b80635a0ce676146103025780635c38eb3a146103155780635c975abb146103285780635d78650e1461033357600080fd5b80632f2ff15d116101c35780632f2ff15d146102a257806336568abe146102b5578063371fd8e6146102c857806342be00b8146102db57600080fd5b806301ffc9a7146101f5578063098fe1051461021d5780630bece79c14610232578063248a9ca314610271575b600080fd5b6102086102033660046110dd565b610513565b60405190151581526020015b60405180910390f35b61023061022b366004611123565b61054a565b005b6102597f000000000000000000000000000000000000000000000000000000000000000081565b6040516001600160a01b039091168152602001610214565b61029461027f366004611164565b60009081526020819052604090206001015490565b604051908152602001610214565b6102306102b036600461117d565b610574565b6102306102c336600461117d565b61059f565b6102306102d6366004611164565b6105d2565b6102947f73079b33c7c96c67a1fb6c710d1995195c9f4b3e62a619f237584f1bb28d0aa981565b6102306103103660046111ad565b6105fa565b6102306103233660046111d9565b6106b7565b60015460ff16610208565b610346610341366004611207565b610710565b60408051938452602084019290925290820152606001610214565b61029460085481565b61029460065481565b61029460095481565b600354610259906001600160a01b031681565b6102947f061671c5d9c2848c4e78f3cfd7efc04c5d793e746efab769b3416aa5bbfb40cc81565b6102086103c436600461117d565b6108d0565b610294600081565b6102306108f9565b6102597f000000000000000000000000000000000000000000000000000000000000000081565b61029460075481565b6102947f372d55e37651a7c6e1940a3fb8628e4b6122a3c1a8b2b70aee13e0722860456781565b600454610259906001600160a01b031681565b610230610451366004611164565b6109cb565b610294610464366004611207565b600b6020526000908152604090205481565b610294610484366004611207565b610b23565b6102947f2172861495e7b85edac73e3cd5fbb42dd675baadf627720e687bcfdaca02509681565b6102306104be36600461117d565b610b2e565b6102946104d1366004611207565b600a6020526000908152604090205481565b61029460055481565b6102947f66098348ac86aa2c1efef4ea51eb3a0dd075bfeef7e5784ec740dc5b4ee760fd81565b60006001600160e01b03198216637965db0b60e01b148061054457506301ffc9a760e01b6001600160e01b03198316145b92915050565b610552610b53565b61055a610b7b565b610565838383610b9f565b61056f6001600255565b505050565b60008281526020819052604090206001015461058f81610cb6565b6105998383610cc0565b50505050565b6001600160a01b03811633146105c85760405163334bd91960e11b815260040160405180910390fd5b61056f8282610d52565b6105da610b53565b6105e2610b7b565b6105ed333383610b9f565b6105f76001600255565b50565b7f73079b33c7c96c67a1fb6c710d1995195c9f4b3e62a619f237584f1bb28d0aa961062481610cb6565b828410801561063557506123288311155b61066f5760405162461bcd60e51b8152602060048201526006602482015265706172616d7360d01b60448201526064015b60405180910390fd5b6005849055600683905560078290556040518281527f11d21e3fa4ceeb0310f7dcdd86974affae5aa26fc8f3f45a952e5d4b92e587199060200160405180910390a150505050565b7f73079b33c7c96c67a1fb6c710d1995195c9f4b3e62a619f237584f1bb28d0aa96106e181610cb6565b50600380546001600160a01b039384166001600160a01b03199182161790915560048054929093169116179055565b6040516370a0823160e01b81526001600160a01b038281166004830152600091829182917f0000000000000000000000000000000000000000000000000000000000000000909116906370a0823190602401602060405180830381865afa15801561077f573d6000803e3d6000fd5b505050506040513d601f19601f820116820180604052508101906107a39190611224565b92506107ae84610dbd565b9150816000036107c55750600090506000196108c9565b60035483906001600160a01b0316158015906107eb57506004546001600160a01b031615155b1561088857600354600480546040516341976e0960e01b81526001600160a01b039182169281019290925260009216906341976e09906024016040805180830381865afa158015610840573d6000803e3d6000fd5b505050506040513d601f19601f82011682018060405250810190610864919061123d565b509050670de0b6b3a764000061087a8287611277565b610884919061128e565b9150505b60006127106006548361089b9190611277565b6108a5919061128e565b9050836108ba82670de0b6b3a7640000611277565b6108c4919061128e565b925050505b9193909250565b6000918252602082815260408084206001600160a01b0393909316845291905290205460ff1690565b610901610b7b565b60006009544261091191906112b0565b90508060000361091e5750565b60006301e13380600754655af3107a40006109399190611277565b610943919061128e565b90506000670de0b6b3a7640000838360085461095f9190611277565b6109699190611277565b610973919061128e565b90508060085461098391906112c3565b60088190554260095560408051918252602082018590527ff66f28b40975dbb933913542c7e6a0f50a1d0f20aa74ea6e0efe65ab616323ec910160405180910390a15050505b565b6109d3610b53565b6109db610b7b565b60008111610a145760405162461bcd60e51b8152602060048201526006602482015265185b5bdd5b9d60d21b6044820152606401610666565b610a1d33610e33565b600080610a2933610710565b5090925090506000610a3b84836112c3565b9050600554610a4a8483610e71565b1115610a7e5760405162461bcd60e51b8152602060048201526003602482015262363a3b60e91b6044820152606401610666565b610a8781610f66565b336000818152600a6020908152604080832094909455600854600b90915292902091909155610ae1907f00000000000000000000000000000000000000000000000000000000000000006001600160a01b03169086610f97565b60405184815233907fcbc04eca7e9da35cb1393a6135a199ca52e450d5e9251cbd99f7847d33a367509060200160405180910390a25050506105f76001600255565b600061054482610dbd565b600082815260208190526040902060010154610b4981610cb6565b6105998383610d52565b6002805403610b7557604051633ee5aeb560e01b815260040160405180910390fd5b60028055565b60015460ff16156109c95760405163d93c066560e01b815260040160405180910390fd5b60008111610bd85760405162461bcd60e51b8152602060048201526006602482015265185b5bdd5b9d60d21b6044820152606401610666565b610be182610e33565b610c166001600160a01b037f000000000000000000000000000000000000000000000000000000000000000016843084610ff6565b6000610c2183610dbd565b9050600081831015610c3c57610c3783836112b0565b610c3f565b60005b9050610c4a81610f66565b6001600160a01b0385166000818152600a6020908152604080832094909455600854600b909152908390205590517f5c16de4f8b59bd9caf0f49a545f25819a895ed223294290b408242e72a59423190610ca79086815260200190565b60405180910390a25050505050565b6105f7813361102f565b6000610ccc83836108d0565b610d4a576000838152602081815260408083206001600160a01b03861684529091529020805460ff19166001179055610d023390565b6001600160a01b0316826001600160a01b0316847f2f8788117e7eff1d82e926ec794901d17c78024a50270940304540a733656f0d60405160405180910390a4506001610544565b506000610544565b6000610d5e83836108d0565b15610d4a576000838152602081815260408083206001600160a01b0386168085529252808320805460ff1916905551339286917ff6391f5c32d9c69d2a47ea670b442974b53935d1edc7fd64eb21e047a839171b9190a4506001610544565b6001600160a01b0381166000908152600a6020526040812054808203610de65750600092915050565b6008546001600160a01b0384166000908152600b602052604081205490819003610e155750670de0b6b3a76400005b80610e208385611277565b610e2a919061128e565b95945050505050565b6001600160a01b0381166000908152600b602052604081205490036105f7576008546001600160a01b0382166000908152600b602052604090205550565b600082600003610e845750600019610544565b60035483906001600160a01b031615801590610eaa57506004546001600160a01b031615155b15610f4757600354600480546040516341976e0960e01b81526001600160a01b039182169281019290925260009216906341976e09906024016040805180830381865afa158015610eff573d6000803e3d6000fd5b505050506040513d601f19601f82011682018060405250810190610f23919061123d565b509050670de0b6b3a7640000610f398287611277565b610f43919061128e565b9150505b80610f5484612710611277565b610f5e919061128e565b949350505050565b600081600003610f7857506000919050565b600854610f8d83670de0b6b3a7640000611277565b610544919061128e565b6040516001600160a01b0383811660248301526044820183905261056f91859182169063a9059cbb906064015b604051602081830303815290604052915060e01b6020820180516001600160e01b03838183161783525050505061106c565b6040516001600160a01b0384811660248301528381166044830152606482018390526105999186918216906323b872dd90608401610fc4565b61103982826108d0565b6110685760405163e2517d3f60e01b81526001600160a01b038216600482015260248101839052604401610666565b5050565b600080602060008451602086016000885af18061108f576040513d6000823e3d81fd5b50506000513d915081156110a75780600114156110b4565b6001600160a01b0384163b155b1561059957604051635274afe760e01b81526001600160a01b0385166004820152602401610666565b6000602082840312156110ef57600080fd5b81356001600160e01b03198116811461110757600080fd5b9392505050565b6001600160a01b03811681146105f757600080fd5b60008060006060848603121561113857600080fd5b83356111438161110e565b925060208401356111538161110e565b929592945050506040919091013590565b60006020828403121561117657600080fd5b5035919050565b6000806040838503121561119057600080fd5b8235915060208301356111a28161110e565b809150509250929050565b6000806000606084860312156111c257600080fd5b505081359360208301359350604090920135919050565b600080604083850312156111ec57600080fd5b82356111f78161110e565b915060208301356111a28161110e565b60006020828403121561121957600080fd5b81356111078161110e565b60006020828403121561123657600080fd5b5051919050565b6000806040838503121561125057600080fd5b505080516020909101519092909150565b634e487b7160e01b600052601160045260246000fd5b808202811582820484141761054457610544611261565b6000826112ab57634e487b7160e01b600052601260045260246000fd5b500490565b8181038181111561054457610544611261565b808201808211156105445761054461126156fea2646970667358221220cb7de4cebc1e47998426c2c9c5310c8052d9f6207ac556b4f092a7b63db5287d64736f6c634300081800332172861495e7b85edac73e3cd5fbb42dd675baadf627720e687bcfdaca025096","opcodes":"PUSH1 0xC0 PUSH1 0x40 MSTORE PUSH2 0x1770 PUSH1 0x5 SSTORE PUSH2 0x1D4C PUSH1 0x6 SSTORE PUSH2 0x1F4 PUSH1 0x7 SSTORE PUSH8 0xDE0B6B3A7640000 PUSH1 0x8 SSTORE CALLVALUE DUP1 ISZERO PUSH3 0x2F JUMPI PUSH1 0x0 DUP1 REVERT JUMPDEST POP PUSH1 0x40 MLOAD PUSH3 0x164C CODESIZE SUB DUP1 PUSH3 0x164C DUP4 CODECOPY DUP2 ADD PUSH1 0x40 DUP2 SWAP1 MSTORE PUSH3 0x52 SWAP2 PUSH3 0x291 JUMP JUMPDEST DUP3 PUSH3 0x6E PUSH1 0x0 DUP1 MLOAD PUSH1 0x20 PUSH3 0x162C DUP4 CODECOPY DUP2 MLOAD SWAP2 MSTORE DUP3 PUSH3 0x17E JUMP JUMPDEST POP PUSH3 0xAA PUSH32 0x73079B33C7C96C67A1FB6C710D1995195C9F4B3E62A619F237584F1BB28D0AA9 PUSH1 0x0 DUP1 MLOAD PUSH1 0x20 PUSH3 0x162C DUP4 CODECOPY DUP2 MLOAD SWAP2 MSTORE PUSH3 0x22D JUMP JUMPDEST PUSH3 0xE5 PUSH32 0x66098348AC86AA2C1EFEF4EA51EB3A0DD075BFEEF7E5784EC740DC5B4EE760FD PUSH1 0x0 DUP1 MLOAD PUSH1 0x20 PUSH3 0x162C DUP4 CODECOPY DUP2 MLOAD SWAP2 MSTORE PUSH3 0x22D JUMP JUMPDEST PUSH3 0x120 PUSH32 0x61671C5D9C2848C4E78F3CFD7EFC04C5D793E746EFAB769B3416AA5BBFB40CC PUSH1 0x0 DUP1 MLOAD PUSH1 0x20 PUSH3 0x162C DUP4 CODECOPY DUP2 MLOAD SWAP2 MSTORE PUSH3 0x22D JUMP JUMPDEST PUSH3 0x15B PUSH32 0x372D55E37651A7C6E1940A3FB8628E4B6122A3C1A8B2B70AEE13E07228604567 PUSH1 0x0 DUP1 MLOAD PUSH1 0x20 PUSH3 0x162C DUP4 CODECOPY DUP2 MLOAD SWAP2 MSTORE PUSH3 0x22D JUMP JUMPDEST POP PUSH1 0x1 PUSH1 0x2 SSTORE PUSH1 0x1 PUSH1 0x1 PUSH1 0xA0 SHL SUB SWAP2 DUP3 AND PUSH1 0x80 MSTORE AND PUSH1 0xA0 MSTORE POP TIMESTAMP PUSH1 0x9 SSTORE PUSH3 0x2E5 JUMP JUMPDEST PUSH1 0x0 DUP3 DUP2 MSTORE PUSH1 0x20 DUP2 DUP2 MSTORE PUSH1 0x40 DUP1 DUP4 KECCAK256 PUSH1 0x1 PUSH1 0x1 PUSH1 0xA0 SHL SUB DUP6 AND DUP5 MSTORE SWAP1 SWAP2 MSTORE DUP2 KECCAK256 SLOAD PUSH1 0xFF AND PUSH3 0x223 JUMPI PUSH1 0x0 DUP4 DUP2 MSTORE PUSH1 0x20 DUP2 DUP2 MSTORE PUSH1 0x40 DUP1 DUP4 KECCAK256 PUSH1 0x1 PUSH1 0x1 PUSH1 0xA0 SHL SUB DUP7 AND DUP5 MSTORE SWAP1 SWAP2 MSTORE SWAP1 KECCAK256 DUP1 SLOAD PUSH1 0xFF NOT AND PUSH1 0x1 OR SWAP1 SSTORE PUSH3 0x1DA CALLER SWAP1 JUMP JUMPDEST PUSH1 0x1 PUSH1 0x1 PUSH1 0xA0 SHL SUB AND DUP3 PUSH1 0x1 PUSH1 0x1 PUSH1 0xA0 SHL SUB AND DUP5 PUSH32 0x2F8788117E7EFF1D82E926EC794901D17C78024A50270940304540A733656F0D PUSH1 0x40 MLOAD PUSH1 0x40 MLOAD DUP1 SWAP2 SUB SWAP1 LOG4 POP PUSH1 0x1 PUSH3 0x227 JUMP JUMPDEST POP PUSH1 0x0 JUMPDEST SWAP3 SWAP2 POP POP JUMP JUMPDEST PUSH1 0x0 DUP3 DUP2 MSTORE PUSH1 0x20 DUP2 SWAP1 MSTORE PUSH1 0x40 DUP1 DUP3 KECCAK256 PUSH1 0x1 ADD DUP1 SLOAD SWAP1 DUP5 SWAP1 SSTORE SWAP1 MLOAD SWAP1 SWAP2 DUP4 SWAP2 DUP4 SWAP2 DUP7 SWAP2 PUSH32 0xBD79B86FFE0AB8E8776151514217CD7CACD52C909F66475C3AF44E129F0B00FF SWAP2 SWAP1 LOG4 POP POP POP JUMP JUMPDEST PUSH1 0x1 PUSH1 0x1 PUSH1 0xA0 SHL SUB DUP2 AND DUP2 EQ PUSH3 0x28E JUMPI PUSH1 0x0 DUP1 REVERT JUMPDEST POP JUMP JUMPDEST PUSH1 0x0 DUP1 PUSH1 0x0 PUSH1 0x60 DUP5 DUP7 SUB SLT ISZERO PUSH3 0x2A7 JUMPI PUSH1 0x0 DUP1 REVERT JUMPDEST DUP4 MLOAD PUSH3 0x2B4 DUP2 PUSH3 0x278 JUMP JUMPDEST PUSH1 0x20 DUP6 ADD MLOAD SWAP1 SWAP4 POP PUSH3 0x2C7 DUP2 PUSH3 0x278 JUMP JUMPDEST PUSH1 0x40 DUP6 ADD MLOAD SWAP1 SWAP3 POP PUSH3 0x2DA DUP2 PUSH3 0x278 JUMP JUMPDEST DUP1 SWAP2 POP POP SWAP3 POP SWAP3 POP SWAP3 JUMP JUMPDEST PUSH1 0x80 MLOAD PUSH1 0xA0 MLOAD PUSH2 0x130C PUSH3 0x320 PUSH1 0x0 CODECOPY PUSH1 0x0 DUP2 DUP2 PUSH2 0x237 ADD MSTORE PUSH2 0x736 ADD MSTORE PUSH1 0x0 DUP2 DUP2 PUSH2 0x3DE ADD MSTORE DUP2 DUP2 PUSH2 0xAB2 ADD MSTORE PUSH2 0xBEE ADD MSTORE PUSH2 0x130C PUSH1 0x0 RETURN INVALID PUSH1 0x80 PUSH1 0x40 MSTORE CALLVALUE DUP1 ISZERO PUSH2 0x10 JUMPI PUSH1 0x0 DUP1 REVERT JUMPDEST POP PUSH1 0x4 CALLDATASIZE LT PUSH2 0x1F0 JUMPI PUSH1 0x0 CALLDATALOAD PUSH1 0xE0 SHR DUP1 PUSH4 0x895EC75F GT PUSH2 0x10F JUMPI DUP1 PUSH4 0xC5EBEAEC GT PUSH2 0xA2 JUMPI DUP1 PUSH4 0xD547741F GT PUSH2 0x71 JUMPI DUP1 PUSH4 0xD547741F EQ PUSH2 0x4B0 JUMPI DUP1 PUSH4 0xDE9CE35C EQ PUSH2 0x4C3 JUMPI DUP1 PUSH4 0xEC921DC1 EQ PUSH2 0x4E3 JUMPI DUP1 PUSH4 0xF0173703 EQ PUSH2 0x4EC JUMPI PUSH1 0x0 DUP1 REVERT JUMPDEST DUP1 PUSH4 0xC5EBEAEC EQ PUSH2 0x443 JUMPI DUP1 PUSH4 0xC96679FE EQ PUSH2 0x456 JUMPI DUP1 PUSH4 0xD283E75F EQ PUSH2 0x476 JUMPI DUP1 PUSH4 0xD391014B EQ PUSH2 0x489 JUMPI PUSH1 0x0 DUP1 REVERT JUMPDEST DUP1 PUSH4 0xA919802D GT PUSH2 0xDE JUMPI DUP1 PUSH4 0xA919802D EQ PUSH2 0x3D9 JUMPI DUP1 PUSH4 0xAAA6A391 EQ PUSH2 0x400 JUMPI DUP1 PUSH4 0xB047EB02 EQ PUSH2 0x409 JUMPI DUP1 PUSH4 0xB2016BD4 EQ PUSH2 0x430 JUMPI PUSH1 0x0 DUP1 REVERT JUMPDEST DUP1 PUSH4 0x895EC75F EQ PUSH2 0x38F JUMPI DUP1 PUSH4 0x91D14854 EQ PUSH2 0x3B6 JUMPI DUP1 PUSH4 0xA217FDDF EQ PUSH2 0x3C9 JUMPI DUP1 PUSH4 0xA6AFED95 EQ PUSH2 0x3D1 JUMPI PUSH1 0x0 DUP1 REVERT JUMPDEST DUP1 PUSH4 0x5A0CE676 GT PUSH2 0x187 JUMPI DUP1 PUSH4 0x62314245 GT PUSH2 0x156 JUMPI DUP1 PUSH4 0x62314245 EQ PUSH2 0x361 JUMPI DUP1 PUSH4 0x7A89DFCA EQ PUSH2 0x36A JUMPI DUP1 PUSH4 0x7B3BAAB4 EQ PUSH2 0x373 JUMPI DUP1 PUSH4 0x7DC0D1D0 EQ PUSH2 0x37C JUMPI PUSH1 0x0 DUP1 REVERT JUMPDEST DUP1 PUSH4 0x5A0CE676 EQ PUSH2 0x302 JUMPI DUP1 PUSH4 0x5C38EB3A EQ PUSH2 0x315 JUMPI DUP1 PUSH4 0x5C975ABB EQ PUSH2 0x328 JUMPI DUP1 PUSH4 0x5D78650E EQ PUSH2 0x333 JUMPI PUSH1 0x0 DUP1 REVERT JUMPDEST DUP1 PUSH4 0x2F2FF15D GT PUSH2 0x1C3 JUMPI DUP1 PUSH4 0x2F2FF15D EQ PUSH2 0x2A2 JUMPI DUP1 PUSH4 0x36568ABE EQ PUSH2 0x2B5 JUMPI DUP1 PUSH4 0x371FD8E6 EQ PUSH2 0x2C8 JUMPI DUP1 PUSH4 0x42BE00B8 EQ PUSH2 0x2DB JUMPI PUSH1 0x0 DUP1 REVERT JUMPDEST DUP1 PUSH4 0x1FFC9A7 EQ PUSH2 0x1F5 JUMPI DUP1 PUSH4 0x98FE105 EQ PUSH2 0x21D JUMPI DUP1 PUSH4 0xBECE79C EQ PUSH2 0x232 JUMPI DUP1 PUSH4 0x248A9CA3 EQ PUSH2 0x271 JUMPI JUMPDEST PUSH1 0x0 DUP1 REVERT JUMPDEST PUSH2 0x208 PUSH2 0x203 CALLDATASIZE PUSH1 0x4 PUSH2 0x10DD JUMP JUMPDEST PUSH2 0x513 JUMP JUMPDEST PUSH1 0x40 MLOAD SWAP1 ISZERO ISZERO DUP2 MSTORE PUSH1 0x20 ADD JUMPDEST PUSH1 0x40 MLOAD DUP1 SWAP2 SUB SWAP1 RETURN JUMPDEST PUSH2 0x230 PUSH2 0x22B CALLDATASIZE PUSH1 0x4 PUSH2 0x1123 JUMP JUMPDEST PUSH2 0x54A JUMP JUMPDEST STOP JUMPDEST PUSH2 0x259 PUSH32 0x0 DUP2 JUMP JUMPDEST PUSH1 0x40 MLOAD PUSH1 0x1 PUSH1 0x1 PUSH1 0xA0 SHL SUB SWAP1 SWAP2 AND DUP2 MSTORE PUSH1 0x20 ADD PUSH2 0x214 JUMP JUMPDEST PUSH2 0x294 PUSH2 0x27F CALLDATASIZE PUSH1 0x4 PUSH2 0x1164 JUMP JUMPDEST PUSH1 0x0 SWAP1 DUP2 MSTORE PUSH1 0x20 DUP2 SWAP1 MSTORE PUSH1 0x40 SWAP1 KECCAK256 PUSH1 0x1 ADD SLOAD SWAP1 JUMP JUMPDEST PUSH1 0x40 MLOAD SWAP1 DUP2 MSTORE PUSH1 0x20 ADD PUSH2 0x214 JUMP JUMPDEST PUSH2 0x230 PUSH2 0x2B0 CALLDATASIZE PUSH1 0x4 PUSH2 0x117D JUMP JUMPDEST PUSH2 0x574 JUMP JUMPDEST PUSH2 0x230 PUSH2 0x2C3 CALLDATASIZE PUSH1 0x4 PUSH2 0x117D JUMP JUMPDEST PUSH2 0x59F JUMP JUMPDEST PUSH2 0x230 PUSH2 0x2D6 CALLDATASIZE PUSH1 0x4 PUSH2 0x1164 JUMP JUMPDEST PUSH2 0x5D2 JUMP JUMPDEST PUSH2 0x294 PUSH32 0x73079B33C7C96C67A1FB6C710D1995195C9F4B3E62A619F237584F1BB28D0AA9 DUP2 JUMP JUMPDEST PUSH2 0x230 PUSH2 0x310 CALLDATASIZE PUSH1 0x4 PUSH2 0x11AD JUMP JUMPDEST PUSH2 0x5FA JUMP JUMPDEST PUSH2 0x230 PUSH2 0x323 CALLDATASIZE PUSH1 0x4 PUSH2 0x11D9 JUMP JUMPDEST PUSH2 0x6B7 JUMP JUMPDEST PUSH1 0x1 SLOAD PUSH1 0xFF AND PUSH2 0x208 JUMP JUMPDEST PUSH2 0x346 PUSH2 0x341 CALLDATASIZE PUSH1 0x4 PUSH2 0x1207 JUMP JUMPDEST PUSH2 0x710 JUMP JUMPDEST PUSH1 0x40 DUP1 MLOAD SWAP4 DUP5 MSTORE PUSH1 0x20 DUP5 ADD SWAP3 SWAP1 SWAP3 MSTORE SWAP1 DUP3 ADD MSTORE PUSH1 0x60 ADD PUSH2 0x214 JUMP JUMPDEST PUSH2 0x294 PUSH1 0x8 SLOAD DUP2 JUMP JUMPDEST PUSH2 0x294 PUSH1 0x6 SLOAD DUP2 JUMP JUMPDEST PUSH2 0x294 PUSH1 0x9 SLOAD DUP2 JUMP JUMPDEST PUSH1 0x3 SLOAD PUSH2 0x259 SWAP1 PUSH1 0x1 PUSH1 0x1 PUSH1 0xA0 SHL SUB AND DUP2 JUMP JUMPDEST PUSH2 0x294 PUSH32 0x61671C5D9C2848C4E78F3CFD7EFC04C5D793E746EFAB769B3416AA5BBFB40CC DUP2 JUMP JUMPDEST PUSH2 0x208 PUSH2 0x3C4 CALLDATASIZE PUSH1 0x4 PUSH2 0x117D JUMP JUMPDEST PUSH2 0x8D0 JUMP JUMPDEST PUSH2 0x294 PUSH1 0x0 DUP2 JUMP JUMPDEST PUSH2 0x230 PUSH2 0x8F9 JUMP JUMPDEST PUSH2 0x259 PUSH32 0x0 DUP2 JUMP JUMPDEST PUSH2 0x294 PUSH1 0x7 SLOAD DUP2 JUMP JUMPDEST PUSH2 0x294 PUSH32 0x372D55E37651A7C6E1940A3FB8628E4B6122A3C1A8B2B70AEE13E07228604567 DUP2 JUMP JUMPDEST PUSH1 0x4 SLOAD PUSH2 0x259 SWAP1 PUSH1 0x1 PUSH1 0x1 PUSH1 0xA0 SHL SUB AND DUP2 JUMP JUMPDEST PUSH2 0x230 PUSH2 0x451 CALLDATASIZE PUSH1 0x4 PUSH2 0x1164 JUMP JUMPDEST PUSH2 0x9CB JUMP JUMPDEST PUSH2 0x294 PUSH2 0x464 CALLDATASIZE PUSH1 0x4 PUSH2 0x1207 JUMP JUMPDEST PUSH1 0xB PUSH1 0x20 MSTORE PUSH1 0x0 SWAP1 DUP2 MSTORE PUSH1 0x40 SWAP1 KECCAK256 SLOAD DUP2 JUMP JUMPDEST PUSH2 0x294 PUSH2 0x484 CALLDATASIZE PUSH1 0x4 PUSH2 0x1207 JUMP JUMPDEST PUSH2 0xB23 JUMP JUMPDEST PUSH2 0x294 PUSH32 0x2172861495E7B85EDAC73E3CD5FBB42DD675BAADF627720E687BCFDACA025096 DUP2 JUMP JUMPDEST PUSH2 0x230 PUSH2 0x4BE CALLDATASIZE PUSH1 0x4 PUSH2 0x117D JUMP JUMPDEST PUSH2 0xB2E JUMP JUMPDEST PUSH2 0x294 PUSH2 0x4D1 CALLDATASIZE PUSH1 0x4 PUSH2 0x1207 JUMP JUMPDEST PUSH1 0xA PUSH1 0x20 MSTORE PUSH1 0x0 SWAP1 DUP2 MSTORE PUSH1 0x40 SWAP1 KECCAK256 SLOAD DUP2 JUMP JUMPDEST PUSH2 0x294 PUSH1 0x5 SLOAD DUP2 JUMP JUMPDEST PUSH2 0x294 PUSH32 0x66098348AC86AA2C1EFEF4EA51EB3A0DD075BFEEF7E5784EC740DC5B4EE760FD DUP2 JUMP JUMPDEST PUSH1 0x0 PUSH1 0x1 PUSH1 0x1 PUSH1 0xE0 SHL SUB NOT DUP3 AND PUSH4 0x7965DB0B PUSH1 0xE0 SHL EQ DUP1 PUSH2 0x544 JUMPI POP PUSH4 0x1FFC9A7 PUSH1 0xE0 SHL PUSH1 0x1 PUSH1 0x1 PUSH1 0xE0 SHL SUB NOT DUP4 AND EQ JUMPDEST SWAP3 SWAP2 POP POP JUMP JUMPDEST PUSH2 0x552 PUSH2 0xB53 JUMP JUMPDEST PUSH2 0x55A PUSH2 0xB7B JUMP JUMPDEST PUSH2 0x565 DUP4 DUP4 DUP4 PUSH2 0xB9F JUMP JUMPDEST PUSH2 0x56F PUSH1 0x1 PUSH1 0x2 SSTORE JUMP JUMPDEST POP POP POP JUMP JUMPDEST PUSH1 0x0 DUP3 DUP2 MSTORE PUSH1 0x20 DUP2 SWAP1 MSTORE PUSH1 0x40 SWAP1 KECCAK256 PUSH1 0x1 ADD SLOAD PUSH2 0x58F DUP2 PUSH2 0xCB6 JUMP JUMPDEST PUSH2 0x599 DUP4 DUP4 PUSH2 0xCC0 JUMP JUMPDEST POP POP POP POP JUMP JUMPDEST PUSH1 0x1 PUSH1 0x1 PUSH1 0xA0 SHL SUB DUP2 AND CALLER EQ PUSH2 0x5C8 JUMPI PUSH1 0x40 MLOAD PUSH4 0x334BD919 PUSH1 0xE1 SHL DUP2 MSTORE PUSH1 0x4 ADD PUSH1 0x40 MLOAD DUP1 SWAP2 SUB SWAP1 REVERT JUMPDEST PUSH2 0x56F DUP3 DUP3 PUSH2 0xD52 JUMP JUMPDEST PUSH2 0x5DA PUSH2 0xB53 JUMP JUMPDEST PUSH2 0x5E2 PUSH2 0xB7B JUMP JUMPDEST PUSH2 0x5ED CALLER CALLER DUP4 PUSH2 0xB9F JUMP JUMPDEST PUSH2 0x5F7 PUSH1 0x1 PUSH1 0x2 SSTORE JUMP JUMPDEST POP JUMP JUMPDEST PUSH32 0x73079B33C7C96C67A1FB6C710D1995195C9F4B3E62A619F237584F1BB28D0AA9 PUSH2 0x624 DUP2 PUSH2 0xCB6 JUMP JUMPDEST DUP3 DUP5 LT DUP1 ISZERO PUSH2 0x635 JUMPI POP PUSH2 0x2328 DUP4 GT ISZERO JUMPDEST PUSH2 0x66F JUMPI PUSH1 0x40 MLOAD PUSH3 0x461BCD PUSH1 0xE5 SHL DUP2 MSTORE PUSH1 0x20 PUSH1 0x4 DUP3 ADD MSTORE PUSH1 0x6 PUSH1 0x24 DUP3 ADD MSTORE PUSH6 0x706172616D73 PUSH1 0xD0 SHL PUSH1 0x44 DUP3 ADD MSTORE PUSH1 0x64 ADD JUMPDEST PUSH1 0x40 MLOAD DUP1 SWAP2 SUB SWAP1 REVERT JUMPDEST PUSH1 0x5 DUP5 SWAP1 SSTORE PUSH1 0x6 DUP4 SWAP1 SSTORE PUSH1 0x7 DUP3 SWAP1 SSTORE PUSH1 0x40 MLOAD DUP3 DUP2 MSTORE PUSH32 0x11D21E3FA4CEEB0310F7DCDD86974AFFAE5AA26FC8F3F45A952E5D4B92E58719 SWAP1 PUSH1 0x20 ADD PUSH1 0x40 MLOAD DUP1 SWAP2 SUB SWAP1 LOG1 POP POP POP POP JUMP JUMPDEST PUSH32 0x73079B33C7C96C67A1FB6C710D1995195C9F4B3E62A619F237584F1BB28D0AA9 PUSH2 0x6E1 DUP2 PUSH2 0xCB6 JUMP JUMPDEST POP PUSH1 0x3 DUP1 SLOAD PUSH1 0x1 PUSH1 0x1 PUSH1 0xA0 SHL SUB SWAP4 DUP5 AND PUSH1 0x1 PUSH1 0x1 PUSH1 0xA0 SHL SUB NOT SWAP2 DUP3 AND OR SWAP1 SWAP2 SSTORE PUSH1 0x4 DUP1 SLOAD SWAP3 SWAP1 SWAP4 AND SWAP2 AND OR SWAP1 SSTORE JUMP JUMPDEST PUSH1 0x40 MLOAD PUSH4 0x70A08231 PUSH1 0xE0 SHL DUP2 MSTORE PUSH1 0x1 PUSH1 0x1 PUSH1 0xA0 SHL SUB DUP3 DUP2 AND PUSH1 0x4 DUP4 ADD MSTORE PUSH1 0x0 SWAP2 DUP3 SWAP2 DUP3 SWAP2 PUSH32 0x0 SWAP1 SWAP2 AND SWAP1 PUSH4 0x70A08231 SWAP1 PUSH1 0x24 ADD PUSH1 0x20 PUSH1 0x40 MLOAD DUP1 DUP4 SUB DUP2 DUP7 GAS STATICCALL ISZERO DUP1 ISZERO PUSH2 0x77F JUMPI RETURNDATASIZE PUSH1 0x0 DUP1 RETURNDATACOPY RETURNDATASIZE PUSH1 0x0 REVERT JUMPDEST POP POP POP POP PUSH1 0x40 MLOAD RETURNDATASIZE PUSH1 0x1F NOT PUSH1 0x1F DUP3 ADD AND DUP3 ADD DUP1 PUSH1 0x40 MSTORE POP DUP2 ADD SWAP1 PUSH2 0x7A3 SWAP2 SWAP1 PUSH2 0x1224 JUMP JUMPDEST SWAP3 POP PUSH2 0x7AE DUP5 PUSH2 0xDBD JUMP JUMPDEST SWAP2 POP DUP2 PUSH1 0x0 SUB PUSH2 0x7C5 JUMPI POP PUSH1 0x0 SWAP1 POP PUSH1 0x0 NOT PUSH2 0x8C9 JUMP JUMPDEST PUSH1 0x3 SLOAD DUP4 SWAP1 PUSH1 0x1 PUSH1 0x1 PUSH1 0xA0 SHL SUB AND ISZERO DUP1 ISZERO SWAP1 PUSH2 0x7EB JUMPI POP PUSH1 0x4 SLOAD PUSH1 0x1 PUSH1 0x1 PUSH1 0xA0 SHL SUB AND ISZERO ISZERO JUMPDEST ISZERO PUSH2 0x888 JUMPI PUSH1 0x3 SLOAD PUSH1 0x4 DUP1 SLOAD PUSH1 0x40 MLOAD PUSH4 0x41976E09 PUSH1 0xE0 SHL DUP2 MSTORE PUSH1 0x1 PUSH1 0x1 PUSH1 0xA0 SHL SUB SWAP2 DUP3 AND SWAP3 DUP2 ADD SWAP3 SWAP1 SWAP3 MSTORE PUSH1 0x0 SWAP3 AND SWAP1 PUSH4 0x41976E09 SWAP1 PUSH1 0x24 ADD PUSH1 0x40 DUP1 MLOAD DUP1 DUP4 SUB DUP2 DUP7 GAS STATICCALL ISZERO DUP1 ISZERO PUSH2 0x840 JUMPI RETURNDATASIZE PUSH1 0x0 DUP1 RETURNDATACOPY RETURNDATASIZE PUSH1 0x0 REVERT JUMPDEST POP POP POP POP PUSH1 0x40 MLOAD RETURNDATASIZE PUSH1 0x1F NOT PUSH1 0x1F DUP3 ADD AND DUP3 ADD DUP1 PUSH1 0x40 MSTORE POP DUP2 ADD SWAP1 PUSH2 0x864 SWAP2 SWAP1 PUSH2 0x123D JUMP JUMPDEST POP SWAP1 POP PUSH8 0xDE0B6B3A7640000 PUSH2 0x87A DUP3 DUP8 PUSH2 0x1277 JUMP JUMPDEST PUSH2 0x884 SWAP2 SWAP1 PUSH2 0x128E JUMP JUMPDEST SWAP2 POP POP JUMPDEST PUSH1 0x0 PUSH2 0x2710 PUSH1 0x6 SLOAD DUP4 PUSH2 0x89B SWAP2 SWAP1 PUSH2 0x1277 JUMP JUMPDEST PUSH2 0x8A5 SWAP2 SWAP1 PUSH2 0x128E JUMP JUMPDEST SWAP1 POP DUP4 PUSH2 0x8BA DUP3 PUSH8 0xDE0B6B3A7640000 PUSH2 0x1277 JUMP JUMPDEST PUSH2 0x8C4 SWAP2 SWAP1 PUSH2 0x128E JUMP JUMPDEST SWAP3 POP POP POP JUMPDEST SWAP2 SWAP4 SWAP1 SWAP3 POP JUMP JUMPDEST PUSH1 0x0 SWAP2 DUP3 MSTORE PUSH1 0x20 DUP3 DUP2 MSTORE PUSH1 0x40 DUP1 DUP5 KECCAK256 PUSH1 0x1 PUSH1 0x1 PUSH1 0xA0 SHL SUB SWAP4 SWAP1 SWAP4 AND DUP5 MSTORE SWAP2 SWAP1 MSTORE SWAP1 KECCAK256 SLOAD PUSH1 0xFF AND SWAP1 JUMP JUMPDEST PUSH2 0x901 PUSH2 0xB7B JUMP JUMPDEST PUSH1 0x0 PUSH1 0x9 SLOAD TIMESTAMP PUSH2 0x911 SWAP2 SWAP1 PUSH2 0x12B0 JUMP JUMPDEST SWAP1 POP DUP1 PUSH1 0x0 SUB PUSH2 0x91E JUMPI POP JUMP JUMPDEST PUSH1 0x0 PUSH4 0x1E13380 PUSH1 0x7 SLOAD PUSH6 0x5AF3107A4000 PUSH2 0x939 SWAP2 SWAP1 PUSH2 0x1277 JUMP JUMPDEST PUSH2 0x943 SWAP2 SWAP1 PUSH2 0x128E JUMP JUMPDEST SWAP1 POP PUSH1 0x0 PUSH8 0xDE0B6B3A7640000 DUP4 DUP4 PUSH1 0x8 SLOAD PUSH2 0x95F SWAP2 SWAP1 PUSH2 0x1277 JUMP JUMPDEST PUSH2 0x969 SWAP2 SWAP1 PUSH2 0x1277 JUMP JUMPDEST PUSH2 0x973 SWAP2 SWAP1 PUSH2 0x128E JUMP JUMPDEST SWAP1 POP DUP1 PUSH1 0x8 SLOAD PUSH2 0x983 SWAP2 SWAP1 PUSH2 0x12C3 JUMP JUMPDEST PUSH1 0x8 DUP2 SWAP1 SSTORE TIMESTAMP PUSH1 0x9 SSTORE PUSH1 0x40 DUP1 MLOAD SWAP2 DUP3 MSTORE PUSH1 0x20 DUP3 ADD DUP6 SWAP1 MSTORE PUSH32 0xF66F28B40975DBB933913542C7E6A0F50A1D0F20AA74EA6E0EFE65AB616323EC SWAP2 ADD PUSH1 0x40 MLOAD DUP1 SWAP2 SUB SWAP1 LOG1 POP POP POP JUMPDEST JUMP JUMPDEST PUSH2 0x9D3 PUSH2 0xB53 JUMP JUMPDEST PUSH2 0x9DB PUSH2 0xB7B JUMP JUMPDEST PUSH1 0x0 DUP2 GT PUSH2 0xA14 JUMPI PUSH1 0x40 MLOAD PUSH3 0x461BCD PUSH1 0xE5 SHL DUP2 MSTORE PUSH1 0x20 PUSH1 0x4 DUP3 ADD MSTORE PUSH1 0x6 PUSH1 0x24 DUP3 ADD MSTORE PUSH6 0x185B5BDD5B9D PUSH1 0xD2 SHL PUSH1 0x44 DUP3 ADD MSTORE PUSH1 0x64 ADD PUSH2 0x666 JUMP JUMPDEST PUSH2 0xA1D CALLER PUSH2 0xE33 JUMP JUMPDEST PUSH1 0x0 DUP1 PUSH2 0xA29 CALLER PUSH2 0x710 JUMP JUMPDEST POP SWAP1 SWAP3 POP SWAP1 POP PUSH1 0x0 PUSH2 0xA3B DUP5 DUP4 PUSH2 0x12C3 JUMP JUMPDEST SWAP1 POP PUSH1 0x5 SLOAD PUSH2 0xA4A DUP5 DUP4 PUSH2 0xE71 JUMP JUMPDEST GT ISZERO PUSH2 0xA7E JUMPI PUSH1 0x40 MLOAD PUSH3 0x461BCD PUSH1 0xE5 SHL DUP2 MSTORE PUSH1 0x20 PUSH1 0x4 DUP3 ADD MSTORE PUSH1 0x3 PUSH1 0x24 DUP3 ADD MSTORE PUSH3 0x363A3B PUSH1 0xE9 SHL PUSH1 0x44 DUP3 ADD MSTORE PUSH1 0x64 ADD PUSH2 0x666 JUMP JUMPDEST PUSH2 0xA87 DUP2 PUSH2 0xF66 JUMP JUMPDEST CALLER PUSH1 0x0 DUP2 DUP2 MSTORE PUSH1 0xA PUSH1 0x20 SWAP1 DUP2 MSTORE PUSH1 0x40 DUP1 DUP4 KECCAK256 SWAP5 SWAP1 SWAP5 SSTORE PUSH1 0x8 SLOAD PUSH1 0xB SWAP1 SWAP2 MSTORE SWAP3 SWAP1 KECCAK256 SWAP2 SWAP1 SWAP2 SSTORE PUSH2 0xAE1 SWAP1 PUSH32 0x0 PUSH1 0x1 PUSH1 0x1 PUSH1 0xA0 SHL SUB AND SWAP1 DUP7 PUSH2 0xF97 JUMP JUMPDEST PUSH1 0x40 MLOAD DUP5 DUP2 MSTORE CALLER SWAP1 PUSH32 0xCBC04ECA7E9DA35CB1393A6135A199CA52E450D5E9251CBD99F7847D33A36750 SWAP1 PUSH1 0x20 ADD PUSH1 0x40 MLOAD DUP1 SWAP2 SUB SWAP1 LOG2 POP POP POP PUSH2 0x5F7 PUSH1 0x1 PUSH1 0x2 SSTORE JUMP JUMPDEST PUSH1 0x0 PUSH2 0x544 DUP3 PUSH2 0xDBD JUMP JUMPDEST PUSH1 0x0 DUP3 DUP2 MSTORE PUSH1 0x20 DUP2 SWAP1 MSTORE PUSH1 0x40 SWAP1 KECCAK256 PUSH1 0x1 ADD SLOAD PUSH2 0xB49 DUP2 PUSH2 0xCB6 JUMP JUMPDEST PUSH2 0x599 DUP4 DUP4 PUSH2 0xD52 JUMP JUMPDEST PUSH1 0x2 DUP1 SLOAD SUB PUSH2 0xB75 JUMPI PUSH1 0x40 MLOAD PUSH4 0x3EE5AEB5 PUSH1 0xE0 SHL DUP2 MSTORE PUSH1 0x4 ADD PUSH1 0x40 MLOAD DUP1 SWAP2 SUB SWAP1 REVERT JUMPDEST PUSH1 0x2 DUP1 SSTORE JUMP JUMPDEST PUSH1 0x1 SLOAD PUSH1 0xFF AND ISZERO PUSH2 0x9C9 JUMPI PUSH1 0x40 MLOAD PUSH4 0xD93C0665 PUSH1 0xE0 SHL DUP2 MSTORE PUSH1 0x4 ADD PUSH1 0x40 MLOAD DUP1 SWAP2 SUB SWAP1 REVERT JUMPDEST PUSH1 0x0 DUP2 GT PUSH2 0xBD8 JUMPI PUSH1 0x40 MLOAD PUSH3 0x461BCD PUSH1 0xE5 SHL DUP2 MSTORE PUSH1 0x20 PUSH1 0x4 DUP3 ADD MSTORE PUSH1 0x6 PUSH1 0x24 DUP3 ADD MSTORE PUSH6 0x185B5BDD5B9D PUSH1 0xD2 SHL PUSH1 0x44 DUP3 ADD MSTORE PUSH1 0x64 ADD PUSH2 0x666 JUMP JUMPDEST PUSH2 0xBE1 DUP3 PUSH2 0xE33 JUMP JUMPDEST PUSH2 0xC16 PUSH1 0x1 PUSH1 0x1 PUSH1 0xA0 SHL SUB PUSH32 0x0 AND DUP5 ADDRESS DUP5 PUSH2 0xFF6 JUMP JUMPDEST PUSH1 0x0 PUSH2 0xC21 DUP4 PUSH2 0xDBD JUMP JUMPDEST SWAP1 POP PUSH1 0x0 DUP2 DUP4 LT ISZERO PUSH2 0xC3C JUMPI PUSH2 0xC37 DUP4 DUP4 PUSH2 0x12B0 JUMP JUMPDEST PUSH2 0xC3F JUMP JUMPDEST PUSH1 0x0 JUMPDEST SWAP1 POP PUSH2 0xC4A DUP2 PUSH2 0xF66 JUMP JUMPDEST PUSH1 0x1 PUSH1 0x1 PUSH1 0xA0 SHL SUB DUP6 AND PUSH1 0x0 DUP2 DUP2 MSTORE PUSH1 0xA PUSH1 0x20 SWAP1 DUP2 MSTORE PUSH1 0x40 DUP1 DUP4 KECCAK256 SWAP5 SWAP1 SWAP5 SSTORE PUSH1 0x8 SLOAD PUSH1 0xB SWAP1 SWAP2 MSTORE SWAP1 DUP4 SWAP1 KECCAK256 SSTORE SWAP1 MLOAD PUSH32 0x5C16DE4F8B59BD9CAF0F49A545F25819A895ED223294290B408242E72A594231 SWAP1 PUSH2 0xCA7 SWAP1 DUP7 DUP2 MSTORE PUSH1 0x20 ADD SWAP1 JUMP JUMPDEST PUSH1 0x40 MLOAD DUP1 SWAP2 SUB SWAP1 LOG2 POP POP POP POP POP JUMP JUMPDEST PUSH2 0x5F7 DUP2 CALLER PUSH2 0x102F JUMP JUMPDEST PUSH1 0x0 PUSH2 0xCCC DUP4 DUP4 PUSH2 0x8D0 JUMP JUMPDEST PUSH2 0xD4A JUMPI PUSH1 0x0 DUP4 DUP2 MSTORE PUSH1 0x20 DUP2 DUP2 MSTORE PUSH1 0x40 DUP1 DUP4 KECCAK256 PUSH1 0x1 PUSH1 0x1 PUSH1 0xA0 SHL SUB DUP7 AND DUP5 MSTORE SWAP1 SWAP2 MSTORE SWAP1 KECCAK256 DUP1 SLOAD PUSH1 0xFF NOT AND PUSH1 0x1 OR SWAP1 SSTORE PUSH2 0xD02 CALLER SWAP1 JUMP JUMPDEST PUSH1 0x1 PUSH1 0x1 PUSH1 0xA0 SHL SUB AND DUP3 PUSH1 0x1 PUSH1 0x1 PUSH1 0xA0 SHL SUB AND DUP5 PUSH32 0x2F8788117E7EFF1D82E926EC794901D17C78024A50270940304540A733656F0D PUSH1 0x40 MLOAD PUSH1 0x40 MLOAD DUP1 SWAP2 SUB SWAP1 LOG4 POP PUSH1 0x1 PUSH2 0x544 JUMP JUMPDEST POP PUSH1 0x0 PUSH2 0x544 JUMP JUMPDEST PUSH1 0x0 PUSH2 0xD5E DUP4 DUP4 PUSH2 0x8D0 JUMP JUMPDEST ISZERO PUSH2 0xD4A JUMPI PUSH1 0x0 DUP4 DUP2 MSTORE PUSH1 0x20 DUP2 DUP2 MSTORE PUSH1 0x40 DUP1 DUP4 KECCAK256 PUSH1 0x1 PUSH1 0x1 PUSH1 0xA0 SHL SUB DUP7 AND DUP1 DUP6 MSTORE SWAP3 MSTORE DUP1 DUP4 KECCAK256 DUP1 SLOAD PUSH1 0xFF NOT AND SWAP1 SSTORE MLOAD CALLER SWAP3 DUP7 SWAP2 PUSH32 0xF6391F5C32D9C69D2A47EA670B442974B53935D1EDC7FD64EB21E047A839171B SWAP2 SWAP1 LOG4 POP PUSH1 0x1 PUSH2 0x544 JUMP JUMPDEST PUSH1 0x1 PUSH1 0x1 PUSH1 0xA0 SHL SUB DUP2 AND PUSH1 0x0 SWAP1 DUP2 MSTORE PUSH1 0xA PUSH1 0x20 MSTORE PUSH1 0x40 DUP2 KECCAK256 SLOAD DUP1 DUP3 SUB PUSH2 0xDE6 JUMPI POP PUSH1 0x0 SWAP3 SWAP2 POP POP JUMP JUMPDEST PUSH1 0x8 SLOAD PUSH1 0x1 PUSH1 0x1 PUSH1 0xA0 SHL SUB DUP5 AND PUSH1 0x0 SWAP1 DUP2 MSTORE PUSH1 0xB PUSH1 0x20 MSTORE PUSH1 0x40 DUP2 KECCAK256 SLOAD SWAP1 DUP2 SWAP1 SUB PUSH2 0xE15 JUMPI POP PUSH8 0xDE0B6B3A7640000 JUMPDEST DUP1 PUSH2 0xE20 DUP4 DUP6 PUSH2 0x1277 JUMP JUMPDEST PUSH2 0xE2A SWAP2 SWAP1 PUSH2 0x128E JUMP JUMPDEST SWAP6 SWAP5 POP POP POP POP POP JUMP JUMPDEST PUSH1 0x1 PUSH1 0x1 PUSH1 0xA0 SHL SUB DUP2 AND PUSH1 0x0 SWAP1 DUP2 MSTORE PUSH1 0xB PUSH1 0x20 MSTORE PUSH1 0x40 DUP2 KECCAK256 SLOAD SWAP1 SUB PUSH2 0x5F7 JUMPI PUSH1 0x8 SLOAD PUSH1 0x1 PUSH1 0x1 PUSH1 0xA0 SHL SUB DUP3 AND PUSH1 0x0 SWAP1 DUP2 MSTORE PUSH1 0xB PUSH1 0x20 MSTORE PUSH1 0x40 SWAP1 KECCAK256 SSTORE POP JUMP JUMPDEST PUSH1 0x0 DUP3 PUSH1 0x0 SUB PUSH2 0xE84 JUMPI POP PUSH1 0x0 NOT PUSH2 0x544 JUMP JUMPDEST PUSH1 0x3 SLOAD DUP4 SWAP1 PUSH1 0x1 PUSH1 0x1 PUSH1 0xA0 SHL SUB AND ISZERO DUP1 ISZERO SWAP1 PUSH2 0xEAA JUMPI POP PUSH1 0x4 SLOAD PUSH1 0x1 PUSH1 0x1 PUSH1 0xA0 SHL SUB AND ISZERO ISZERO JUMPDEST ISZERO PUSH2 0xF47 JUMPI PUSH1 0x3 SLOAD PUSH1 0x4 DUP1 SLOAD PUSH1 0x40 MLOAD PUSH4 0x41976E09 PUSH1 0xE0 SHL DUP2 MSTORE PUSH1 0x1 PUSH1 0x1 PUSH1 0xA0 SHL SUB SWAP2 DUP3 AND SWAP3 DUP2 ADD SWAP3 SWAP1 SWAP3 MSTORE PUSH1 0x0 SWAP3 AND SWAP1 PUSH4 0x41976E09 SWAP1 PUSH1 0x24 ADD PUSH1 0x40 DUP1 MLOAD DUP1 DUP4 SUB DUP2 DUP7 GAS STATICCALL ISZERO DUP1 ISZERO PUSH2 0xEFF JUMPI RETURNDATASIZE PUSH1 0x0 DUP1 RETURNDATACOPY RETURNDATASIZE PUSH1 0x0 REVERT JUMPDEST POP POP POP POP PUSH1 0x40 MLOAD RETURNDATASIZE PUSH1 0x1F NOT PUSH1 0x1F DUP3 ADD AND DUP3 ADD DUP1 PUSH1 0x40 MSTORE POP DUP2 ADD SWAP1 PUSH2 0xF23 SWAP2 SWAP1 PUSH2 0x123D JUMP JUMPDEST POP SWAP1 POP PUSH8 0xDE0B6B3A7640000 PUSH2 0xF39 DUP3 DUP8 PUSH2 0x1277 JUMP JUMPDEST PUSH2 0xF43 SWAP2 SWAP1 PUSH2 0x128E JUMP JUMPDEST SWAP2 POP POP JUMPDEST DUP1 PUSH2 0xF54 DUP5 PUSH2 0x2710 PUSH2 0x1277 JUMP JUMPDEST PUSH2 0xF5E SWAP2 SWAP1 PUSH2 0x128E JUMP JUMPDEST SWAP5 SWAP4 POP POP POP POP JUMP JUMPDEST PUSH1 0x0 DUP2 PUSH1 0x0 SUB PUSH2 0xF78 JUMPI POP PUSH1 0x0 SWAP2 SWAP1 POP JUMP JUMPDEST PUSH1 0x8 SLOAD PUSH2 0xF8D DUP4 PUSH8 0xDE0B6B3A7640000 PUSH2 0x1277 JUMP JUMPDEST PUSH2 0x544 SWAP2 SWAP1 PUSH2 0x128E JUMP JUMPDEST PUSH1 0x40 MLOAD PUSH1 0x1 PUSH1 0x1 PUSH1 0xA0 SHL SUB DUP4 DUP2 AND PUSH1 0x24 DUP4 ADD MSTORE PUSH1 0x44 DUP3 ADD DUP4 SWAP1 MSTORE PUSH2 0x56F SWAP2 DUP6 SWAP2 DUP3 AND SWAP1 PUSH4 0xA9059CBB SWAP1 PUSH1 0x64 ADD JUMPDEST PUSH1 0x40 MLOAD PUSH1 0x20 DUP2 DUP4 SUB SUB DUP2 MSTORE SWAP1 PUSH1 0x40 MSTORE SWAP2 POP PUSH1 0xE0 SHL PUSH1 0x20 DUP3 ADD DUP1 MLOAD PUSH1 0x1 PUSH1 0x1 PUSH1 0xE0 SHL SUB DUP4 DUP2 DUP4 AND OR DUP4 MSTORE POP POP POP POP PUSH2 0x106C JUMP JUMPDEST PUSH1 0x40 MLOAD PUSH1 0x1 PUSH1 0x1 PUSH1 0xA0 SHL SUB DUP5 DUP2 AND PUSH1 0x24 DUP4 ADD MSTORE DUP4 DUP2 AND PUSH1 0x44 DUP4 ADD MSTORE PUSH1 0x64 DUP3 ADD DUP4 SWAP1 MSTORE PUSH2 0x599 SWAP2 DUP7 SWAP2 DUP3 AND SWAP1 PUSH4 0x23B872DD SWAP1 PUSH1 0x84 ADD PUSH2 0xFC4 JUMP JUMPDEST PUSH2 0x1039 DUP3 DUP3 PUSH2 0x8D0 JUMP JUMPDEST PUSH2 0x1068 JUMPI PUSH1 0x40 MLOAD PUSH4 0xE2517D3F PUSH1 0xE0 SHL DUP2 MSTORE PUSH1 0x1 PUSH1 0x1 PUSH1 0xA0 SHL SUB DUP3 AND PUSH1 0x4 DUP3 ADD MSTORE PUSH1 0x24 DUP2 ADD DUP4 SWAP1 MSTORE PUSH1 0x44 ADD PUSH2 0x666 JUMP JUMPDEST POP POP JUMP JUMPDEST PUSH1 0x0 DUP1 PUSH1 0x20 PUSH1 0x0 DUP5 MLOAD PUSH1 0x20 DUP7 ADD PUSH1 0x0 DUP9 GAS CALL DUP1 PUSH2 0x108F JUMPI PUSH1 0x40 MLOAD RETURNDATASIZE PUSH1 0x0 DUP3 RETURNDATACOPY RETURNDATASIZE DUP2 REVERT JUMPDEST POP POP PUSH1 0x0 MLOAD RETURNDATASIZE SWAP2 POP DUP2 ISZERO PUSH2 0x10A7 JUMPI DUP1 PUSH1 0x1 EQ ISZERO PUSH2 0x10B4 JUMP JUMPDEST PUSH1 0x1 PUSH1 0x1 PUSH1 0xA0 SHL SUB DUP5 AND EXTCODESIZE ISZERO JUMPDEST ISZERO PUSH2 0x599 JUMPI PUSH1 0x40 MLOAD PUSH4 0x5274AFE7 PUSH1 0xE0 SHL DUP2 MSTORE PUSH1 0x1 PUSH1 0x1 PUSH1 0xA0 SHL SUB DUP6 AND PUSH1 0x4 DUP3 ADD MSTORE PUSH1 0x24 ADD PUSH2 0x666 JUMP JUMPDEST PUSH1 0x0 PUSH1 0x20 DUP3 DUP5 SUB SLT ISZERO PUSH2 0x10EF JUMPI PUSH1 0x0 DUP1 REVERT JUMPDEST DUP2 CALLDATALOAD PUSH1 0x1 PUSH1 0x1 PUSH1 0xE0 SHL SUB NOT DUP2 AND DUP2 EQ PUSH2 0x1107 JUMPI PUSH1 0x0 DUP1 REVERT JUMPDEST SWAP4 SWAP3 POP POP POP JUMP JUMPDEST PUSH1 0x1 PUSH1 0x1 PUSH1 0xA0 SHL SUB DUP2 AND DUP2 EQ PUSH2 0x5F7 JUMPI PUSH1 0x0 DUP1 REVERT JUMPDEST PUSH1 0x0 DUP1 PUSH1 0x0 PUSH1 0x60 DUP5 DUP7 SUB SLT ISZERO PUSH2 0x1138 JUMPI PUSH1 0x0 DUP1 REVERT JUMPDEST DUP4 CALLDATALOAD PUSH2 0x1143 DUP2 PUSH2 0x110E JUMP JUMPDEST SWAP3 POP PUSH1 0x20 DUP5 ADD CALLDATALOAD PUSH2 0x1153 DUP2 PUSH2 0x110E JUMP JUMPDEST SWAP3 SWAP6 SWAP3 SWAP5 POP POP POP PUSH1 0x40 SWAP2 SWAP1 SWAP2 ADD CALLDATALOAD SWAP1 JUMP JUMPDEST PUSH1 0x0 PUSH1 0x20 DUP3 DUP5 SUB SLT ISZERO PUSH2 0x1176 JUMPI PUSH1 0x0 DUP1 REVERT JUMPDEST POP CALLDATALOAD SWAP2 SWAP1 POP JUMP JUMPDEST PUSH1 0x0 DUP1 PUSH1 0x40 DUP4 DUP6 SUB SLT ISZERO PUSH2 0x1190 JUMPI PUSH1 0x0 DUP1 REVERT JUMPDEST DUP3 CALLDATALOAD SWAP2 POP PUSH1 0x20 DUP4 ADD CALLDATALOAD PUSH2 0x11A2 DUP2 PUSH2 0x110E JUMP JUMPDEST DUP1 SWAP2 POP POP SWAP3 POP SWAP3 SWAP1 POP JUMP JUMPDEST PUSH1 0x0 DUP1 PUSH1 0x0 PUSH1 0x60 DUP5 DUP7 SUB SLT ISZERO PUSH2 0x11C2 JUMPI PUSH1 0x0 DUP1 REVERT JUMPDEST POP POP DUP2 CALLDATALOAD SWAP4 PUSH1 0x20 DUP4 ADD CALLDATALOAD SWAP4 POP PUSH1 0x40 SWAP1 SWAP3 ADD CALLDATALOAD SWAP2 SWAP1 POP JUMP JUMPDEST PUSH1 0x0 DUP1 PUSH1 0x40 DUP4 DUP6 SUB SLT ISZERO PUSH2 0x11EC JUMPI PUSH1 0x0 DUP1 REVERT JUMPDEST DUP3 CALLDATALOAD PUSH2 0x11F7 DUP2 PUSH2 0x110E JUMP JUMPDEST SWAP2 POP PUSH1 0x20 DUP4 ADD CALLDATALOAD PUSH2 0x11A2 DUP2 PUSH2 0x110E JUMP JUMPDEST PUSH1 0x0 PUSH1 0x20 DUP3 DUP5 SUB SLT ISZERO PUSH2 0x1219 JUMPI PUSH1 0x0 DUP1 REVERT JUMPDEST DUP2 CALLDATALOAD PUSH2 0x1107 DUP2 PUSH2 0x110E JUMP JUMPDEST PUSH1 0x0 PUSH1 0x20 DUP3 DUP5 SUB SLT ISZERO PUSH2 0x1236 JUMPI PUSH1 0x0 DUP1 REVERT JUMPDEST POP MLOAD SWAP2 SWAP1 POP JUMP JUMPDEST PUSH1 0x0 DUP1 PUSH1 0x40 DUP4 DUP6 SUB SLT ISZERO PUSH2 0x1250 JUMPI PUSH1 0x0 DUP1 REVERT JUMPDEST POP POP DUP1 MLOAD PUSH1 0x20 SWAP1 SWAP2 ADD MLOAD SWAP1 SWAP3 SWAP1 SWAP2 POP JUMP JUMPDEST PUSH4 0x4E487B71 PUSH1 0xE0 SHL PUSH1 0x0 MSTORE PUSH1 0x11 PUSH1 0x4 MSTORE PUSH1 0x24 PUSH1 0x0 REVERT JUMPDEST DUP1 DUP3 MUL DUP2 ISZERO DUP3 DUP3 DIV DUP5 EQ OR PUSH2 0x544 JUMPI PUSH2 0x544 PUSH2 0x1261 JUMP JUMPDEST PUSH1 0x0 DUP3 PUSH2 0x12AB JUMPI PUSH4 0x4E487B71 PUSH1 0xE0 SHL PUSH1 0x0 MSTORE PUSH1 0x12 PUSH1 0x4 MSTORE PUSH1 0x24 PUSH1 0x0 REVERT JUMPDEST POP DIV SWAP1 JUMP JUMPDEST DUP2 DUP2 SUB DUP2 DUP2 GT ISZERO PUSH2 0x544 JUMPI PUSH2 0x544 PUSH2 0x1261 JUMP JUMPDEST DUP1 DUP3 ADD DUP1 DUP3 GT ISZERO PUSH2 0x544 JUMPI PUSH2 0x544 PUSH2 0x1261 JUMP INVALID LOG2 PUSH5 0x6970667358 0x22 SLT KECCAK256 0xCB PUSH30 0xE4CEBC1E47998426C2C9C5310C8052D9F6207AC556B4F092A7B63DB5287D PUSH5 0x736F6C6343 STOP ADDMOD XOR STOP CALLER 0x21 PUSH19 0x861495E7B85EDAC73E3CD5FBB42DD675BAADF6 0x27 PUSH19 0xE687BCFDACA02509600000000000000000000 "},"methodIdentifiers":{"DEFAULT_ADMIN_ROLE()":"a217fddf","ROLE_ADMIN()":"d391014b","ROLE_KEEPER()":"895ec75f","ROLE_ORACLE()":"f0173703","ROLE_PAUSER()":"b047eb02","ROLE_RISK()":"42be00b8","accrueInterest()":"a6afed95","baseRateBps()":"aaa6a391","borrow(uint256)":"c5ebeaec","collateralToken()":"b2016bd4","collateralVault()":"0bece79c","debtAsset()":"a919802d","debtOf(address)":"d283e75f","getAccountData(address)":"5d78650e","getRoleAdmin(bytes32)":"248a9ca3","grantRole(bytes32,address)":"2f2ff15d","hasRole(bytes32,address)":"91d14854","interestIndex()":"62314245","lastAccrual()":"7b3baab4","liquidationLtv()":"7a89dfca","oracle()":"7dc0d1d0","paused()":"5c975abb","principalDebt(address)":"de9ce35c","renounceRole(bytes32,address)":"36568abe","repay(uint256)":"371fd8e6","repayFrom(address,address,uint256)":"098fe105","revokeRole(bytes32,address)":"d547741f","setOracle(address,address)":"5c38eb3a","setParams(uint256,uint256,uint256)":"5a0ce676","supportsInterface(bytes4)":"01ffc9a7","targetLtv()":"ec921dc1","userIndex(address)":"c96679fe"}}}}}