{"contracts/oracle/OracleRouter.sol":{"OracleRouter":{"abi":[{"inputs":[{"internalType":"address","name":"admin","type":"address"},{"internalType":"contract IOracle","name":"_primary","type":"address"},{"internalType":"contract IOracle","name":"_fallback","type":"address"}],"stateMutability":"nonpayable","type":"constructor"},{"inputs":[],"name":"AccessControlBadConfirmation","type":"error"},{"inputs":[{"internalType":"address","name":"account","type":"address"},{"internalType":"bytes32","name":"neededRole","type":"bytes32"}],"name":"AccessControlUnauthorizedAccount","type":"error"},{"anonymous":false,"inputs":[{"indexed":true,"internalType":"bytes32","name":"role","type":"bytes32"},{"indexed":true,"internalType":"bytes32","name":"previousAdminRole","type":"bytes32"},{"indexed":true,"internalType":"bytes32","name":"newAdminRole","type":"bytes32"}],"name":"RoleAdminChanged","type":"event"},{"anonymous":false,"inputs":[{"indexed":true,"internalType":"bytes32","name":"role","type":"bytes32"},{"indexed":true,"internalType":"address","name":"account","type":"address"},{"indexed":true,"internalType":"address","name":"sender","type":"address"}],"name":"RoleGranted","type":"event"},{"anonymous":false,"inputs":[{"indexed":true,"internalType":"bytes32","name":"role","type":"bytes32"},{"indexed":true,"internalType":"address","name":"account","type":"address"},{"indexed":true,"internalType":"address","name":"sender","type":"address"}],"name":"RoleRevoked","type":"event"},{"anonymous":false,"inputs":[{"indexed":false,"internalType":"address","name":"primary","type":"address"},{"indexed":false,"internalType":"address","name":"fallbackOracle","type":"address"}],"name":"UpdateAdapters","type":"event"},{"anonymous":false,"inputs":[{"indexed":false,"internalType":"uint256","name":"staleness","type":"uint256"},{"indexed":false,"internalType":"uint256","name":"deviationBps","type":"uint256"}],"name":"UpdateLimits","type":"event"},{"inputs":[],"name":"DEFAULT_ADMIN_ROLE","outputs":[{"internalType":"bytes32","name":"","type":"bytes32"}],"stateMutability":"view","type":"function"},{"inputs":[],"name":"ROLE_ADMIN","outputs":[{"internalType":"bytes32","name":"","type":"bytes32"}],"stateMutability":"view","type":"function"},{"inputs":[],"name":"ROLE_KEEPER","outputs":[{"internalType":"bytes32","name":"","type":"bytes32"}],"stateMutability":"view","type":"function"},{"inputs":[],"name":"ROLE_ORACLE","outputs":[{"internalType":"bytes32","name":"","type":"bytes32"}],"stateMutability":"view","type":"function"},{"inputs":[],"name":"ROLE_PAUSER","outputs":[{"internalType":"bytes32","name":"","type":"bytes32"}],"stateMutability":"view","type":"function"},{"inputs":[],"name":"ROLE_RISK","outputs":[{"internalType":"bytes32","name":"","type":"bytes32"}],"stateMutability":"view","type":"function"},{"inputs":[],"name":"fallbackOracle","outputs":[{"internalType":"contract IOracle","name":"","type":"address"}],"stateMutability":"view","type":"function"},{"inputs":[{"internalType":"address","name":"token","type":"address"}],"name":"getPrice","outputs":[{"internalType":"uint256","name":"price","type":"uint256"},{"internalType":"uint256","name":"updatedAt","type":"uint256"}],"stateMutability":"view","type":"function"},{"inputs":[{"internalType":"bytes32","name":"role","type":"bytes32"}],"name":"getRoleAdmin","outputs":[{"internalType":"bytes32","name":"","type":"bytes32"}],"stateMutability":"view","type":"function"},{"inputs":[{"internalType":"bytes32","name":"role","type":"bytes32"},{"internalType":"address","name":"account","type":"address"}],"name":"grantRole","outputs":[],"stateMutability":"nonpayable","type":"function"},{"inputs":[{"internalType":"bytes32","name":"role","type":"bytes32"},{"internalType":"address","name":"account","type":"address"}],"name":"hasRole","outputs":[{"internalType":"bool","name":"","type":"bool"}],"stateMutability":"view","type":"function"},{"inputs":[],"name":"maxDeviationBps","outputs":[{"internalType":"uint256","name":"","type":"uint256"}],"stateMutability":"view","type":"function"},{"inputs":[],"name":"maxStaleness","outputs":[{"internalType":"uint256","name":"","type":"uint256"}],"stateMutability":"view","type":"function"},{"inputs":[],"name":"primary","outputs":[{"internalType":"contract IOracle","name":"","type":"address"}],"stateMutability":"view","type":"function"},{"inputs":[{"internalType":"bytes32","name":"role","type":"bytes32"},{"internalType":"address","name":"callerConfirmation","type":"address"}],"name":"renounceRole","outputs":[],"stateMutability":"nonpayable","type":"function"},{"inputs":[{"internalType":"bytes32","name":"role","type":"bytes32"},{"internalType":"address","name":"account","type":"address"}],"name":"revokeRole","outputs":[],"stateMutability":"nonpayable","type":"function"},{"inputs":[{"internalType":"contract IOracle","name":"_primary","type":"address"},{"internalType":"contract IOracle","name":"_fallback","type":"address"}],"name":"setAdapters","outputs":[],"stateMutability":"nonpayable","type":"function"},{"inputs":[{"internalType":"uint256","name":"staleness","type":"uint256"},{"internalType":"uint256","name":"deviationBps","type":"uint256"}],"name":"setLimits","outputs":[],"stateMutability":"nonpayable","type":"function"},{"inputs":[{"internalType":"bytes4","name":"interfaceId","type":"bytes4"}],"name":"supportsInterface","outputs":[{"internalType":"bool","name":"","type":"bool"}],"stateMutability":"view","type":"function"}],"evm":{"bytecode":{"linkReferences":{},"object":"6080604052607860015560966002553480156200001b57600080fd5b5060405162000d8338038062000d838339810160408190526200003e916200028e565b826200005a60008051602062000d63833981519152826200017b565b50620000967f73079b33c7c96c67a1fb6c710d1995195c9f4b3e62a619f237584f1bb28d0aa960008051602062000d638339815191526200022a565b620000d17f66098348ac86aa2c1efef4ea51eb3a0dd075bfeef7e5784ec740dc5b4ee760fd60008051602062000d638339815191526200022a565b6200010c7f061671c5d9c2848c4e78f3cfd7efc04c5d793e746efab769b3416aa5bbfb40cc60008051602062000d638339815191526200022a565b620001477f372d55e37651a7c6e1940a3fb8628e4b6122a3c1a8b2b70aee13e0722860456760008051602062000d638339815191526200022a565b50600380546001600160a01b039384166001600160a01b0319918216179091556004805492909316911617905550620002e2565b6000828152602081815260408083206001600160a01b038516845290915281205460ff1662000220576000838152602081815260408083206001600160a01b03861684529091529020805460ff19166001179055620001d73390565b6001600160a01b0316826001600160a01b0316847f2f8788117e7eff1d82e926ec794901d17c78024a50270940304540a733656f0d60405160405180910390a450600162000224565b5060005b92915050565b600082815260208190526040808220600101805490849055905190918391839186917fbd79b86ffe0ab8e8776151514217cd7cacd52c909f66475c3af44e129f0b00ff9190a4505050565b6001600160a01b03811681146200028b57600080fd5b50565b600080600060608486031215620002a457600080fd5b8351620002b18162000275565b6020850151909350620002c48162000275565b6040850151909250620002d78162000275565b809150509250925092565b610a7180620002f26000396000f3fe608060405234801561001057600080fd5b50600436106101215760003560e01c806387cf4696116100ad578063c4590d3f11610071578063c4590d3f146102af578063c6dbdf61146102c2578063d391014b146102d5578063d547741f146102fc578063f01737031461030f57600080fd5b806387cf46961461023d578063895ec75f1461024657806391d148541461026d578063a217fddf14610280578063b047eb021461028857600080fd5b806336568abe116100f457806336568abe146101a75780633ee7a701146101ba57806341976e09146101c357806342be00b8146101eb578063629838e51461021257600080fd5b806301ffc9a71461012657806302f059961461014e578063248a9ca3146101635780632f2ff15d14610194575b600080fd5b6101396101343660046108b9565b610336565b60405190151581526020015b60405180910390f35b61016161015c3660046108ff565b61036d565b005b610186610171366004610938565b60009081526020819052604090206001015490565b604051908152602001610145565b6101616101a2366004610951565b610407565b6101616101b5366004610951565b610432565b61018660025481565b6101d66101d1366004610976565b61046a565b60408051928352602083019190915201610145565b6101867f73079b33c7c96c67a1fb6c710d1995195c9f4b3e62a619f237584f1bb28d0aa981565b600454610225906001600160a01b031681565b6040516001600160a01b039091168152602001610145565b61018660015481565b6101867f061671c5d9c2848c4e78f3cfd7efc04c5d793e746efab769b3416aa5bbfb40cc81565b61013961027b366004610951565b610682565b610186600081565b6101867f372d55e37651a7c6e1940a3fb8628e4b6122a3c1a8b2b70aee13e0722860456781565b6101616102bd366004610993565b6106ab565b600354610225906001600160a01b031681565b6101867f2172861495e7b85edac73e3cd5fbb42dd675baadf627720e687bcfdaca02509681565b61016161030a366004610951565b61074d565b6101867f66098348ac86aa2c1efef4ea51eb3a0dd075bfeef7e5784ec740dc5b4ee760fd81565b60006001600160e01b03198216637965db0b60e01b148061036757506301ffc9a760e01b6001600160e01b03198316145b92915050565b7f66098348ac86aa2c1efef4ea51eb3a0dd075bfeef7e5784ec740dc5b4ee760fd61039781610772565b600380546001600160a01b038581166001600160a01b03199283168117909355600480549186169190921681179091556040805192835260208301919091527f7d27b7e87e066a099a35c09aa9ebcd5343af795f629384898a1c6e5d0f755db291015b60405180910390a1505050565b60008281526020819052604090206001015461042281610772565b61042c838361077f565b50505050565b6001600160a01b038116331461045b5760405163334bd91960e11b815260040160405180910390fd5b6104658282610811565b505050565b6003546040516341976e0960e01b81526001600160a01b03838116600483015260009283928392839216906341976e09906024016040805180830381865afa1580156104ba573d6000803e3d6000fd5b505050506040513d601f19601f820116820180604052508101906104de91906109b5565b91509150600060015482426104f391906109ef565b118015915061050757509094909350915050565b600480546040516341976e0960e01b81526001600160a01b0389811693820193909352600092839216906341976e09906024016040805180830381865afa158015610556573d6000803e3d6000fd5b505050506040513d601f19601f8201168201806040525081019061057a91906109b5565b915091506000600154824261058f91906109ef565b11159050806105cd5760405162461bcd60e51b81526020600482015260056024820152647374616c6560d81b60448201526064015b60405180910390fd5b6000861180156105dd5750600083115b1561067457600083871161061157836105f688826109ef565b61060290612710610a02565b61060c9190610a19565b610632565b8661061c85826109ef565b61062890612710610a02565b6106329190610a19565b90506002548111156106725760405162461bcd60e51b81526020600482015260096024820152683232bb34b0ba34b7b760b91b60448201526064016105c4565b505b509097909650945050505050565b6000918252602082815260408084206001600160a01b0393909316845291905290205460ff1690565b7f66098348ac86aa2c1efef4ea51eb3a0dd075bfeef7e5784ec740dc5b4ee760fd6106d581610772565b61271082111561070d5760405162461bcd60e51b815260206004820152600360248201526218985960ea1b60448201526064016105c4565b6001839055600282905560408051848152602081018490527fc2bcf5eac2e3b6d5fc30d95c85f56d5a310f3f3934e1c5d876c43f7bbd21b71e91016103fa565b60008281526020819052604090206001015461076881610772565b61042c8383610811565b61077c813361087c565b50565b600061078b8383610682565b610809576000838152602081815260408083206001600160a01b03861684529091529020805460ff191660011790556107c13390565b6001600160a01b0316826001600160a01b0316847f2f8788117e7eff1d82e926ec794901d17c78024a50270940304540a733656f0d60405160405180910390a4506001610367565b506000610367565b600061081d8383610682565b15610809576000838152602081815260408083206001600160a01b0386168085529252808320805460ff1916905551339286917ff6391f5c32d9c69d2a47ea670b442974b53935d1edc7fd64eb21e047a839171b9190a4506001610367565b6108868282610682565b6108b55760405163e2517d3f60e01b81526001600160a01b0382166004820152602481018390526044016105c4565b5050565b6000602082840312156108cb57600080fd5b81356001600160e01b0319811681146108e357600080fd5b9392505050565b6001600160a01b038116811461077c57600080fd5b6000806040838503121561091257600080fd5b823561091d816108ea565b9150602083013561092d816108ea565b809150509250929050565b60006020828403121561094a57600080fd5b5035919050565b6000806040838503121561096457600080fd5b82359150602083013561092d816108ea565b60006020828403121561098857600080fd5b81356108e3816108ea565b600080604083850312156109a657600080fd5b50508035926020909101359150565b600080604083850312156109c857600080fd5b505080516020909101519092909150565b634e487b7160e01b600052601160045260246000fd5b81810381811115610367576103676109d9565b8082028115828204841417610367576103676109d9565b600082610a3657634e487b7160e01b600052601260045260246000fd5b50049056fea2646970667358221220d9d7ccce979265d95c7f65a4a81d309d4e904dff8fc27d91a0417d934f5f57ef64736f6c634300081800332172861495e7b85edac73e3cd5fbb42dd675baadf627720e687bcfdaca025096","opcodes":"PUSH1 0x80 PUSH1 0x40 MSTORE PUSH1 0x78 PUSH1 0x1 SSTORE PUSH1 0x96 PUSH1 0x2 SSTORE CALLVALUE DUP1 ISZERO PUSH3 0x1B JUMPI PUSH1 0x0 DUP1 REVERT JUMPDEST POP PUSH1 0x40 MLOAD PUSH3 0xD83 CODESIZE SUB DUP1 PUSH3 0xD83 DUP4 CODECOPY DUP2 ADD PUSH1 0x40 DUP2 SWAP1 MSTORE PUSH3 0x3E SWAP2 PUSH3 0x28E JUMP JUMPDEST DUP3 PUSH3 0x5A PUSH1 0x0 DUP1 MLOAD PUSH1 0x20 PUSH3 0xD63 DUP4 CODECOPY DUP2 MLOAD SWAP2 MSTORE DUP3 PUSH3 0x17B JUMP JUMPDEST POP PUSH3 0x96 PUSH32 0x73079B33C7C96C67A1FB6C710D1995195C9F4B3E62A619F237584F1BB28D0AA9 PUSH1 0x0 DUP1 MLOAD PUSH1 0x20 PUSH3 0xD63 DUP4 CODECOPY DUP2 MLOAD SWAP2 MSTORE PUSH3 0x22A JUMP JUMPDEST PUSH3 0xD1 PUSH32 0x66098348AC86AA2C1EFEF4EA51EB3A0DD075BFEEF7E5784EC740DC5B4EE760FD PUSH1 0x0 DUP1 MLOAD PUSH1 0x20 PUSH3 0xD63 DUP4 CODECOPY DUP2 MLOAD SWAP2 MSTORE PUSH3 0x22A JUMP JUMPDEST PUSH3 0x10C PUSH32 0x61671C5D9C2848C4E78F3CFD7EFC04C5D793E746EFAB769B3416AA5BBFB40CC PUSH1 0x0 DUP1 MLOAD PUSH1 0x20 PUSH3 0xD63 DUP4 CODECOPY DUP2 MLOAD SWAP2 MSTORE PUSH3 0x22A JUMP JUMPDEST PUSH3 0x147 PUSH32 0x372D55E37651A7C6E1940A3FB8628E4B6122A3C1A8B2B70AEE13E07228604567 PUSH1 0x0 DUP1 MLOAD PUSH1 0x20 PUSH3 0xD63 DUP4 CODECOPY DUP2 MLOAD SWAP2 MSTORE PUSH3 0x22A JUMP JUMPDEST POP PUSH1 0x3 DUP1 SLOAD PUSH1 0x1 PUSH1 0x1 PUSH1 0xA0 SHL SUB SWAP4 DUP5 AND PUSH1 0x1 PUSH1 0x1 PUSH1 0xA0 SHL SUB NOT SWAP2 DUP3 AND OR SWAP1 SWAP2 SSTORE PUSH1 0x4 DUP1 SLOAD SWAP3 SWAP1 SWAP4 AND SWAP2 AND OR SWAP1 SSTORE POP PUSH3 0x2E2 JUMP JUMPDEST PUSH1 0x0 DUP3 DUP2 MSTORE PUSH1 0x20 DUP2 DUP2 MSTORE PUSH1 0x40 DUP1 DUP4 KECCAK256 PUSH1 0x1 PUSH1 0x1 PUSH1 0xA0 SHL SUB DUP6 AND DUP5 MSTORE SWAP1 SWAP2 MSTORE DUP2 KECCAK256 SLOAD PUSH1 0xFF AND PUSH3 0x220 JUMPI PUSH1 0x0 DUP4 DUP2 MSTORE PUSH1 0x20 DUP2 DUP2 MSTORE PUSH1 0x40 DUP1 DUP4 KECCAK256 PUSH1 0x1 PUSH1 0x1 PUSH1 0xA0 SHL SUB DUP7 AND DUP5 MSTORE SWAP1 SWAP2 MSTORE SWAP1 KECCAK256 DUP1 SLOAD PUSH1 0xFF NOT AND PUSH1 0x1 OR SWAP1 SSTORE PUSH3 0x1D7 CALLER SWAP1 JUMP JUMPDEST PUSH1 0x1 PUSH1 0x1 PUSH1 0xA0 SHL SUB AND DUP3 PUSH1 0x1 PUSH1 0x1 PUSH1 0xA0 SHL SUB AND DUP5 PUSH32 0x2F8788117E7EFF1D82E926EC794901D17C78024A50270940304540A733656F0D PUSH1 0x40 MLOAD PUSH1 0x40 MLOAD DUP1 SWAP2 SUB SWAP1 LOG4 POP PUSH1 0x1 PUSH3 0x224 JUMP JUMPDEST POP PUSH1 0x0 JUMPDEST SWAP3 SWAP2 POP POP JUMP JUMPDEST PUSH1 0x0 DUP3 DUP2 MSTORE PUSH1 0x20 DUP2 SWAP1 MSTORE PUSH1 0x40 DUP1 DUP3 KECCAK256 PUSH1 0x1 ADD DUP1 SLOAD SWAP1 DUP5 SWAP1 SSTORE SWAP1 MLOAD SWAP1 SWAP2 DUP4 SWAP2 DUP4 SWAP2 DUP7 SWAP2 PUSH32 0xBD79B86FFE0AB8E8776151514217CD7CACD52C909F66475C3AF44E129F0B00FF SWAP2 SWAP1 LOG4 POP POP POP JUMP JUMPDEST PUSH1 0x1 PUSH1 0x1 PUSH1 0xA0 SHL SUB DUP2 AND DUP2 EQ PUSH3 0x28B JUMPI PUSH1 0x0 DUP1 REVERT JUMPDEST POP JUMP JUMPDEST PUSH1 0x0 DUP1 PUSH1 0x0 PUSH1 0x60 DUP5 DUP7 SUB SLT ISZERO PUSH3 0x2A4 JUMPI PUSH1 0x0 DUP1 REVERT JUMPDEST DUP4 MLOAD PUSH3 0x2B1 DUP2 PUSH3 0x275 JUMP JUMPDEST PUSH1 0x20 DUP6 ADD MLOAD SWAP1 SWAP4 POP PUSH3 0x2C4 DUP2 PUSH3 0x275 JUMP JUMPDEST PUSH1 0x40 DUP6 ADD MLOAD SWAP1 SWAP3 POP PUSH3 0x2D7 DUP2 PUSH3 0x275 JUMP JUMPDEST DUP1 SWAP2 POP POP SWAP3 POP SWAP3 POP SWAP3 JUMP JUMPDEST PUSH2 0xA71 DUP1 PUSH3 0x2F2 PUSH1 0x0 CODECOPY PUSH1 0x0 RETURN INVALID PUSH1 0x80 PUSH1 0x40 MSTORE CALLVALUE DUP1 ISZERO PUSH2 0x10 JUMPI PUSH1 0x0 DUP1 REVERT JUMPDEST POP PUSH1 0x4 CALLDATASIZE LT PUSH2 0x121 JUMPI PUSH1 0x0 CALLDATALOAD PUSH1 0xE0 SHR DUP1 PUSH4 0x87CF4696 GT PUSH2 0xAD JUMPI DUP1 PUSH4 0xC4590D3F GT PUSH2 0x71 JUMPI DUP1 PUSH4 0xC4590D3F EQ PUSH2 0x2AF JUMPI DUP1 PUSH4 0xC6DBDF61 EQ PUSH2 0x2C2 JUMPI DUP1 PUSH4 0xD391014B EQ PUSH2 0x2D5 JUMPI DUP1 PUSH4 0xD547741F EQ PUSH2 0x2FC JUMPI DUP1 PUSH4 0xF0173703 EQ PUSH2 0x30F JUMPI PUSH1 0x0 DUP1 REVERT JUMPDEST DUP1 PUSH4 0x87CF4696 EQ PUSH2 0x23D JUMPI DUP1 PUSH4 0x895EC75F EQ PUSH2 0x246 JUMPI DUP1 PUSH4 0x91D14854 EQ PUSH2 0x26D JUMPI DUP1 PUSH4 0xA217FDDF EQ PUSH2 0x280 JUMPI DUP1 PUSH4 0xB047EB02 EQ PUSH2 0x288 JUMPI PUSH1 0x0 DUP1 REVERT JUMPDEST DUP1 PUSH4 0x36568ABE GT PUSH2 0xF4 JUMPI DUP1 PUSH4 0x36568ABE EQ PUSH2 0x1A7 JUMPI DUP1 PUSH4 0x3EE7A701 EQ PUSH2 0x1BA JUMPI DUP1 PUSH4 0x41976E09 EQ PUSH2 0x1C3 JUMPI DUP1 PUSH4 0x42BE00B8 EQ PUSH2 0x1EB JUMPI DUP1 PUSH4 0x629838E5 EQ PUSH2 0x212 JUMPI PUSH1 0x0 DUP1 REVERT JUMPDEST DUP1 PUSH4 0x1FFC9A7 EQ PUSH2 0x126 JUMPI DUP1 PUSH4 0x2F05996 EQ PUSH2 0x14E JUMPI DUP1 PUSH4 0x248A9CA3 EQ PUSH2 0x163 JUMPI DUP1 PUSH4 0x2F2FF15D EQ PUSH2 0x194 JUMPI JUMPDEST PUSH1 0x0 DUP1 REVERT JUMPDEST PUSH2 0x139 PUSH2 0x134 CALLDATASIZE PUSH1 0x4 PUSH2 0x8B9 JUMP JUMPDEST PUSH2 0x336 JUMP JUMPDEST PUSH1 0x40 MLOAD SWAP1 ISZERO ISZERO DUP2 MSTORE PUSH1 0x20 ADD JUMPDEST PUSH1 0x40 MLOAD DUP1 SWAP2 SUB SWAP1 RETURN JUMPDEST PUSH2 0x161 PUSH2 0x15C CALLDATASIZE PUSH1 0x4 PUSH2 0x8FF JUMP JUMPDEST PUSH2 0x36D JUMP JUMPDEST STOP JUMPDEST PUSH2 0x186 PUSH2 0x171 CALLDATASIZE PUSH1 0x4 PUSH2 0x938 JUMP JUMPDEST PUSH1 0x0 SWAP1 DUP2 MSTORE PUSH1 0x20 DUP2 SWAP1 MSTORE PUSH1 0x40 SWAP1 KECCAK256 PUSH1 0x1 ADD SLOAD SWAP1 JUMP JUMPDEST PUSH1 0x40 MLOAD SWAP1 DUP2 MSTORE PUSH1 0x20 ADD PUSH2 0x145 JUMP JUMPDEST PUSH2 0x161 PUSH2 0x1A2 CALLDATASIZE PUSH1 0x4 PUSH2 0x951 JUMP JUMPDEST PUSH2 0x407 JUMP JUMPDEST PUSH2 0x161 PUSH2 0x1B5 CALLDATASIZE PUSH1 0x4 PUSH2 0x951 JUMP JUMPDEST PUSH2 0x432 JUMP JUMPDEST PUSH2 0x186 PUSH1 0x2 SLOAD DUP2 JUMP JUMPDEST PUSH2 0x1D6 PUSH2 0x1D1 CALLDATASIZE PUSH1 0x4 PUSH2 0x976 JUMP JUMPDEST PUSH2 0x46A JUMP JUMPDEST PUSH1 0x40 DUP1 MLOAD SWAP3 DUP4 MSTORE PUSH1 0x20 DUP4 ADD SWAP2 SWAP1 SWAP2 MSTORE ADD PUSH2 0x145 JUMP JUMPDEST PUSH2 0x186 PUSH32 0x73079B33C7C96C67A1FB6C710D1995195C9F4B3E62A619F237584F1BB28D0AA9 DUP2 JUMP JUMPDEST PUSH1 0x4 SLOAD PUSH2 0x225 SWAP1 PUSH1 0x1 PUSH1 0x1 PUSH1 0xA0 SHL SUB AND DUP2 JUMP JUMPDEST PUSH1 0x40 MLOAD PUSH1 0x1 PUSH1 0x1 PUSH1 0xA0 SHL SUB SWAP1 SWAP2 AND DUP2 MSTORE PUSH1 0x20 ADD PUSH2 0x145 JUMP JUMPDEST PUSH2 0x186 PUSH1 0x1 SLOAD DUP2 JUMP JUMPDEST PUSH2 0x186 PUSH32 0x61671C5D9C2848C4E78F3CFD7EFC04C5D793E746EFAB769B3416AA5BBFB40CC DUP2 JUMP JUMPDEST PUSH2 0x139 PUSH2 0x27B CALLDATASIZE PUSH1 0x4 PUSH2 0x951 JUMP JUMPDEST PUSH2 0x682 JUMP JUMPDEST PUSH2 0x186 PUSH1 0x0 DUP2 JUMP JUMPDEST PUSH2 0x186 PUSH32 0x372D55E37651A7C6E1940A3FB8628E4B6122A3C1A8B2B70AEE13E07228604567 DUP2 JUMP JUMPDEST PUSH2 0x161 PUSH2 0x2BD CALLDATASIZE PUSH1 0x4 PUSH2 0x993 JUMP JUMPDEST PUSH2 0x6AB JUMP JUMPDEST PUSH1 0x3 SLOAD PUSH2 0x225 SWAP1 PUSH1 0x1 PUSH1 0x1 PUSH1 0xA0 SHL SUB AND DUP2 JUMP JUMPDEST PUSH2 0x186 PUSH32 0x2172861495E7B85EDAC73E3CD5FBB42DD675BAADF627720E687BCFDACA025096 DUP2 JUMP JUMPDEST PUSH2 0x161 PUSH2 0x30A CALLDATASIZE PUSH1 0x4 PUSH2 0x951 JUMP JUMPDEST PUSH2 0x74D JUMP JUMPDEST PUSH2 0x186 PUSH32 0x66098348AC86AA2C1EFEF4EA51EB3A0DD075BFEEF7E5784EC740DC5B4EE760FD DUP2 JUMP JUMPDEST PUSH1 0x0 PUSH1 0x1 PUSH1 0x1 PUSH1 0xE0 SHL SUB NOT DUP3 AND PUSH4 0x7965DB0B PUSH1 0xE0 SHL EQ DUP1 PUSH2 0x367 JUMPI POP PUSH4 0x1FFC9A7 PUSH1 0xE0 SHL PUSH1 0x1 PUSH1 0x1 PUSH1 0xE0 SHL SUB NOT DUP4 AND EQ JUMPDEST SWAP3 SWAP2 POP POP JUMP JUMPDEST PUSH32 0x66098348AC86AA2C1EFEF4EA51EB3A0DD075BFEEF7E5784EC740DC5B4EE760FD PUSH2 0x397 DUP2 PUSH2 0x772 JUMP JUMPDEST PUSH1 0x3 DUP1 SLOAD PUSH1 0x1 PUSH1 0x1 PUSH1 0xA0 SHL SUB DUP6 DUP2 AND PUSH1 0x1 PUSH1 0x1 PUSH1 0xA0 SHL SUB NOT SWAP3 DUP4 AND DUP2 OR SWAP1 SWAP4 SSTORE PUSH1 0x4 DUP1 SLOAD SWAP2 DUP7 AND SWAP2 SWAP1 SWAP3 AND DUP2 OR SWAP1 SWAP2 SSTORE PUSH1 0x40 DUP1 MLOAD SWAP3 DUP4 MSTORE PUSH1 0x20 DUP4 ADD SWAP2 SWAP1 SWAP2 MSTORE PUSH32 0x7D27B7E87E066A099A35C09AA9EBCD5343AF795F629384898A1C6E5D0F755DB2 SWAP2 ADD JUMPDEST PUSH1 0x40 MLOAD DUP1 SWAP2 SUB SWAP1 LOG1 POP POP POP JUMP JUMPDEST PUSH1 0x0 DUP3 DUP2 MSTORE PUSH1 0x20 DUP2 SWAP1 MSTORE PUSH1 0x40 SWAP1 KECCAK256 PUSH1 0x1 ADD SLOAD PUSH2 0x422 DUP2 PUSH2 0x772 JUMP JUMPDEST PUSH2 0x42C DUP4 DUP4 PUSH2 0x77F JUMP JUMPDEST POP POP POP POP JUMP JUMPDEST PUSH1 0x1 PUSH1 0x1 PUSH1 0xA0 SHL SUB DUP2 AND CALLER EQ PUSH2 0x45B JUMPI PUSH1 0x40 MLOAD PUSH4 0x334BD919 PUSH1 0xE1 SHL DUP2 MSTORE PUSH1 0x4 ADD PUSH1 0x40 MLOAD DUP1 SWAP2 SUB SWAP1 REVERT JUMPDEST PUSH2 0x465 DUP3 DUP3 PUSH2 0x811 JUMP JUMPDEST POP POP POP JUMP JUMPDEST PUSH1 0x3 SLOAD PUSH1 0x40 MLOAD PUSH4 0x41976E09 PUSH1 0xE0 SHL DUP2 MSTORE PUSH1 0x1 PUSH1 0x1 PUSH1 0xA0 SHL SUB DUP4 DUP2 AND PUSH1 0x4 DUP4 ADD MSTORE PUSH1 0x0 SWAP3 DUP4 SWAP3 DUP4 SWAP3 DUP4 SWAP3 AND SWAP1 PUSH4 0x41976E09 SWAP1 PUSH1 0x24 ADD PUSH1 0x40 DUP1 MLOAD DUP1 DUP4 SUB DUP2 DUP7 GAS STATICCALL ISZERO DUP1 ISZERO PUSH2 0x4BA JUMPI RETURNDATASIZE PUSH1 0x0 DUP1 RETURNDATACOPY RETURNDATASIZE PUSH1 0x0 REVERT JUMPDEST POP POP POP POP PUSH1 0x40 MLOAD RETURNDATASIZE PUSH1 0x1F NOT PUSH1 0x1F DUP3 ADD AND DUP3 ADD DUP1 PUSH1 0x40 MSTORE POP DUP2 ADD SWAP1 PUSH2 0x4DE SWAP2 SWAP1 PUSH2 0x9B5 JUMP JUMPDEST SWAP2 POP SWAP2 POP PUSH1 0x0 PUSH1 0x1 SLOAD DUP3 TIMESTAMP PUSH2 0x4F3 SWAP2 SWAP1 PUSH2 0x9EF JUMP JUMPDEST GT DUP1 ISZERO SWAP2 POP PUSH2 0x507 JUMPI POP SWAP1 SWAP5 SWAP1 SWAP4 POP SWAP2 POP POP JUMP JUMPDEST PUSH1 0x4 DUP1 SLOAD PUSH1 0x40 MLOAD PUSH4 0x41976E09 PUSH1 0xE0 SHL DUP2 MSTORE PUSH1 0x1 PUSH1 0x1 PUSH1 0xA0 SHL SUB DUP10 DUP2 AND SWAP4 DUP3 ADD SWAP4 SWAP1 SWAP4 MSTORE PUSH1 0x0 SWAP3 DUP4 SWAP3 AND SWAP1 PUSH4 0x41976E09 SWAP1 PUSH1 0x24 ADD PUSH1 0x40 DUP1 MLOAD DUP1 DUP4 SUB DUP2 DUP7 GAS STATICCALL ISZERO DUP1 ISZERO PUSH2 0x556 JUMPI RETURNDATASIZE PUSH1 0x0 DUP1 RETURNDATACOPY RETURNDATASIZE PUSH1 0x0 REVERT JUMPDEST POP POP POP POP PUSH1 0x40 MLOAD RETURNDATASIZE PUSH1 0x1F NOT PUSH1 0x1F DUP3 ADD AND DUP3 ADD DUP1 PUSH1 0x40 MSTORE POP DUP2 ADD SWAP1 PUSH2 0x57A SWAP2 SWAP1 PUSH2 0x9B5 JUMP JUMPDEST SWAP2 POP SWAP2 POP PUSH1 0x0 PUSH1 0x1 SLOAD DUP3 TIMESTAMP PUSH2 0x58F SWAP2 SWAP1 PUSH2 0x9EF JUMP JUMPDEST GT ISZERO SWAP1 POP DUP1 PUSH2 0x5CD JUMPI PUSH1 0x40 MLOAD PUSH3 0x461BCD PUSH1 0xE5 SHL DUP2 MSTORE PUSH1 0x20 PUSH1 0x4 DUP3 ADD MSTORE PUSH1 0x5 PUSH1 0x24 DUP3 ADD MSTORE PUSH5 0x7374616C65 PUSH1 0xD8 SHL PUSH1 0x44 DUP3 ADD MSTORE PUSH1 0x64 ADD JUMPDEST PUSH1 0x40 MLOAD DUP1 SWAP2 SUB SWAP1 REVERT JUMPDEST PUSH1 0x0 DUP7 GT DUP1 ISZERO PUSH2 0x5DD JUMPI POP PUSH1 0x0 DUP4 GT JUMPDEST ISZERO PUSH2 0x674 JUMPI PUSH1 0x0 DUP4 DUP8 GT PUSH2 0x611 JUMPI DUP4 PUSH2 0x5F6 DUP9 DUP3 PUSH2 0x9EF JUMP JUMPDEST PUSH2 0x602 SWAP1 PUSH2 0x2710 PUSH2 0xA02 JUMP JUMPDEST PUSH2 0x60C SWAP2 SWAP1 PUSH2 0xA19 JUMP JUMPDEST PUSH2 0x632 JUMP JUMPDEST DUP7 PUSH2 0x61C DUP6 DUP3 PUSH2 0x9EF JUMP JUMPDEST PUSH2 0x628 SWAP1 PUSH2 0x2710 PUSH2 0xA02 JUMP JUMPDEST PUSH2 0x632 SWAP2 SWAP1 PUSH2 0xA19 JUMP JUMPDEST SWAP1 POP PUSH1 0x2 SLOAD DUP2 GT ISZERO PUSH2 0x672 JUMPI PUSH1 0x40 MLOAD PUSH3 0x461BCD PUSH1 0xE5 SHL DUP2 MSTORE PUSH1 0x20 PUSH1 0x4 DUP3 ADD MSTORE PUSH1 0x9 PUSH1 0x24 DUP3 ADD MSTORE PUSH9 0x3232BB34B0BA34B7B7 PUSH1 0xB9 SHL PUSH1 0x44 DUP3 ADD MSTORE PUSH1 0x64 ADD PUSH2 0x5C4 JUMP JUMPDEST POP JUMPDEST POP SWAP1 SWAP8 SWAP1 SWAP7 POP SWAP5 POP POP POP POP POP JUMP JUMPDEST PUSH1 0x0 SWAP2 DUP3 MSTORE PUSH1 0x20 DUP3 DUP2 MSTORE PUSH1 0x40 DUP1 DUP5 KECCAK256 PUSH1 0x1 PUSH1 0x1 PUSH1 0xA0 SHL SUB SWAP4 SWAP1 SWAP4 AND DUP5 MSTORE SWAP2 SWAP1 MSTORE SWAP1 KECCAK256 SLOAD PUSH1 0xFF AND SWAP1 JUMP JUMPDEST PUSH32 0x66098348AC86AA2C1EFEF4EA51EB3A0DD075BFEEF7E5784EC740DC5B4EE760FD PUSH2 0x6D5 DUP2 PUSH2 0x772 JUMP JUMPDEST PUSH2 0x2710 DUP3 GT ISZERO PUSH2 0x70D JUMPI PUSH1 0x40 MLOAD PUSH3 0x461BCD PUSH1 0xE5 SHL DUP2 MSTORE PUSH1 0x20 PUSH1 0x4 DUP3 ADD MSTORE PUSH1 0x3 PUSH1 0x24 DUP3 ADD MSTORE PUSH3 0x189859 PUSH1 0xEA SHL PUSH1 0x44 DUP3 ADD MSTORE PUSH1 0x64 ADD PUSH2 0x5C4 JUMP JUMPDEST PUSH1 0x1 DUP4 SWAP1 SSTORE PUSH1 0x2 DUP3 SWAP1 SSTORE PUSH1 0x40 DUP1 MLOAD DUP5 DUP2 MSTORE PUSH1 0x20 DUP2 ADD DUP5 SWAP1 MSTORE PUSH32 0xC2BCF5EAC2E3B6D5FC30D95C85F56D5A310F3F3934E1C5D876C43F7BBD21B71E SWAP2 ADD PUSH2 0x3FA JUMP JUMPDEST PUSH1 0x0 DUP3 DUP2 MSTORE PUSH1 0x20 DUP2 SWAP1 MSTORE PUSH1 0x40 SWAP1 KECCAK256 PUSH1 0x1 ADD SLOAD PUSH2 0x768 DUP2 PUSH2 0x772 JUMP JUMPDEST PUSH2 0x42C DUP4 DUP4 PUSH2 0x811 JUMP JUMPDEST PUSH2 0x77C DUP2 CALLER PUSH2 0x87C JUMP JUMPDEST POP JUMP JUMPDEST PUSH1 0x0 PUSH2 0x78B DUP4 DUP4 PUSH2 0x682 JUMP JUMPDEST PUSH2 0x809 JUMPI PUSH1 0x0 DUP4 DUP2 MSTORE PUSH1 0x20 DUP2 DUP2 MSTORE PUSH1 0x40 DUP1 DUP4 KECCAK256 PUSH1 0x1 PUSH1 0x1 PUSH1 0xA0 SHL SUB DUP7 AND DUP5 MSTORE SWAP1 SWAP2 MSTORE SWAP1 KECCAK256 DUP1 SLOAD PUSH1 0xFF NOT AND PUSH1 0x1 OR SWAP1 SSTORE PUSH2 0x7C1 CALLER SWAP1 JUMP JUMPDEST PUSH1 0x1 PUSH1 0x1 PUSH1 0xA0 SHL SUB AND DUP3 PUSH1 0x1 PUSH1 0x1 PUSH1 0xA0 SHL SUB AND DUP5 PUSH32 0x2F8788117E7EFF1D82E926EC794901D17C78024A50270940304540A733656F0D PUSH1 0x40 MLOAD PUSH1 0x40 MLOAD DUP1 SWAP2 SUB SWAP1 LOG4 POP PUSH1 0x1 PUSH2 0x367 JUMP JUMPDEST POP PUSH1 0x0 PUSH2 0x367 JUMP JUMPDEST PUSH1 0x0 PUSH2 0x81D DUP4 DUP4 PUSH2 0x682 JUMP JUMPDEST ISZERO PUSH2 0x809 JUMPI PUSH1 0x0 DUP4 DUP2 MSTORE PUSH1 0x20 DUP2 DUP2 MSTORE PUSH1 0x40 DUP1 DUP4 KECCAK256 PUSH1 0x1 PUSH1 0x1 PUSH1 0xA0 SHL SUB DUP7 AND DUP1 DUP6 MSTORE SWAP3 MSTORE DUP1 DUP4 KECCAK256 DUP1 SLOAD PUSH1 0xFF NOT AND SWAP1 SSTORE MLOAD CALLER SWAP3 DUP7 SWAP2 PUSH32 0xF6391F5C32D9C69D2A47EA670B442974B53935D1EDC7FD64EB21E047A839171B SWAP2 SWAP1 LOG4 POP PUSH1 0x1 PUSH2 0x367 JUMP JUMPDEST PUSH2 0x886 DUP3 DUP3 PUSH2 0x682 JUMP JUMPDEST PUSH2 0x8B5 JUMPI PUSH1 0x40 MLOAD PUSH4 0xE2517D3F PUSH1 0xE0 SHL DUP2 MSTORE PUSH1 0x1 PUSH1 0x1 PUSH1 0xA0 SHL SUB DUP3 AND PUSH1 0x4 DUP3 ADD MSTORE PUSH1 0x24 DUP2 ADD DUP4 SWAP1 MSTORE PUSH1 0x44 ADD PUSH2 0x5C4 JUMP JUMPDEST POP POP JUMP JUMPDEST PUSH1 0x0 PUSH1 0x20 DUP3 DUP5 SUB SLT ISZERO PUSH2 0x8CB JUMPI PUSH1 0x0 DUP1 REVERT JUMPDEST DUP2 CALLDATALOAD PUSH1 0x1 PUSH1 0x1 PUSH1 0xE0 SHL SUB NOT DUP2 AND DUP2 EQ PUSH2 0x8E3 JUMPI PUSH1 0x0 DUP1 REVERT JUMPDEST SWAP4 SWAP3 POP POP POP JUMP JUMPDEST PUSH1 0x1 PUSH1 0x1 PUSH1 0xA0 SHL SUB DUP2 AND DUP2 EQ PUSH2 0x77C JUMPI PUSH1 0x0 DUP1 REVERT JUMPDEST PUSH1 0x0 DUP1 PUSH1 0x40 DUP4 DUP6 SUB SLT ISZERO PUSH2 0x912 JUMPI PUSH1 0x0 DUP1 REVERT JUMPDEST DUP3 CALLDATALOAD PUSH2 0x91D DUP2 PUSH2 0x8EA JUMP JUMPDEST SWAP2 POP PUSH1 0x20 DUP4 ADD CALLDATALOAD PUSH2 0x92D DUP2 PUSH2 0x8EA JUMP JUMPDEST DUP1 SWAP2 POP POP SWAP3 POP SWAP3 SWAP1 POP JUMP JUMPDEST PUSH1 0x0 PUSH1 0x20 DUP3 DUP5 SUB SLT ISZERO PUSH2 0x94A JUMPI PUSH1 0x0 DUP1 REVERT JUMPDEST POP CALLDATALOAD SWAP2 SWAP1 POP JUMP JUMPDEST PUSH1 0x0 DUP1 PUSH1 0x40 DUP4 DUP6 SUB SLT ISZERO PUSH2 0x964 JUMPI PUSH1 0x0 DUP1 REVERT JUMPDEST DUP3 CALLDATALOAD SWAP2 POP PUSH1 0x20 DUP4 ADD CALLDATALOAD PUSH2 0x92D DUP2 PUSH2 0x8EA JUMP JUMPDEST PUSH1 0x0 PUSH1 0x20 DUP3 DUP5 SUB SLT ISZERO PUSH2 0x988 JUMPI PUSH1 0x0 DUP1 REVERT JUMPDEST DUP2 CALLDATALOAD PUSH2 0x8E3 DUP2 PUSH2 0x8EA JUMP JUMPDEST PUSH1 0x0 DUP1 PUSH1 0x40 DUP4 DUP6 SUB SLT ISZERO PUSH2 0x9A6 JUMPI PUSH1 0x0 DUP1 REVERT JUMPDEST POP POP DUP1 CALLDATALOAD SWAP3 PUSH1 0x20 SWAP1 SWAP2 ADD CALLDATALOAD SWAP2 POP JUMP JUMPDEST PUSH1 0x0 DUP1 PUSH1 0x40 DUP4 DUP6 SUB SLT ISZERO PUSH2 0x9C8 JUMPI PUSH1 0x0 DUP1 REVERT JUMPDEST POP POP DUP1 MLOAD PUSH1 0x20 SWAP1 SWAP2 ADD MLOAD SWAP1 SWAP3 SWAP1 SWAP2 POP JUMP JUMPDEST PUSH4 0x4E487B71 PUSH1 0xE0 SHL PUSH1 0x0 MSTORE PUSH1 0x11 PUSH1 0x4 MSTORE PUSH1 0x24 PUSH1 0x0 REVERT JUMPDEST DUP2 DUP2 SUB DUP2 DUP2 GT ISZERO PUSH2 0x367 JUMPI PUSH2 0x367 PUSH2 0x9D9 JUMP JUMPDEST DUP1 DUP3 MUL DUP2 ISZERO DUP3 DUP3 DIV DUP5 EQ OR PUSH2 0x367 JUMPI PUSH2 0x367 PUSH2 0x9D9 JUMP JUMPDEST PUSH1 0x0 DUP3 PUSH2 0xA36 JUMPI PUSH4 0x4E487B71 PUSH1 0xE0 SHL PUSH1 0x0 MSTORE PUSH1 0x12 PUSH1 0x4 MSTORE PUSH1 0x24 PUSH1 0x0 REVERT JUMPDEST POP DIV SWAP1 JUMP INVALID LOG2 PUSH5 0x6970667358 0x22 SLT KECCAK256 0xD9 0xD7 0xCC 0xCE SWAP8 SWAP3 PUSH6 0xD95C7F65A4A8 SAR ADDRESS SWAP14 0x4E SWAP1 0x4D SELFDESTRUCT DUP16 0xC2 PUSH30 0x91A0417D934F5F57EF64736F6C634300081800332172861495E7B85EDAC7 RETURNDATACOPY EXTCODECOPY 0xD5 0xFB 0xB4 0x2D 0xD6 PUSH22 0xBAADF627720E687BCFDACA0250960000000000000000 "},"methodIdentifiers":{"DEFAULT_ADMIN_ROLE()":"a217fddf","ROLE_ADMIN()":"d391014b","ROLE_KEEPER()":"895ec75f","ROLE_ORACLE()":"f0173703","ROLE_PAUSER()":"b047eb02","ROLE_RISK()":"42be00b8","fallbackOracle()":"629838e5","getPrice(address)":"41976e09","getRoleAdmin(bytes32)":"248a9ca3","grantRole(bytes32,address)":"2f2ff15d","hasRole(bytes32,address)":"91d14854","maxDeviationBps()":"3ee7a701","maxStaleness()":"87cf4696","primary()":"c6dbdf61","renounceRole(bytes32,address)":"36568abe","revokeRole(bytes32,address)":"d547741f","setAdapters(address,address)":"02f05996","setLimits(uint256,uint256)":"c4590d3f","supportsInterface(bytes4)":"01ffc9a7"}}}}}