{"contracts/oracle/adapters/RedStoneAdapter.sol":{"RedStoneAdapter":{"abi":[{"inputs":[{"internalType":"address","name":"admin","type":"address"}],"stateMutability":"nonpayable","type":"constructor"},{"inputs":[],"name":"AccessControlBadConfirmation","type":"error"},{"inputs":[{"internalType":"address","name":"account","type":"address"},{"internalType":"bytes32","name":"neededRole","type":"bytes32"}],"name":"AccessControlUnauthorizedAccount","type":"error"},{"inputs":[],"name":"ExcessiveDeviation","type":"error"},{"inputs":[],"name":"StalePrice","type":"error"},{"anonymous":false,"inputs":[{"indexed":true,"internalType":"bytes32","name":"role","type":"bytes32"},{"indexed":true,"internalType":"bytes32","name":"previousAdminRole","type":"bytes32"},{"indexed":true,"internalType":"bytes32","name":"newAdminRole","type":"bytes32"}],"name":"RoleAdminChanged","type":"event"},{"anonymous":false,"inputs":[{"indexed":true,"internalType":"bytes32","name":"role","type":"bytes32"},{"indexed":true,"internalType":"address","name":"account","type":"address"},{"indexed":true,"internalType":"address","name":"sender","type":"address"}],"name":"RoleGranted","type":"event"},{"anonymous":false,"inputs":[{"indexed":true,"internalType":"bytes32","name":"role","type":"bytes32"},{"indexed":true,"internalType":"address","name":"account","type":"address"},{"indexed":true,"internalType":"address","name":"sender","type":"address"}],"name":"RoleRevoked","type":"event"},{"inputs":[],"name":"DEFAULT_ADMIN_ROLE","outputs":[{"internalType":"bytes32","name":"","type":"bytes32"}],"stateMutability":"view","type":"function"},{"inputs":[],"name":"ROLE_ADMIN","outputs":[{"internalType":"bytes32","name":"","type":"bytes32"}],"stateMutability":"view","type":"function"},{"inputs":[],"name":"ROLE_KEEPER","outputs":[{"internalType":"bytes32","name":"","type":"bytes32"}],"stateMutability":"view","type":"function"},{"inputs":[],"name":"ROLE_ORACLE","outputs":[{"internalType":"bytes32","name":"","type":"bytes32"}],"stateMutability":"view","type":"function"},{"inputs":[],"name":"ROLE_PAUSER","outputs":[{"internalType":"bytes32","name":"","type":"bytes32"}],"stateMutability":"view","type":"function"},{"inputs":[],"name":"ROLE_RISK","outputs":[{"internalType":"bytes32","name":"","type":"bytes32"}],"stateMutability":"view","type":"function"},{"inputs":[{"internalType":"address","name":"token","type":"address"}],"name":"getPrice","outputs":[{"internalType":"uint256","name":"price","type":"uint256"},{"internalType":"uint256","name":"updatedAt","type":"uint256"}],"stateMutability":"view","type":"function"},{"inputs":[{"internalType":"bytes32","name":"role","type":"bytes32"}],"name":"getRoleAdmin","outputs":[{"internalType":"bytes32","name":"","type":"bytes32"}],"stateMutability":"view","type":"function"},{"inputs":[{"internalType":"bytes32","name":"role","type":"bytes32"},{"internalType":"address","name":"account","type":"address"}],"name":"grantRole","outputs":[],"stateMutability":"nonpayable","type":"function"},{"inputs":[{"internalType":"bytes32","name":"role","type":"bytes32"},{"internalType":"address","name":"account","type":"address"}],"name":"hasRole","outputs":[{"internalType":"bool","name":"","type":"bool"}],"stateMutability":"view","type":"function"},{"inputs":[{"internalType":"address","name":"","type":"address"}],"name":"prices","outputs":[{"internalType":"uint256","name":"price","type":"uint256"},{"internalType":"uint256","name":"updatedAt","type":"uint256"}],"stateMutability":"view","type":"function"},{"inputs":[{"internalType":"address","name":"token","type":"address"},{"internalType":"uint256","name":"price","type":"uint256"},{"internalType":"uint256","name":"updatedAt","type":"uint256"}],"name":"pushPrice","outputs":[],"stateMutability":"nonpayable","type":"function"},{"inputs":[{"internalType":"bytes32","name":"role","type":"bytes32"},{"internalType":"address","name":"callerConfirmation","type":"address"}],"name":"renounceRole","outputs":[],"stateMutability":"nonpayable","type":"function"},{"inputs":[{"internalType":"bytes32","name":"role","type":"bytes32"},{"internalType":"address","name":"account","type":"address"}],"name":"revokeRole","outputs":[],"stateMutability":"nonpayable","type":"function"},{"inputs":[{"internalType":"bytes4","name":"interfaceId","type":"bytes4"}],"name":"supportsInterface","outputs":[{"internalType":"bool","name":"","type":"bool"}],"stateMutability":"view","type":"function"}],"evm":{"bytecode":{"linkReferences":{},"object":"608060405234801561001057600080fd5b5060405161092b38038061092b83398101604081905261002f91610227565b8061004860008051602061090b83398151915282610130565b506100817f73079b33c7c96c67a1fb6c710d1995195c9f4b3e62a619f237584f1bb28d0aa960008051602061090b8339815191526101dc565b6100b97f66098348ac86aa2c1efef4ea51eb3a0dd075bfeef7e5784ec740dc5b4ee760fd60008051602061090b8339815191526101dc565b6100f17f061671c5d9c2848c4e78f3cfd7efc04c5d793e746efab769b3416aa5bbfb40cc60008051602061090b8339815191526101dc565b6101297f372d55e37651a7c6e1940a3fb8628e4b6122a3c1a8b2b70aee13e0722860456760008051602061090b8339815191526101dc565b5050610257565b6000828152602081815260408083206001600160a01b038516845290915281205460ff166101d2576000838152602081815260408083206001600160a01b03861684529091529020805460ff1916600117905561018a3390565b6001600160a01b0316826001600160a01b0316847f2f8788117e7eff1d82e926ec794901d17c78024a50270940304540a733656f0d60405160405180910390a45060016101d6565b5060005b92915050565b600082815260208190526040808220600101805490849055905190918391839186917fbd79b86ffe0ab8e8776151514217cd7cacd52c909f66475c3af44e129f0b00ff9190a4505050565b60006020828403121561023957600080fd5b81516001600160a01b038116811461025057600080fd5b9392505050565b6106a5806102666000396000f3fe608060405234801561001057600080fd5b50600436106100f55760003560e01c806391d1485411610097578063cfed246b11610066578063cfed246b14610274578063d391014b1461029b578063d547741f146102c2578063f0173703146102d557600080fd5b806391d148541461021f578063a217fddf14610232578063b047eb021461023a578063c705bfba1461026157600080fd5b806336568abe116100d357806336568abe1461016857806341976e091461017b57806342be00b8146101d1578063895ec75f146101f857600080fd5b806301ffc9a7146100fa578063248a9ca3146101225780632f2ff15d14610153575b600080fd5b61010d61010836600461058f565b6102fc565b60405190151581526020015b60405180910390f35b6101456101303660046105c0565b60009081526020819052604090206001015490565b604051908152602001610119565b6101666101613660046105f5565b610333565b005b6101666101763660046105f5565b61035e565b6101bc610189366004610621565b6001600160a01b031660009081526001602081815260409283902083518085019094528054808552920154920182905291565b60408051928352602083019190915201610119565b6101457f73079b33c7c96c67a1fb6c710d1995195c9f4b3e62a619f237584f1bb28d0aa981565b6101457f061671c5d9c2848c4e78f3cfd7efc04c5d793e746efab769b3416aa5bbfb40cc81565b61010d61022d3660046105f5565b610396565b610145600081565b6101457f372d55e37651a7c6e1940a3fb8628e4b6122a3c1a8b2b70aee13e0722860456781565b61016661026f36600461063c565b6103bf565b6101bc610282366004610621565b6001602081905260009182526040909120805491015482565b6101457f2172861495e7b85edac73e3cd5fbb42dd675baadf627720e687bcfdaca02509681565b6101666102d03660046105f5565b61041f565b6101457f66098348ac86aa2c1efef4ea51eb3a0dd075bfeef7e5784ec740dc5b4ee760fd81565b60006001600160e01b03198216637965db0b60e01b148061032d57506301ffc9a760e01b6001600160e01b03198316145b92915050565b60008281526020819052604090206001015461034e81610444565b6103588383610451565b50505050565b6001600160a01b03811633146103875760405163334bd91960e11b815260040160405180910390fd5b61039182826104e3565b505050565b6000918252602082815260408084206001600160a01b0393909316845291905290205460ff1690565b7f66098348ac86aa2c1efef4ea51eb3a0dd075bfeef7e5784ec740dc5b4ee760fd6103e981610444565b5060408051808201825292835260208084019283526001600160a01b039094166000908152600194859052209151825551910155565b60008281526020819052604090206001015461043a81610444565b61035883836104e3565b61044e813361054e565b50565b600061045d8383610396565b6104db576000838152602081815260408083206001600160a01b03861684529091529020805460ff191660011790556104933390565b6001600160a01b0316826001600160a01b0316847f2f8788117e7eff1d82e926ec794901d17c78024a50270940304540a733656f0d60405160405180910390a450600161032d565b50600061032d565b60006104ef8383610396565b156104db576000838152602081815260408083206001600160a01b0386168085529252808320805460ff1916905551339286917ff6391f5c32d9c69d2a47ea670b442974b53935d1edc7fd64eb21e047a839171b9190a450600161032d565b6105588282610396565b61058b5760405163e2517d3f60e01b81526001600160a01b03821660048201526024810183905260440160405180910390fd5b5050565b6000602082840312156105a157600080fd5b81356001600160e01b0319811681146105b957600080fd5b9392505050565b6000602082840312156105d257600080fd5b5035919050565b80356001600160a01b03811681146105f057600080fd5b919050565b6000806040838503121561060857600080fd5b82359150610618602084016105d9565b90509250929050565b60006020828403121561063357600080fd5b6105b9826105d9565b60008060006060848603121561065157600080fd5b61065a846105d9565b9560208501359550604090940135939250505056fea2646970667358221220e1a63ee12ea08ce1924e9313d1e8510684be9f23aa4f024d1d07a489e0ae626964736f6c634300081800332172861495e7b85edac73e3cd5fbb42dd675baadf627720e687bcfdaca025096","opcodes":"PUSH1 0x80 PUSH1 0x40 MSTORE CALLVALUE DUP1 ISZERO PUSH2 0x10 JUMPI PUSH1 0x0 DUP1 REVERT JUMPDEST POP PUSH1 0x40 MLOAD PUSH2 0x92B CODESIZE SUB DUP1 PUSH2 0x92B DUP4 CODECOPY DUP2 ADD PUSH1 0x40 DUP2 SWAP1 MSTORE PUSH2 0x2F SWAP2 PUSH2 0x227 JUMP JUMPDEST DUP1 PUSH2 0x48 PUSH1 0x0 DUP1 MLOAD PUSH1 0x20 PUSH2 0x90B DUP4 CODECOPY DUP2 MLOAD SWAP2 MSTORE DUP3 PUSH2 0x130 JUMP JUMPDEST POP PUSH2 0x81 PUSH32 0x73079B33C7C96C67A1FB6C710D1995195C9F4B3E62A619F237584F1BB28D0AA9 PUSH1 0x0 DUP1 MLOAD PUSH1 0x20 PUSH2 0x90B DUP4 CODECOPY DUP2 MLOAD SWAP2 MSTORE PUSH2 0x1DC JUMP JUMPDEST PUSH2 0xB9 PUSH32 0x66098348AC86AA2C1EFEF4EA51EB3A0DD075BFEEF7E5784EC740DC5B4EE760FD PUSH1 0x0 DUP1 MLOAD PUSH1 0x20 PUSH2 0x90B DUP4 CODECOPY DUP2 MLOAD SWAP2 MSTORE PUSH2 0x1DC JUMP JUMPDEST PUSH2 0xF1 PUSH32 0x61671C5D9C2848C4E78F3CFD7EFC04C5D793E746EFAB769B3416AA5BBFB40CC PUSH1 0x0 DUP1 MLOAD PUSH1 0x20 PUSH2 0x90B DUP4 CODECOPY DUP2 MLOAD SWAP2 MSTORE PUSH2 0x1DC JUMP JUMPDEST PUSH2 0x129 PUSH32 0x372D55E37651A7C6E1940A3FB8628E4B6122A3C1A8B2B70AEE13E07228604567 PUSH1 0x0 DUP1 MLOAD PUSH1 0x20 PUSH2 0x90B DUP4 CODECOPY DUP2 MLOAD SWAP2 MSTORE PUSH2 0x1DC JUMP JUMPDEST POP POP PUSH2 0x257 JUMP JUMPDEST PUSH1 0x0 DUP3 DUP2 MSTORE PUSH1 0x20 DUP2 DUP2 MSTORE PUSH1 0x40 DUP1 DUP4 KECCAK256 PUSH1 0x1 PUSH1 0x1 PUSH1 0xA0 SHL SUB DUP6 AND DUP5 MSTORE SWAP1 SWAP2 MSTORE DUP2 KECCAK256 SLOAD PUSH1 0xFF AND PUSH2 0x1D2 JUMPI PUSH1 0x0 DUP4 DUP2 MSTORE PUSH1 0x20 DUP2 DUP2 MSTORE PUSH1 0x40 DUP1 DUP4 KECCAK256 PUSH1 0x1 PUSH1 0x1 PUSH1 0xA0 SHL SUB DUP7 AND DUP5 MSTORE SWAP1 SWAP2 MSTORE SWAP1 KECCAK256 DUP1 SLOAD PUSH1 0xFF NOT AND PUSH1 0x1 OR SWAP1 SSTORE PUSH2 0x18A CALLER SWAP1 JUMP JUMPDEST PUSH1 0x1 PUSH1 0x1 PUSH1 0xA0 SHL SUB AND DUP3 PUSH1 0x1 PUSH1 0x1 PUSH1 0xA0 SHL SUB AND DUP5 PUSH32 0x2F8788117E7EFF1D82E926EC794901D17C78024A50270940304540A733656F0D PUSH1 0x40 MLOAD PUSH1 0x40 MLOAD DUP1 SWAP2 SUB SWAP1 LOG4 POP PUSH1 0x1 PUSH2 0x1D6 JUMP JUMPDEST POP PUSH1 0x0 JUMPDEST SWAP3 SWAP2 POP POP JUMP JUMPDEST PUSH1 0x0 DUP3 DUP2 MSTORE PUSH1 0x20 DUP2 SWAP1 MSTORE PUSH1 0x40 DUP1 DUP3 KECCAK256 PUSH1 0x1 ADD DUP1 SLOAD SWAP1 DUP5 SWAP1 SSTORE SWAP1 MLOAD SWAP1 SWAP2 DUP4 SWAP2 DUP4 SWAP2 DUP7 SWAP2 PUSH32 0xBD79B86FFE0AB8E8776151514217CD7CACD52C909F66475C3AF44E129F0B00FF SWAP2 SWAP1 LOG4 POP POP POP JUMP JUMPDEST PUSH1 0x0 PUSH1 0x20 DUP3 DUP5 SUB SLT ISZERO PUSH2 0x239 JUMPI PUSH1 0x0 DUP1 REVERT JUMPDEST DUP2 MLOAD PUSH1 0x1 PUSH1 0x1 PUSH1 0xA0 SHL SUB DUP2 AND DUP2 EQ PUSH2 0x250 JUMPI PUSH1 0x0 DUP1 REVERT JUMPDEST SWAP4 SWAP3 POP POP POP JUMP JUMPDEST PUSH2 0x6A5 DUP1 PUSH2 0x266 PUSH1 0x0 CODECOPY PUSH1 0x0 RETURN INVALID PUSH1 0x80 PUSH1 0x40 MSTORE CALLVALUE DUP1 ISZERO PUSH2 0x10 JUMPI PUSH1 0x0 DUP1 REVERT JUMPDEST POP PUSH1 0x4 CALLDATASIZE LT PUSH2 0xF5 JUMPI PUSH1 0x0 CALLDATALOAD PUSH1 0xE0 SHR DUP1 PUSH4 0x91D14854 GT PUSH2 0x97 JUMPI DUP1 PUSH4 0xCFED246B GT PUSH2 0x66 JUMPI DUP1 PUSH4 0xCFED246B EQ PUSH2 0x274 JUMPI DUP1 PUSH4 0xD391014B EQ PUSH2 0x29B JUMPI DUP1 PUSH4 0xD547741F EQ PUSH2 0x2C2 JUMPI DUP1 PUSH4 0xF0173703 EQ PUSH2 0x2D5 JUMPI PUSH1 0x0 DUP1 REVERT JUMPDEST DUP1 PUSH4 0x91D14854 EQ PUSH2 0x21F JUMPI DUP1 PUSH4 0xA217FDDF EQ PUSH2 0x232 JUMPI DUP1 PUSH4 0xB047EB02 EQ PUSH2 0x23A JUMPI DUP1 PUSH4 0xC705BFBA EQ PUSH2 0x261 JUMPI PUSH1 0x0 DUP1 REVERT JUMPDEST DUP1 PUSH4 0x36568ABE GT PUSH2 0xD3 JUMPI DUP1 PUSH4 0x36568ABE EQ PUSH2 0x168 JUMPI DUP1 PUSH4 0x41976E09 EQ PUSH2 0x17B JUMPI DUP1 PUSH4 0x42BE00B8 EQ PUSH2 0x1D1 JUMPI DUP1 PUSH4 0x895EC75F EQ PUSH2 0x1F8 JUMPI PUSH1 0x0 DUP1 REVERT JUMPDEST DUP1 PUSH4 0x1FFC9A7 EQ PUSH2 0xFA JUMPI DUP1 PUSH4 0x248A9CA3 EQ PUSH2 0x122 JUMPI DUP1 PUSH4 0x2F2FF15D EQ PUSH2 0x153 JUMPI JUMPDEST PUSH1 0x0 DUP1 REVERT JUMPDEST PUSH2 0x10D PUSH2 0x108 CALLDATASIZE PUSH1 0x4 PUSH2 0x58F JUMP JUMPDEST PUSH2 0x2FC JUMP JUMPDEST PUSH1 0x40 MLOAD SWAP1 ISZERO ISZERO DUP2 MSTORE PUSH1 0x20 ADD JUMPDEST PUSH1 0x40 MLOAD DUP1 SWAP2 SUB SWAP1 RETURN JUMPDEST PUSH2 0x145 PUSH2 0x130 CALLDATASIZE PUSH1 0x4 PUSH2 0x5C0 JUMP JUMPDEST PUSH1 0x0 SWAP1 DUP2 MSTORE PUSH1 0x20 DUP2 SWAP1 MSTORE PUSH1 0x40 SWAP1 KECCAK256 PUSH1 0x1 ADD SLOAD SWAP1 JUMP JUMPDEST PUSH1 0x40 MLOAD SWAP1 DUP2 MSTORE PUSH1 0x20 ADD PUSH2 0x119 JUMP JUMPDEST PUSH2 0x166 PUSH2 0x161 CALLDATASIZE PUSH1 0x4 PUSH2 0x5F5 JUMP JUMPDEST PUSH2 0x333 JUMP JUMPDEST STOP JUMPDEST PUSH2 0x166 PUSH2 0x176 CALLDATASIZE PUSH1 0x4 PUSH2 0x5F5 JUMP JUMPDEST PUSH2 0x35E JUMP JUMPDEST PUSH2 0x1BC PUSH2 0x189 CALLDATASIZE PUSH1 0x4 PUSH2 0x621 JUMP JUMPDEST PUSH1 0x1 PUSH1 0x1 PUSH1 0xA0 SHL SUB AND PUSH1 0x0 SWAP1 DUP2 MSTORE PUSH1 0x1 PUSH1 0x20 DUP2 DUP2 MSTORE PUSH1 0x40 SWAP3 DUP4 SWAP1 KECCAK256 DUP4 MLOAD DUP1 DUP6 ADD SWAP1 SWAP5 MSTORE DUP1 SLOAD DUP1 DUP6 MSTORE SWAP3 ADD SLOAD SWAP3 ADD DUP3 SWAP1 MSTORE SWAP2 JUMP JUMPDEST PUSH1 0x40 DUP1 MLOAD SWAP3 DUP4 MSTORE PUSH1 0x20 DUP4 ADD SWAP2 SWAP1 SWAP2 MSTORE ADD PUSH2 0x119 JUMP JUMPDEST PUSH2 0x145 PUSH32 0x73079B33C7C96C67A1FB6C710D1995195C9F4B3E62A619F237584F1BB28D0AA9 DUP2 JUMP JUMPDEST PUSH2 0x145 PUSH32 0x61671C5D9C2848C4E78F3CFD7EFC04C5D793E746EFAB769B3416AA5BBFB40CC DUP2 JUMP JUMPDEST PUSH2 0x10D PUSH2 0x22D CALLDATASIZE PUSH1 0x4 PUSH2 0x5F5 JUMP JUMPDEST PUSH2 0x396 JUMP JUMPDEST PUSH2 0x145 PUSH1 0x0 DUP2 JUMP JUMPDEST PUSH2 0x145 PUSH32 0x372D55E37651A7C6E1940A3FB8628E4B6122A3C1A8B2B70AEE13E07228604567 DUP2 JUMP JUMPDEST PUSH2 0x166 PUSH2 0x26F CALLDATASIZE PUSH1 0x4 PUSH2 0x63C JUMP JUMPDEST PUSH2 0x3BF JUMP JUMPDEST PUSH2 0x1BC PUSH2 0x282 CALLDATASIZE PUSH1 0x4 PUSH2 0x621 JUMP JUMPDEST PUSH1 0x1 PUSH1 0x20 DUP2 SWAP1 MSTORE PUSH1 0x0 SWAP2 DUP3 MSTORE PUSH1 0x40 SWAP1 SWAP2 KECCAK256 DUP1 SLOAD SWAP2 ADD SLOAD DUP3 JUMP JUMPDEST PUSH2 0x145 PUSH32 0x2172861495E7B85EDAC73E3CD5FBB42DD675BAADF627720E687BCFDACA025096 DUP2 JUMP JUMPDEST PUSH2 0x166 PUSH2 0x2D0 CALLDATASIZE PUSH1 0x4 PUSH2 0x5F5 JUMP JUMPDEST PUSH2 0x41F JUMP JUMPDEST PUSH2 0x145 PUSH32 0x66098348AC86AA2C1EFEF4EA51EB3A0DD075BFEEF7E5784EC740DC5B4EE760FD DUP2 JUMP JUMPDEST PUSH1 0x0 PUSH1 0x1 PUSH1 0x1 PUSH1 0xE0 SHL SUB NOT DUP3 AND PUSH4 0x7965DB0B PUSH1 0xE0 SHL EQ DUP1 PUSH2 0x32D JUMPI POP PUSH4 0x1FFC9A7 PUSH1 0xE0 SHL PUSH1 0x1 PUSH1 0x1 PUSH1 0xE0 SHL SUB NOT DUP4 AND EQ JUMPDEST SWAP3 SWAP2 POP POP JUMP JUMPDEST PUSH1 0x0 DUP3 DUP2 MSTORE PUSH1 0x20 DUP2 SWAP1 MSTORE PUSH1 0x40 SWAP1 KECCAK256 PUSH1 0x1 ADD SLOAD PUSH2 0x34E DUP2 PUSH2 0x444 JUMP JUMPDEST PUSH2 0x358 DUP4 DUP4 PUSH2 0x451 JUMP JUMPDEST POP POP POP POP JUMP JUMPDEST PUSH1 0x1 PUSH1 0x1 PUSH1 0xA0 SHL SUB DUP2 AND CALLER EQ PUSH2 0x387 JUMPI PUSH1 0x40 MLOAD PUSH4 0x334BD919 PUSH1 0xE1 SHL DUP2 MSTORE PUSH1 0x4 ADD PUSH1 0x40 MLOAD DUP1 SWAP2 SUB SWAP1 REVERT JUMPDEST PUSH2 0x391 DUP3 DUP3 PUSH2 0x4E3 JUMP JUMPDEST POP POP POP JUMP JUMPDEST PUSH1 0x0 SWAP2 DUP3 MSTORE PUSH1 0x20 DUP3 DUP2 MSTORE PUSH1 0x40 DUP1 DUP5 KECCAK256 PUSH1 0x1 PUSH1 0x1 PUSH1 0xA0 SHL SUB SWAP4 SWAP1 SWAP4 AND DUP5 MSTORE SWAP2 SWAP1 MSTORE SWAP1 KECCAK256 SLOAD PUSH1 0xFF AND SWAP1 JUMP JUMPDEST PUSH32 0x66098348AC86AA2C1EFEF4EA51EB3A0DD075BFEEF7E5784EC740DC5B4EE760FD PUSH2 0x3E9 DUP2 PUSH2 0x444 JUMP JUMPDEST POP PUSH1 0x40 DUP1 MLOAD DUP1 DUP3 ADD DUP3 MSTORE SWAP3 DUP4 MSTORE PUSH1 0x20 DUP1 DUP5 ADD SWAP3 DUP4 MSTORE PUSH1 0x1 PUSH1 0x1 PUSH1 0xA0 SHL SUB SWAP1 SWAP5 AND PUSH1 0x0 SWAP1 DUP2 MSTORE PUSH1 0x1 SWAP5 DUP6 SWAP1 MSTORE KECCAK256 SWAP2 MLOAD DUP3 SSTORE MLOAD SWAP2 ADD SSTORE JUMP JUMPDEST PUSH1 0x0 DUP3 DUP2 MSTORE PUSH1 0x20 DUP2 SWAP1 MSTORE PUSH1 0x40 SWAP1 KECCAK256 PUSH1 0x1 ADD SLOAD PUSH2 0x43A DUP2 PUSH2 0x444 JUMP JUMPDEST PUSH2 0x358 DUP4 DUP4 PUSH2 0x4E3 JUMP JUMPDEST PUSH2 0x44E DUP2 CALLER PUSH2 0x54E JUMP JUMPDEST POP JUMP JUMPDEST PUSH1 0x0 PUSH2 0x45D DUP4 DUP4 PUSH2 0x396 JUMP JUMPDEST PUSH2 0x4DB JUMPI PUSH1 0x0 DUP4 DUP2 MSTORE PUSH1 0x20 DUP2 DUP2 MSTORE PUSH1 0x40 DUP1 DUP4 KECCAK256 PUSH1 0x1 PUSH1 0x1 PUSH1 0xA0 SHL SUB DUP7 AND DUP5 MSTORE SWAP1 SWAP2 MSTORE SWAP1 KECCAK256 DUP1 SLOAD PUSH1 0xFF NOT AND PUSH1 0x1 OR SWAP1 SSTORE PUSH2 0x493 CALLER SWAP1 JUMP JUMPDEST PUSH1 0x1 PUSH1 0x1 PUSH1 0xA0 SHL SUB AND DUP3 PUSH1 0x1 PUSH1 0x1 PUSH1 0xA0 SHL SUB AND DUP5 PUSH32 0x2F8788117E7EFF1D82E926EC794901D17C78024A50270940304540A733656F0D PUSH1 0x40 MLOAD PUSH1 0x40 MLOAD DUP1 SWAP2 SUB SWAP1 LOG4 POP PUSH1 0x1 PUSH2 0x32D JUMP JUMPDEST POP PUSH1 0x0 PUSH2 0x32D JUMP JUMPDEST PUSH1 0x0 PUSH2 0x4EF DUP4 DUP4 PUSH2 0x396 JUMP JUMPDEST ISZERO PUSH2 0x4DB JUMPI PUSH1 0x0 DUP4 DUP2 MSTORE PUSH1 0x20 DUP2 DUP2 MSTORE PUSH1 0x40 DUP1 DUP4 KECCAK256 PUSH1 0x1 PUSH1 0x1 PUSH1 0xA0 SHL SUB DUP7 AND DUP1 DUP6 MSTORE SWAP3 MSTORE DUP1 DUP4 KECCAK256 DUP1 SLOAD PUSH1 0xFF NOT AND SWAP1 SSTORE MLOAD CALLER SWAP3 DUP7 SWAP2 PUSH32 0xF6391F5C32D9C69D2A47EA670B442974B53935D1EDC7FD64EB21E047A839171B SWAP2 SWAP1 LOG4 POP PUSH1 0x1 PUSH2 0x32D JUMP JUMPDEST PUSH2 0x558 DUP3 DUP3 PUSH2 0x396 JUMP JUMPDEST PUSH2 0x58B JUMPI PUSH1 0x40 MLOAD PUSH4 0xE2517D3F PUSH1 0xE0 SHL DUP2 MSTORE PUSH1 0x1 PUSH1 0x1 PUSH1 0xA0 SHL SUB DUP3 AND PUSH1 0x4 DUP3 ADD MSTORE PUSH1 0x24 DUP2 ADD DUP4 SWAP1 MSTORE PUSH1 0x44 ADD PUSH1 0x40 MLOAD DUP1 SWAP2 SUB SWAP1 REVERT JUMPDEST POP POP JUMP JUMPDEST PUSH1 0x0 PUSH1 0x20 DUP3 DUP5 SUB SLT ISZERO PUSH2 0x5A1 JUMPI PUSH1 0x0 DUP1 REVERT JUMPDEST DUP2 CALLDATALOAD PUSH1 0x1 PUSH1 0x1 PUSH1 0xE0 SHL SUB NOT DUP2 AND DUP2 EQ PUSH2 0x5B9 JUMPI PUSH1 0x0 DUP1 REVERT JUMPDEST SWAP4 SWAP3 POP POP POP JUMP JUMPDEST PUSH1 0x0 PUSH1 0x20 DUP3 DUP5 SUB SLT ISZERO PUSH2 0x5D2 JUMPI PUSH1 0x0 DUP1 REVERT JUMPDEST POP CALLDATALOAD SWAP2 SWAP1 POP JUMP JUMPDEST DUP1 CALLDATALOAD PUSH1 0x1 PUSH1 0x1 PUSH1 0xA0 SHL SUB DUP2 AND DUP2 EQ PUSH2 0x5F0 JUMPI PUSH1 0x0 DUP1 REVERT JUMPDEST SWAP2 SWAP1 POP JUMP JUMPDEST PUSH1 0x0 DUP1 PUSH1 0x40 DUP4 DUP6 SUB SLT ISZERO PUSH2 0x608 JUMPI PUSH1 0x0 DUP1 REVERT JUMPDEST DUP3 CALLDATALOAD SWAP2 POP PUSH2 0x618 PUSH1 0x20 DUP5 ADD PUSH2 0x5D9 JUMP JUMPDEST SWAP1 POP SWAP3 POP SWAP3 SWAP1 POP JUMP JUMPDEST PUSH1 0x0 PUSH1 0x20 DUP3 DUP5 SUB SLT ISZERO PUSH2 0x633 JUMPI PUSH1 0x0 DUP1 REVERT JUMPDEST PUSH2 0x5B9 DUP3 PUSH2 0x5D9 JUMP JUMPDEST PUSH1 0x0 DUP1 PUSH1 0x0 PUSH1 0x60 DUP5 DUP7 SUB SLT ISZERO PUSH2 0x651 JUMPI PUSH1 0x0 DUP1 REVERT JUMPDEST PUSH2 0x65A DUP5 PUSH2 0x5D9 JUMP JUMPDEST SWAP6 PUSH1 0x20 DUP6 ADD CALLDATALOAD SWAP6 POP PUSH1 0x40 SWAP1 SWAP5 ADD CALLDATALOAD SWAP4 SWAP3 POP POP POP JUMP INVALID LOG2 PUSH5 0x6970667358 0x22 SLT KECCAK256 0xE1 0xA6 RETURNDATACOPY 0xE1 0x2E LOG0 DUP13 0xE1 SWAP3 0x4E SWAP4 SGT 0xD1 0xE8 MLOAD MOD DUP5 0xBE SWAP16 0x23 0xAA 0x4F MUL 0x4D SAR SMOD LOG4 DUP10 0xE0 0xAE PUSH3 0x696473 PUSH16 0x6C634300081800332172861495E7B85E 0xDA 0xC7 RETURNDATACOPY EXTCODECOPY 0xD5 0xFB 0xB4 0x2D 0xD6 PUSH22 0xBAADF627720E687BCFDACA0250960000000000000000 "},"methodIdentifiers":{"DEFAULT_ADMIN_ROLE()":"a217fddf","ROLE_ADMIN()":"d391014b","ROLE_KEEPER()":"895ec75f","ROLE_ORACLE()":"f0173703","ROLE_PAUSER()":"b047eb02","ROLE_RISK()":"42be00b8","getPrice(address)":"41976e09","getRoleAdmin(bytes32)":"248a9ca3","grantRole(bytes32,address)":"2f2ff15d","hasRole(bytes32,address)":"91d14854","prices(address)":"cfed246b","pushPrice(address,uint256,uint256)":"c705bfba","renounceRole(bytes32,address)":"36568abe","revokeRole(bytes32,address)":"d547741f","supportsInterface(bytes4)":"01ffc9a7"}}}}}