{"contracts/core/CollateralVault.sol":{"CollateralVault":{"abi":[{"inputs":[{"internalType":"address","name":"admin","type":"address"},{"internalType":"contract IERC20","name":"_asset","type":"address"}],"stateMutability":"nonpayable","type":"constructor"},{"inputs":[],"name":"AccessControlBadConfirmation","type":"error"},{"inputs":[{"internalType":"address","name":"account","type":"address"},{"internalType":"bytes32","name":"neededRole","type":"bytes32"}],"name":"AccessControlUnauthorizedAccount","type":"error"},{"inputs":[],"name":"EnforcedPause","type":"error"},{"inputs":[],"name":"ExpectedPause","type":"error"},{"inputs":[],"name":"ReentrancyGuardReentrantCall","type":"error"},{"anonymous":false,"inputs":[{"indexed":true,"internalType":"address","name":"user","type":"address"},{"indexed":false,"internalType":"uint256","name":"amount","type":"uint256"}],"name":"DepositCollateral","type":"event"},{"anonymous":false,"inputs":[{"indexed":false,"internalType":"address","name":"account","type":"address"}],"name":"Paused","type":"event"},{"anonymous":false,"inputs":[{"indexed":true,"internalType":"bytes32","name":"role","type":"bytes32"},{"indexed":true,"internalType":"bytes32","name":"previousAdminRole","type":"bytes32"},{"indexed":true,"internalType":"bytes32","name":"newAdminRole","type":"bytes32"}],"name":"RoleAdminChanged","type":"event"},{"anonymous":false,"inputs":[{"indexed":true,"internalType":"bytes32","name":"role","type":"bytes32"},{"indexed":true,"internalType":"address","name":"account","type":"address"},{"indexed":true,"internalType":"address","name":"sender","type":"address"}],"name":"RoleGranted","type":"event"},{"anonymous":false,"inputs":[{"indexed":true,"internalType":"bytes32","name":"role","type":"bytes32"},{"indexed":true,"internalType":"address","name":"account","type":"address"},{"indexed":true,"internalType":"address","name":"sender","type":"address"}],"name":"RoleRevoked","type":"event"},{"anonymous":false,"inputs":[{"indexed":false,"internalType":"address","name":"account","type":"address"}],"name":"Unpaused","type":"event"},{"anonymous":false,"inputs":[{"indexed":true,"internalType":"address","name":"user","type":"address"},{"indexed":false,"internalType":"uint256","name":"amount","type":"uint256"}],"name":"WithdrawCollateral","type":"event"},{"inputs":[],"name":"DEFAULT_ADMIN_ROLE","outputs":[{"internalType":"bytes32","name":"","type":"bytes32"}],"stateMutability":"view","type":"function"},{"inputs":[],"name":"ROLE_ADMIN","outputs":[{"internalType":"bytes32","name":"","type":"bytes32"}],"stateMutability":"view","type":"function"},{"inputs":[],"name":"ROLE_KEEPER","outputs":[{"internalType":"bytes32","name":"","type":"bytes32"}],"stateMutability":"view","type":"function"},{"inputs":[],"name":"ROLE_ORACLE","outputs":[{"internalType":"bytes32","name":"","type":"bytes32"}],"stateMutability":"view","type":"function"},{"inputs":[],"name":"ROLE_PAUSER","outputs":[{"internalType":"bytes32","name":"","type":"bytes32"}],"stateMutability":"view","type":"function"},{"inputs":[],"name":"ROLE_RISK","outputs":[{"internalType":"bytes32","name":"","type":"bytes32"}],"stateMutability":"view","type":"function"},{"inputs":[],"name":"asset","outputs":[{"internalType":"contract IERC20","name":"","type":"address"}],"stateMutability":"view","type":"function"},{"inputs":[{"internalType":"address","name":"user","type":"address"}],"name":"balanceOf","outputs":[{"internalType":"uint256","name":"","type":"uint256"}],"stateMutability":"view","type":"function"},{"inputs":[{"internalType":"address","name":"","type":"address"}],"name":"balances","outputs":[{"internalType":"uint256","name":"","type":"uint256"}],"stateMutability":"view","type":"function"},{"inputs":[{"internalType":"uint256","name":"amount","type":"uint256"}],"name":"deposit","outputs":[],"stateMutability":"nonpayable","type":"function"},{"inputs":[{"internalType":"bytes32","name":"role","type":"bytes32"}],"name":"getRoleAdmin","outputs":[{"internalType":"bytes32","name":"","type":"bytes32"}],"stateMutability":"view","type":"function"},{"inputs":[{"internalType":"bytes32","name":"role","type":"bytes32"},{"internalType":"address","name":"account","type":"address"}],"name":"grantRole","outputs":[],"stateMutability":"nonpayable","type":"function"},{"inputs":[{"internalType":"bytes32","name":"role","type":"bytes32"},{"internalType":"address","name":"account","type":"address"}],"name":"hasRole","outputs":[{"internalType":"bool","name":"","type":"bool"}],"stateMutability":"view","type":"function"},{"inputs":[],"name":"pause","outputs":[],"stateMutability":"nonpayable","type":"function"},{"inputs":[],"name":"paused","outputs":[{"internalType":"bool","name":"","type":"bool"}],"stateMutability":"view","type":"function"},{"inputs":[{"internalType":"bytes32","name":"role","type":"bytes32"},{"internalType":"address","name":"callerConfirmation","type":"address"}],"name":"renounceRole","outputs":[],"stateMutability":"nonpayable","type":"function"},{"inputs":[{"internalType":"bytes32","name":"role","type":"bytes32"},{"internalType":"address","name":"account","type":"address"}],"name":"revokeRole","outputs":[],"stateMutability":"nonpayable","type":"function"},{"inputs":[{"internalType":"bytes4","name":"interfaceId","type":"bytes4"}],"name":"supportsInterface","outputs":[{"internalType":"bool","name":"","type":"bool"}],"stateMutability":"view","type":"function"},{"inputs":[],"name":"unpause","outputs":[],"stateMutability":"nonpayable","type":"function"},{"inputs":[{"internalType":"uint256","name":"amount","type":"uint256"}],"name":"withdraw","outputs":[],"stateMutability":"nonpayable","type":"function"}],"evm":{"bytecode":{"linkReferences":{},"object":"60a06040523480156200001157600080fd5b5060405162000dc638038062000dc6833981016040819052620000349162000269565b816200005060008051602062000da68339815191528262000156565b506200008c7f73079b33c7c96c67a1fb6c710d1995195c9f4b3e62a619f237584f1bb28d0aa960008051602062000da683398151915262000205565b620000c77f66098348ac86aa2c1efef4ea51eb3a0dd075bfeef7e5784ec740dc5b4ee760fd60008051602062000da683398151915262000205565b620001027f061671c5d9c2848c4e78f3cfd7efc04c5d793e746efab769b3416aa5bbfb40cc60008051602062000da683398151915262000205565b6200013d7f372d55e37651a7c6e1940a3fb8628e4b6122a3c1a8b2b70aee13e0722860456760008051602062000da683398151915262000205565b5060016002556001600160a01b031660805250620002a8565b6000828152602081815260408083206001600160a01b038516845290915281205460ff16620001fb576000838152602081815260408083206001600160a01b03861684529091529020805460ff19166001179055620001b23390565b6001600160a01b0316826001600160a01b0316847f2f8788117e7eff1d82e926ec794901d17c78024a50270940304540a733656f0d60405160405180910390a4506001620001ff565b5060005b92915050565b600082815260208190526040808220600101805490849055905190918391839186917fbd79b86ffe0ab8e8776151514217cd7cacd52c909f66475c3af44e129f0b00ff9190a4505050565b6001600160a01b03811681146200026657600080fd5b50565b600080604083850312156200027d57600080fd5b82516200028a8162000250565b60208401519092506200029d8162000250565b809150509250929050565b608051610ad4620002d2600039600081816101ea0152818161044c01526106600152610ad46000f3fe608060405234801561001057600080fd5b506004361061012c5760003560e01c806370a08231116100ad578063b047eb0211610071578063b047eb02146102d1578063b6b55f25146102f8578063d391014b1461030b578063d547741f14610332578063f01737031461034557600080fd5b806370a082311461025e5780638456cb5914610287578063895ec75f1461028f57806391d14854146102b6578063a217fddf146102c957600080fd5b806336568abe116100f457806336568abe146101d257806338d52e0f146101e55780633f4ba83a1461022457806342be00b81461022c5780635c975abb1461025357600080fd5b806301ffc9a714610131578063248a9ca31461015957806327e235e31461018a5780632e1a7d4d146101aa5780632f2ff15d146101bf575b600080fd5b61014461013f366004610993565b61036c565b60405190151581526020015b60405180910390f35b61017c6101673660046109c4565b60009081526020819052604090206001015490565b604051908152602001610150565b61017c6101983660046109f9565b60036020526000908152604090205481565b6101bd6101b83660046109c4565b6103a3565b005b6101bd6101cd366004610a14565b610505565b6101bd6101e0366004610a14565b610530565b61020c7f000000000000000000000000000000000000000000000000000000000000000081565b6040516001600160a01b039091168152602001610150565b6101bd610568565b61017c7f73079b33c7c96c67a1fb6c710d1995195c9f4b3e62a619f237584f1bb28d0aa981565b60015460ff16610144565b61017c61026c3660046109f9565b6001600160a01b031660009081526003602052604090205490565b6101bd61059a565b61017c7f061671c5d9c2848c4e78f3cfd7efc04c5d793e746efab769b3416aa5bbfb40cc81565b6101446102c4366004610a14565b6105cc565b61017c600081565b61017c7f372d55e37651a7c6e1940a3fb8628e4b6122a3c1a8b2b70aee13e0722860456781565b6101bd6103063660046109c4565b6105f5565b61017c7f2172861495e7b85edac73e3cd5fbb42dd675baadf627720e687bcfdaca02509681565b6101bd610340366004610a14565b61072c565b61017c7f66098348ac86aa2c1efef4ea51eb3a0dd075bfeef7e5784ec740dc5b4ee760fd81565b60006001600160e01b03198216637965db0b60e01b148061039d57506301ffc9a760e01b6001600160e01b03198316145b92915050565b6103ab610751565b6103b3610779565b6000811180156103d25750336000908152600360205260409020548111155b61040c5760405162461bcd60e51b8152602060048201526006602482015265185b5bdd5b9d60d21b60448201526064015b60405180910390fd5b336000908152600360205260408120805483929061042b908490610a56565b909155505060405163a9059cbb60e01b8152336004820152602481018290527f00000000000000000000000000000000000000000000000000000000000000006001600160a01b03169063a9059cbb906044016020604051808303816000875af115801561049d573d6000803e3d6000fd5b505050506040513d601f19601f820116820180604052508101906104c19190610a69565b5060405181815233907fa8e76b822fc682be77f3b1c822ea81f6bda5aed92ba82e6873bfd889f328d1d2906020015b60405180910390a26105026001600255565b50565b6000828152602081905260409020600101546105208161079f565b61052a83836107a9565b50505050565b6001600160a01b03811633146105595760405163334bd91960e11b815260040160405180910390fd5b610563828261083b565b505050565b7f372d55e37651a7c6e1940a3fb8628e4b6122a3c1a8b2b70aee13e072286045676105928161079f565b6105026108a6565b7f372d55e37651a7c6e1940a3fb8628e4b6122a3c1a8b2b70aee13e072286045676105c48161079f565b6105026108f8565b6000918252602082815260408084206001600160a01b0393909316845291905290205460ff1690565b6105fd610751565b610605610779565b6000811161063e5760405162461bcd60e51b8152602060048201526006602482015265185b5bdd5b9d60d21b6044820152606401610403565b6040516323b872dd60e01b8152336004820152306024820152604481018290527f00000000000000000000000000000000000000000000000000000000000000006001600160a01b0316906323b872dd906064016020604051808303816000875af11580156106b1573d6000803e3d6000fd5b505050506040513d601f19601f820116820180604052508101906106d59190610a69565b5033600090815260036020526040812080548392906106f5908490610a8b565b909155505060405181815233907f8c66c9368f6312eb21bf56acbd3a20448f7d1589d024c30482c3d0a33125523e906020016104f0565b6000828152602081905260409020600101546107478161079f565b61052a838361083b565b600280540361077357604051633ee5aeb560e01b815260040160405180910390fd5b60028055565b60015460ff161561079d5760405163d93c066560e01b815260040160405180910390fd5b565b6105028133610933565b60006107b583836105cc565b610833576000838152602081815260408083206001600160a01b03861684529091529020805460ff191660011790556107eb3390565b6001600160a01b0316826001600160a01b0316847f2f8788117e7eff1d82e926ec794901d17c78024a50270940304540a733656f0d60405160405180910390a450600161039d565b50600061039d565b600061084783836105cc565b15610833576000838152602081815260408083206001600160a01b0386168085529252808320805460ff1916905551339286917ff6391f5c32d9c69d2a47ea670b442974b53935d1edc7fd64eb21e047a839171b9190a450600161039d565b6108ae610970565b6001805460ff191690557f5db9ee0a495bf2e6ff9c91a7834c1ba4fdd244a5e8aa4e537bd38aeae4b073aa335b6040516001600160a01b03909116815260200160405180910390a1565b610900610779565b6001805460ff1916811790557f62e78cea01bee320cd4e420270b5ea74000d11b0c9f74754ebdbfc544b05a258336108db565b61093d82826105cc565b61096c5760405163e2517d3f60e01b81526001600160a01b038216600482015260248101839052604401610403565b5050565b60015460ff1661079d57604051638dfc202b60e01b815260040160405180910390fd5b6000602082840312156109a557600080fd5b81356001600160e01b0319811681146109bd57600080fd5b9392505050565b6000602082840312156109d657600080fd5b5035919050565b80356001600160a01b03811681146109f457600080fd5b919050565b600060208284031215610a0b57600080fd5b6109bd826109dd565b60008060408385031215610a2757600080fd5b82359150610a37602084016109dd565b90509250929050565b634e487b7160e01b600052601160045260246000fd5b8181038181111561039d5761039d610a40565b600060208284031215610a7b57600080fd5b815180151581146109bd57600080fd5b8082018082111561039d5761039d610a4056fea26469706673582212200ccf57fee168e41d88de493a84af758ea989f3800a9f0623b7e348f53ae5914d64736f6c634300081800332172861495e7b85edac73e3cd5fbb42dd675baadf627720e687bcfdaca025096","opcodes":"PUSH1 0xA0 PUSH1 0x40 MSTORE CALLVALUE DUP1 ISZERO PUSH3 0x11 JUMPI PUSH1 0x0 DUP1 REVERT JUMPDEST POP PUSH1 0x40 MLOAD PUSH3 0xDC6 CODESIZE SUB DUP1 PUSH3 0xDC6 DUP4 CODECOPY DUP2 ADD PUSH1 0x40 DUP2 SWAP1 MSTORE PUSH3 0x34 SWAP2 PUSH3 0x269 JUMP JUMPDEST DUP2 PUSH3 0x50 PUSH1 0x0 DUP1 MLOAD PUSH1 0x20 PUSH3 0xDA6 DUP4 CODECOPY DUP2 MLOAD SWAP2 MSTORE DUP3 PUSH3 0x156 JUMP JUMPDEST POP PUSH3 0x8C PUSH32 0x73079B33C7C96C67A1FB6C710D1995195C9F4B3E62A619F237584F1BB28D0AA9 PUSH1 0x0 DUP1 MLOAD PUSH1 0x20 PUSH3 0xDA6 DUP4 CODECOPY DUP2 MLOAD SWAP2 MSTORE PUSH3 0x205 JUMP JUMPDEST PUSH3 0xC7 PUSH32 0x66098348AC86AA2C1EFEF4EA51EB3A0DD075BFEEF7E5784EC740DC5B4EE760FD PUSH1 0x0 DUP1 MLOAD PUSH1 0x20 PUSH3 0xDA6 DUP4 CODECOPY DUP2 MLOAD SWAP2 MSTORE PUSH3 0x205 JUMP JUMPDEST PUSH3 0x102 PUSH32 0x61671C5D9C2848C4E78F3CFD7EFC04C5D793E746EFAB769B3416AA5BBFB40CC PUSH1 0x0 DUP1 MLOAD PUSH1 0x20 PUSH3 0xDA6 DUP4 CODECOPY DUP2 MLOAD SWAP2 MSTORE PUSH3 0x205 JUMP JUMPDEST PUSH3 0x13D PUSH32 0x372D55E37651A7C6E1940A3FB8628E4B6122A3C1A8B2B70AEE13E07228604567 PUSH1 0x0 DUP1 MLOAD PUSH1 0x20 PUSH3 0xDA6 DUP4 CODECOPY DUP2 MLOAD SWAP2 MSTORE PUSH3 0x205 JUMP JUMPDEST POP PUSH1 0x1 PUSH1 0x2 SSTORE PUSH1 0x1 PUSH1 0x1 PUSH1 0xA0 SHL SUB AND PUSH1 0x80 MSTORE POP PUSH3 0x2A8 JUMP JUMPDEST PUSH1 0x0 DUP3 DUP2 MSTORE PUSH1 0x20 DUP2 DUP2 MSTORE PUSH1 0x40 DUP1 DUP4 KECCAK256 PUSH1 0x1 PUSH1 0x1 PUSH1 0xA0 SHL SUB DUP6 AND DUP5 MSTORE SWAP1 SWAP2 MSTORE DUP2 KECCAK256 SLOAD PUSH1 0xFF AND PUSH3 0x1FB JUMPI PUSH1 0x0 DUP4 DUP2 MSTORE PUSH1 0x20 DUP2 DUP2 MSTORE PUSH1 0x40 DUP1 DUP4 KECCAK256 PUSH1 0x1 PUSH1 0x1 PUSH1 0xA0 SHL SUB DUP7 AND DUP5 MSTORE SWAP1 SWAP2 MSTORE SWAP1 KECCAK256 DUP1 SLOAD PUSH1 0xFF NOT AND PUSH1 0x1 OR SWAP1 SSTORE PUSH3 0x1B2 CALLER SWAP1 JUMP JUMPDEST PUSH1 0x1 PUSH1 0x1 PUSH1 0xA0 SHL SUB AND DUP3 PUSH1 0x1 PUSH1 0x1 PUSH1 0xA0 SHL SUB AND DUP5 PUSH32 0x2F8788117E7EFF1D82E926EC794901D17C78024A50270940304540A733656F0D PUSH1 0x40 MLOAD PUSH1 0x40 MLOAD DUP1 SWAP2 SUB SWAP1 LOG4 POP PUSH1 0x1 PUSH3 0x1FF JUMP JUMPDEST POP PUSH1 0x0 JUMPDEST SWAP3 SWAP2 POP POP JUMP JUMPDEST PUSH1 0x0 DUP3 DUP2 MSTORE PUSH1 0x20 DUP2 SWAP1 MSTORE PUSH1 0x40 DUP1 DUP3 KECCAK256 PUSH1 0x1 ADD DUP1 SLOAD SWAP1 DUP5 SWAP1 SSTORE SWAP1 MLOAD SWAP1 SWAP2 DUP4 SWAP2 DUP4 SWAP2 DUP7 SWAP2 PUSH32 0xBD79B86FFE0AB8E8776151514217CD7CACD52C909F66475C3AF44E129F0B00FF SWAP2 SWAP1 LOG4 POP POP POP JUMP JUMPDEST PUSH1 0x1 PUSH1 0x1 PUSH1 0xA0 SHL SUB DUP2 AND DUP2 EQ PUSH3 0x266 JUMPI PUSH1 0x0 DUP1 REVERT JUMPDEST POP JUMP JUMPDEST PUSH1 0x0 DUP1 PUSH1 0x40 DUP4 DUP6 SUB SLT ISZERO PUSH3 0x27D JUMPI PUSH1 0x0 DUP1 REVERT JUMPDEST DUP3 MLOAD PUSH3 0x28A DUP2 PUSH3 0x250 JUMP JUMPDEST PUSH1 0x20 DUP5 ADD MLOAD SWAP1 SWAP3 POP PUSH3 0x29D DUP2 PUSH3 0x250 JUMP JUMPDEST DUP1 SWAP2 POP POP SWAP3 POP SWAP3 SWAP1 POP JUMP JUMPDEST PUSH1 0x80 MLOAD PUSH2 0xAD4 PUSH3 0x2D2 PUSH1 0x0 CODECOPY PUSH1 0x0 DUP2 DUP2 PUSH2 0x1EA ADD MSTORE DUP2 DUP2 PUSH2 0x44C ADD MSTORE PUSH2 0x660 ADD MSTORE PUSH2 0xAD4 PUSH1 0x0 RETURN INVALID PUSH1 0x80 PUSH1 0x40 MSTORE CALLVALUE DUP1 ISZERO PUSH2 0x10 JUMPI PUSH1 0x0 DUP1 REVERT JUMPDEST POP PUSH1 0x4 CALLDATASIZE LT PUSH2 0x12C JUMPI PUSH1 0x0 CALLDATALOAD PUSH1 0xE0 SHR DUP1 PUSH4 0x70A08231 GT PUSH2 0xAD JUMPI DUP1 PUSH4 0xB047EB02 GT PUSH2 0x71 JUMPI DUP1 PUSH4 0xB047EB02 EQ PUSH2 0x2D1 JUMPI DUP1 PUSH4 0xB6B55F25 EQ PUSH2 0x2F8 JUMPI DUP1 PUSH4 0xD391014B EQ PUSH2 0x30B JUMPI DUP1 PUSH4 0xD547741F EQ PUSH2 0x332 JUMPI DUP1 PUSH4 0xF0173703 EQ PUSH2 0x345 JUMPI PUSH1 0x0 DUP1 REVERT JUMPDEST DUP1 PUSH4 0x70A08231 EQ PUSH2 0x25E JUMPI DUP1 PUSH4 0x8456CB59 EQ PUSH2 0x287 JUMPI DUP1 PUSH4 0x895EC75F EQ PUSH2 0x28F JUMPI DUP1 PUSH4 0x91D14854 EQ PUSH2 0x2B6 JUMPI DUP1 PUSH4 0xA217FDDF EQ PUSH2 0x2C9 JUMPI PUSH1 0x0 DUP1 REVERT JUMPDEST DUP1 PUSH4 0x36568ABE GT PUSH2 0xF4 JUMPI DUP1 PUSH4 0x36568ABE EQ PUSH2 0x1D2 JUMPI DUP1 PUSH4 0x38D52E0F EQ PUSH2 0x1E5 JUMPI DUP1 PUSH4 0x3F4BA83A EQ PUSH2 0x224 JUMPI DUP1 PUSH4 0x42BE00B8 EQ PUSH2 0x22C JUMPI DUP1 PUSH4 0x5C975ABB EQ PUSH2 0x253 JUMPI PUSH1 0x0 DUP1 REVERT JUMPDEST DUP1 PUSH4 0x1FFC9A7 EQ PUSH2 0x131 JUMPI DUP1 PUSH4 0x248A9CA3 EQ PUSH2 0x159 JUMPI DUP1 PUSH4 0x27E235E3 EQ PUSH2 0x18A JUMPI DUP1 PUSH4 0x2E1A7D4D EQ PUSH2 0x1AA JUMPI DUP1 PUSH4 0x2F2FF15D EQ PUSH2 0x1BF JUMPI JUMPDEST PUSH1 0x0 DUP1 REVERT JUMPDEST PUSH2 0x144 PUSH2 0x13F CALLDATASIZE PUSH1 0x4 PUSH2 0x993 JUMP JUMPDEST PUSH2 0x36C JUMP JUMPDEST PUSH1 0x40 MLOAD SWAP1 ISZERO ISZERO DUP2 MSTORE PUSH1 0x20 ADD JUMPDEST PUSH1 0x40 MLOAD DUP1 SWAP2 SUB SWAP1 RETURN JUMPDEST PUSH2 0x17C PUSH2 0x167 CALLDATASIZE PUSH1 0x4 PUSH2 0x9C4 JUMP JUMPDEST PUSH1 0x0 SWAP1 DUP2 MSTORE PUSH1 0x20 DUP2 SWAP1 MSTORE PUSH1 0x40 SWAP1 KECCAK256 PUSH1 0x1 ADD SLOAD SWAP1 JUMP JUMPDEST PUSH1 0x40 MLOAD SWAP1 DUP2 MSTORE PUSH1 0x20 ADD PUSH2 0x150 JUMP JUMPDEST PUSH2 0x17C PUSH2 0x198 CALLDATASIZE PUSH1 0x4 PUSH2 0x9F9 JUMP JUMPDEST PUSH1 0x3 PUSH1 0x20 MSTORE PUSH1 0x0 SWAP1 DUP2 MSTORE PUSH1 0x40 SWAP1 KECCAK256 SLOAD DUP2 JUMP JUMPDEST PUSH2 0x1BD PUSH2 0x1B8 CALLDATASIZE PUSH1 0x4 PUSH2 0x9C4 JUMP JUMPDEST PUSH2 0x3A3 JUMP JUMPDEST STOP JUMPDEST PUSH2 0x1BD PUSH2 0x1CD CALLDATASIZE PUSH1 0x4 PUSH2 0xA14 JUMP JUMPDEST PUSH2 0x505 JUMP JUMPDEST PUSH2 0x1BD PUSH2 0x1E0 CALLDATASIZE PUSH1 0x4 PUSH2 0xA14 JUMP JUMPDEST PUSH2 0x530 JUMP JUMPDEST PUSH2 0x20C PUSH32 0x0 DUP2 JUMP JUMPDEST PUSH1 0x40 MLOAD PUSH1 0x1 PUSH1 0x1 PUSH1 0xA0 SHL SUB SWAP1 SWAP2 AND DUP2 MSTORE PUSH1 0x20 ADD PUSH2 0x150 JUMP JUMPDEST PUSH2 0x1BD PUSH2 0x568 JUMP JUMPDEST PUSH2 0x17C PUSH32 0x73079B33C7C96C67A1FB6C710D1995195C9F4B3E62A619F237584F1BB28D0AA9 DUP2 JUMP JUMPDEST PUSH1 0x1 SLOAD PUSH1 0xFF AND PUSH2 0x144 JUMP JUMPDEST PUSH2 0x17C PUSH2 0x26C CALLDATASIZE PUSH1 0x4 PUSH2 0x9F9 JUMP JUMPDEST PUSH1 0x1 PUSH1 0x1 PUSH1 0xA0 SHL SUB AND PUSH1 0x0 SWAP1 DUP2 MSTORE PUSH1 0x3 PUSH1 0x20 MSTORE PUSH1 0x40 SWAP1 KECCAK256 SLOAD SWAP1 JUMP JUMPDEST PUSH2 0x1BD PUSH2 0x59A JUMP JUMPDEST PUSH2 0x17C PUSH32 0x61671C5D9C2848C4E78F3CFD7EFC04C5D793E746EFAB769B3416AA5BBFB40CC DUP2 JUMP JUMPDEST PUSH2 0x144 PUSH2 0x2C4 CALLDATASIZE PUSH1 0x4 PUSH2 0xA14 JUMP JUMPDEST PUSH2 0x5CC JUMP JUMPDEST PUSH2 0x17C PUSH1 0x0 DUP2 JUMP JUMPDEST PUSH2 0x17C PUSH32 0x372D55E37651A7C6E1940A3FB8628E4B6122A3C1A8B2B70AEE13E07228604567 DUP2 JUMP JUMPDEST PUSH2 0x1BD PUSH2 0x306 CALLDATASIZE PUSH1 0x4 PUSH2 0x9C4 JUMP JUMPDEST PUSH2 0x5F5 JUMP JUMPDEST PUSH2 0x17C PUSH32 0x2172861495E7B85EDAC73E3CD5FBB42DD675BAADF627720E687BCFDACA025096 DUP2 JUMP JUMPDEST PUSH2 0x1BD PUSH2 0x340 CALLDATASIZE PUSH1 0x4 PUSH2 0xA14 JUMP JUMPDEST PUSH2 0x72C JUMP JUMPDEST PUSH2 0x17C PUSH32 0x66098348AC86AA2C1EFEF4EA51EB3A0DD075BFEEF7E5784EC740DC5B4EE760FD DUP2 JUMP JUMPDEST PUSH1 0x0 PUSH1 0x1 PUSH1 0x1 PUSH1 0xE0 SHL SUB NOT DUP3 AND PUSH4 0x7965DB0B PUSH1 0xE0 SHL EQ DUP1 PUSH2 0x39D JUMPI POP PUSH4 0x1FFC9A7 PUSH1 0xE0 SHL PUSH1 0x1 PUSH1 0x1 PUSH1 0xE0 SHL SUB NOT DUP4 AND EQ JUMPDEST SWAP3 SWAP2 POP POP JUMP JUMPDEST PUSH2 0x3AB PUSH2 0x751 JUMP JUMPDEST PUSH2 0x3B3 PUSH2 0x779 JUMP JUMPDEST PUSH1 0x0 DUP2 GT DUP1 ISZERO PUSH2 0x3D2 JUMPI POP CALLER PUSH1 0x0 SWAP1 DUP2 MSTORE PUSH1 0x3 PUSH1 0x20 MSTORE PUSH1 0x40 SWAP1 KECCAK256 SLOAD DUP2 GT ISZERO JUMPDEST PUSH2 0x40C JUMPI PUSH1 0x40 MLOAD PUSH3 0x461BCD PUSH1 0xE5 SHL DUP2 MSTORE PUSH1 0x20 PUSH1 0x4 DUP3 ADD MSTORE PUSH1 0x6 PUSH1 0x24 DUP3 ADD MSTORE PUSH6 0x185B5BDD5B9D PUSH1 0xD2 SHL PUSH1 0x44 DUP3 ADD MSTORE PUSH1 0x64 ADD JUMPDEST PUSH1 0x40 MLOAD DUP1 SWAP2 SUB SWAP1 REVERT JUMPDEST CALLER PUSH1 0x0 SWAP1 DUP2 MSTORE PUSH1 0x3 PUSH1 0x20 MSTORE PUSH1 0x40 DUP2 KECCAK256 DUP1 SLOAD DUP4 SWAP3 SWAP1 PUSH2 0x42B SWAP1 DUP5 SWAP1 PUSH2 0xA56 JUMP JUMPDEST SWAP1 SWAP2 SSTORE POP POP PUSH1 0x40 MLOAD PUSH4 0xA9059CBB PUSH1 0xE0 SHL DUP2 MSTORE CALLER PUSH1 0x4 DUP3 ADD MSTORE PUSH1 0x24 DUP2 ADD DUP3 SWAP1 MSTORE PUSH32 0x0 PUSH1 0x1 PUSH1 0x1 PUSH1 0xA0 SHL SUB AND SWAP1 PUSH4 0xA9059CBB SWAP1 PUSH1 0x44 ADD PUSH1 0x20 PUSH1 0x40 MLOAD DUP1 DUP4 SUB DUP2 PUSH1 0x0 DUP8 GAS CALL ISZERO DUP1 ISZERO PUSH2 0x49D JUMPI RETURNDATASIZE PUSH1 0x0 DUP1 RETURNDATACOPY RETURNDATASIZE PUSH1 0x0 REVERT JUMPDEST POP POP POP POP PUSH1 0x40 MLOAD RETURNDATASIZE PUSH1 0x1F NOT PUSH1 0x1F DUP3 ADD AND DUP3 ADD DUP1 PUSH1 0x40 MSTORE POP DUP2 ADD SWAP1 PUSH2 0x4C1 SWAP2 SWAP1 PUSH2 0xA69 JUMP JUMPDEST POP PUSH1 0x40 MLOAD DUP2 DUP2 MSTORE CALLER SWAP1 PUSH32 0xA8E76B822FC682BE77F3B1C822EA81F6BDA5AED92BA82E6873BFD889F328D1D2 SWAP1 PUSH1 0x20 ADD JUMPDEST PUSH1 0x40 MLOAD DUP1 SWAP2 SUB SWAP1 LOG2 PUSH2 0x502 PUSH1 0x1 PUSH1 0x2 SSTORE JUMP JUMPDEST POP JUMP JUMPDEST PUSH1 0x0 DUP3 DUP2 MSTORE PUSH1 0x20 DUP2 SWAP1 MSTORE PUSH1 0x40 SWAP1 KECCAK256 PUSH1 0x1 ADD SLOAD PUSH2 0x520 DUP2 PUSH2 0x79F JUMP JUMPDEST PUSH2 0x52A DUP4 DUP4 PUSH2 0x7A9 JUMP JUMPDEST POP POP POP POP JUMP JUMPDEST PUSH1 0x1 PUSH1 0x1 PUSH1 0xA0 SHL SUB DUP2 AND CALLER EQ PUSH2 0x559 JUMPI PUSH1 0x40 MLOAD PUSH4 0x334BD919 PUSH1 0xE1 SHL DUP2 MSTORE PUSH1 0x4 ADD PUSH1 0x40 MLOAD DUP1 SWAP2 SUB SWAP1 REVERT JUMPDEST PUSH2 0x563 DUP3 DUP3 PUSH2 0x83B JUMP JUMPDEST POP POP POP JUMP JUMPDEST PUSH32 0x372D55E37651A7C6E1940A3FB8628E4B6122A3C1A8B2B70AEE13E07228604567 PUSH2 0x592 DUP2 PUSH2 0x79F JUMP JUMPDEST PUSH2 0x502 PUSH2 0x8A6 JUMP JUMPDEST PUSH32 0x372D55E37651A7C6E1940A3FB8628E4B6122A3C1A8B2B70AEE13E07228604567 PUSH2 0x5C4 DUP2 PUSH2 0x79F JUMP JUMPDEST PUSH2 0x502 PUSH2 0x8F8 JUMP JUMPDEST PUSH1 0x0 SWAP2 DUP3 MSTORE PUSH1 0x20 DUP3 DUP2 MSTORE PUSH1 0x40 DUP1 DUP5 KECCAK256 PUSH1 0x1 PUSH1 0x1 PUSH1 0xA0 SHL SUB SWAP4 SWAP1 SWAP4 AND DUP5 MSTORE SWAP2 SWAP1 MSTORE SWAP1 KECCAK256 SLOAD PUSH1 0xFF AND SWAP1 JUMP JUMPDEST PUSH2 0x5FD PUSH2 0x751 JUMP JUMPDEST PUSH2 0x605 PUSH2 0x779 JUMP JUMPDEST PUSH1 0x0 DUP2 GT PUSH2 0x63E JUMPI PUSH1 0x40 MLOAD PUSH3 0x461BCD PUSH1 0xE5 SHL DUP2 MSTORE PUSH1 0x20 PUSH1 0x4 DUP3 ADD MSTORE PUSH1 0x6 PUSH1 0x24 DUP3 ADD MSTORE PUSH6 0x185B5BDD5B9D PUSH1 0xD2 SHL PUSH1 0x44 DUP3 ADD MSTORE PUSH1 0x64 ADD PUSH2 0x403 JUMP JUMPDEST PUSH1 0x40 MLOAD PUSH4 0x23B872DD PUSH1 0xE0 SHL DUP2 MSTORE CALLER PUSH1 0x4 DUP3 ADD MSTORE ADDRESS PUSH1 0x24 DUP3 ADD MSTORE PUSH1 0x44 DUP2 ADD DUP3 SWAP1 MSTORE PUSH32 0x0 PUSH1 0x1 PUSH1 0x1 PUSH1 0xA0 SHL SUB AND SWAP1 PUSH4 0x23B872DD SWAP1 PUSH1 0x64 ADD PUSH1 0x20 PUSH1 0x40 MLOAD DUP1 DUP4 SUB DUP2 PUSH1 0x0 DUP8 GAS CALL ISZERO DUP1 ISZERO PUSH2 0x6B1 JUMPI RETURNDATASIZE PUSH1 0x0 DUP1 RETURNDATACOPY RETURNDATASIZE PUSH1 0x0 REVERT JUMPDEST POP POP POP POP PUSH1 0x40 MLOAD RETURNDATASIZE PUSH1 0x1F NOT PUSH1 0x1F DUP3 ADD AND DUP3 ADD DUP1 PUSH1 0x40 MSTORE POP DUP2 ADD SWAP1 PUSH2 0x6D5 SWAP2 SWAP1 PUSH2 0xA69 JUMP JUMPDEST POP CALLER PUSH1 0x0 SWAP1 DUP2 MSTORE PUSH1 0x3 PUSH1 0x20 MSTORE PUSH1 0x40 DUP2 KECCAK256 DUP1 SLOAD DUP4 SWAP3 SWAP1 PUSH2 0x6F5 SWAP1 DUP5 SWAP1 PUSH2 0xA8B JUMP JUMPDEST SWAP1 SWAP2 SSTORE POP POP PUSH1 0x40 MLOAD DUP2 DUP2 MSTORE CALLER SWAP1 PUSH32 0x8C66C9368F6312EB21BF56ACBD3A20448F7D1589D024C30482C3D0A33125523E SWAP1 PUSH1 0x20 ADD PUSH2 0x4F0 JUMP JUMPDEST PUSH1 0x0 DUP3 DUP2 MSTORE PUSH1 0x20 DUP2 SWAP1 MSTORE PUSH1 0x40 SWAP1 KECCAK256 PUSH1 0x1 ADD SLOAD PUSH2 0x747 DUP2 PUSH2 0x79F JUMP JUMPDEST PUSH2 0x52A DUP4 DUP4 PUSH2 0x83B JUMP JUMPDEST PUSH1 0x2 DUP1 SLOAD SUB PUSH2 0x773 JUMPI PUSH1 0x40 MLOAD PUSH4 0x3EE5AEB5 PUSH1 0xE0 SHL DUP2 MSTORE PUSH1 0x4 ADD PUSH1 0x40 MLOAD DUP1 SWAP2 SUB SWAP1 REVERT JUMPDEST PUSH1 0x2 DUP1 SSTORE JUMP JUMPDEST PUSH1 0x1 SLOAD PUSH1 0xFF AND ISZERO PUSH2 0x79D JUMPI PUSH1 0x40 MLOAD PUSH4 0xD93C0665 PUSH1 0xE0 SHL DUP2 MSTORE PUSH1 0x4 ADD PUSH1 0x40 MLOAD DUP1 SWAP2 SUB SWAP1 REVERT JUMPDEST JUMP JUMPDEST PUSH2 0x502 DUP2 CALLER PUSH2 0x933 JUMP JUMPDEST PUSH1 0x0 PUSH2 0x7B5 DUP4 DUP4 PUSH2 0x5CC JUMP JUMPDEST PUSH2 0x833 JUMPI PUSH1 0x0 DUP4 DUP2 MSTORE PUSH1 0x20 DUP2 DUP2 MSTORE PUSH1 0x40 DUP1 DUP4 KECCAK256 PUSH1 0x1 PUSH1 0x1 PUSH1 0xA0 SHL SUB DUP7 AND DUP5 MSTORE SWAP1 SWAP2 MSTORE SWAP1 KECCAK256 DUP1 SLOAD PUSH1 0xFF NOT AND PUSH1 0x1 OR SWAP1 SSTORE PUSH2 0x7EB CALLER SWAP1 JUMP JUMPDEST PUSH1 0x1 PUSH1 0x1 PUSH1 0xA0 SHL SUB AND DUP3 PUSH1 0x1 PUSH1 0x1 PUSH1 0xA0 SHL SUB AND DUP5 PUSH32 0x2F8788117E7EFF1D82E926EC794901D17C78024A50270940304540A733656F0D PUSH1 0x40 MLOAD PUSH1 0x40 MLOAD DUP1 SWAP2 SUB SWAP1 LOG4 POP PUSH1 0x1 PUSH2 0x39D JUMP JUMPDEST POP PUSH1 0x0 PUSH2 0x39D JUMP JUMPDEST PUSH1 0x0 PUSH2 0x847 DUP4 DUP4 PUSH2 0x5CC JUMP JUMPDEST ISZERO PUSH2 0x833 JUMPI PUSH1 0x0 DUP4 DUP2 MSTORE PUSH1 0x20 DUP2 DUP2 MSTORE PUSH1 0x40 DUP1 DUP4 KECCAK256 PUSH1 0x1 PUSH1 0x1 PUSH1 0xA0 SHL SUB DUP7 AND DUP1 DUP6 MSTORE SWAP3 MSTORE DUP1 DUP4 KECCAK256 DUP1 SLOAD PUSH1 0xFF NOT AND SWAP1 SSTORE MLOAD CALLER SWAP3 DUP7 SWAP2 PUSH32 0xF6391F5C32D9C69D2A47EA670B442974B53935D1EDC7FD64EB21E047A839171B SWAP2 SWAP1 LOG4 POP PUSH1 0x1 PUSH2 0x39D JUMP JUMPDEST PUSH2 0x8AE PUSH2 0x970 JUMP JUMPDEST PUSH1 0x1 DUP1 SLOAD PUSH1 0xFF NOT AND SWAP1 SSTORE PUSH32 0x5DB9EE0A495BF2E6FF9C91A7834C1BA4FDD244A5E8AA4E537BD38AEAE4B073AA CALLER JUMPDEST PUSH1 0x40 MLOAD PUSH1 0x1 PUSH1 0x1 PUSH1 0xA0 SHL SUB SWAP1 SWAP2 AND DUP2 MSTORE PUSH1 0x20 ADD PUSH1 0x40 MLOAD DUP1 SWAP2 SUB SWAP1 LOG1 JUMP JUMPDEST PUSH2 0x900 PUSH2 0x779 JUMP JUMPDEST PUSH1 0x1 DUP1 SLOAD PUSH1 0xFF NOT AND DUP2 OR SWAP1 SSTORE PUSH32 0x62E78CEA01BEE320CD4E420270B5EA74000D11B0C9F74754EBDBFC544B05A258 CALLER PUSH2 0x8DB JUMP JUMPDEST PUSH2 0x93D DUP3 DUP3 PUSH2 0x5CC JUMP JUMPDEST PUSH2 0x96C JUMPI PUSH1 0x40 MLOAD PUSH4 0xE2517D3F PUSH1 0xE0 SHL DUP2 MSTORE PUSH1 0x1 PUSH1 0x1 PUSH1 0xA0 SHL SUB DUP3 AND PUSH1 0x4 DUP3 ADD MSTORE PUSH1 0x24 DUP2 ADD DUP4 SWAP1 MSTORE PUSH1 0x44 ADD PUSH2 0x403 JUMP JUMPDEST POP POP JUMP JUMPDEST PUSH1 0x1 SLOAD PUSH1 0xFF AND PUSH2 0x79D JUMPI PUSH1 0x40 MLOAD PUSH4 0x8DFC202B PUSH1 0xE0 SHL DUP2 MSTORE PUSH1 0x4 ADD PUSH1 0x40 MLOAD DUP1 SWAP2 SUB SWAP1 REVERT JUMPDEST PUSH1 0x0 PUSH1 0x20 DUP3 DUP5 SUB SLT ISZERO PUSH2 0x9A5 JUMPI PUSH1 0x0 DUP1 REVERT JUMPDEST DUP2 CALLDATALOAD PUSH1 0x1 PUSH1 0x1 PUSH1 0xE0 SHL SUB NOT DUP2 AND DUP2 EQ PUSH2 0x9BD JUMPI PUSH1 0x0 DUP1 REVERT JUMPDEST SWAP4 SWAP3 POP POP POP JUMP JUMPDEST PUSH1 0x0 PUSH1 0x20 DUP3 DUP5 SUB SLT ISZERO PUSH2 0x9D6 JUMPI PUSH1 0x0 DUP1 REVERT JUMPDEST POP CALLDATALOAD SWAP2 SWAP1 POP JUMP JUMPDEST DUP1 CALLDATALOAD PUSH1 0x1 PUSH1 0x1 PUSH1 0xA0 SHL SUB DUP2 AND DUP2 EQ PUSH2 0x9F4 JUMPI PUSH1 0x0 DUP1 REVERT JUMPDEST SWAP2 SWAP1 POP JUMP JUMPDEST PUSH1 0x0 PUSH1 0x20 DUP3 DUP5 SUB SLT ISZERO PUSH2 0xA0B JUMPI PUSH1 0x0 DUP1 REVERT JUMPDEST PUSH2 0x9BD DUP3 PUSH2 0x9DD JUMP JUMPDEST PUSH1 0x0 DUP1 PUSH1 0x40 DUP4 DUP6 SUB SLT ISZERO PUSH2 0xA27 JUMPI PUSH1 0x0 DUP1 REVERT JUMPDEST DUP3 CALLDATALOAD SWAP2 POP PUSH2 0xA37 PUSH1 0x20 DUP5 ADD PUSH2 0x9DD JUMP JUMPDEST SWAP1 POP SWAP3 POP SWAP3 SWAP1 POP JUMP JUMPDEST PUSH4 0x4E487B71 PUSH1 0xE0 SHL PUSH1 0x0 MSTORE PUSH1 0x11 PUSH1 0x4 MSTORE PUSH1 0x24 PUSH1 0x0 REVERT JUMPDEST DUP2 DUP2 SUB DUP2 DUP2 GT ISZERO PUSH2 0x39D JUMPI PUSH2 0x39D PUSH2 0xA40 JUMP JUMPDEST PUSH1 0x0 PUSH1 0x20 DUP3 DUP5 SUB SLT ISZERO PUSH2 0xA7B JUMPI PUSH1 0x0 DUP1 REVERT JUMPDEST DUP2 MLOAD DUP1 ISZERO ISZERO DUP2 EQ PUSH2 0x9BD JUMPI PUSH1 0x0 DUP1 REVERT JUMPDEST DUP1 DUP3 ADD DUP1 DUP3 GT ISZERO PUSH2 0x39D JUMPI PUSH2 0x39D PUSH2 0xA40 JUMP INVALID LOG2 PUSH5 0x6970667358 0x22 SLT KECCAK256 0xC 0xCF JUMPI INVALID 0xE1 PUSH9 0xE41D88DE493A84AF75 DUP15 0xA9 DUP10 RETURN DUP1 EXP SWAP16 MOD 0x23 0xB7 0xE3 BASEFEE CREATE2 GASPRICE 0xE5 SWAP2 0x4D PUSH5 0x736F6C6343 STOP ADDMOD XOR STOP CALLER 0x21 PUSH19 0x861495E7B85EDAC73E3CD5FBB42DD675BAADF6 0x27 PUSH19 0xE687BCFDACA02509600000000000000000000 "},"methodIdentifiers":{"DEFAULT_ADMIN_ROLE()":"a217fddf","ROLE_ADMIN()":"d391014b","ROLE_KEEPER()":"895ec75f","ROLE_ORACLE()":"f0173703","ROLE_PAUSER()":"b047eb02","ROLE_RISK()":"42be00b8","asset()":"38d52e0f","balanceOf(address)":"70a08231","balances(address)":"27e235e3","deposit(uint256)":"b6b55f25","getRoleAdmin(bytes32)":"248a9ca3","grantRole(bytes32,address)":"2f2ff15d","hasRole(bytes32,address)":"91d14854","pause()":"8456cb59","paused()":"5c975abb","renounceRole(bytes32,address)":"36568abe","revokeRole(bytes32,address)":"d547741f","supportsInterface(bytes4)":"01ffc9a7","unpause()":"3f4ba83a","withdraw(uint256)":"2e1a7d4d"}}}}}