{
  "_format": "hh-sol-artifact-1",
  "contractName": "DualStakingVault",
  "sourceName": "contracts/staking/DualStakingVault.sol",
  "abi": [
    {
      "inputs": [
        {
          "internalType": "address",
          "name": "admin",
          "type": "address"
        },
        {
          "internalType": "contract IERC20",
          "name": "_asset",
          "type": "address"
        }
      ],
      "stateMutability": "nonpayable",
      "type": "constructor"
    },
    {
      "inputs": [],
      "name": "AccessControlBadConfirmation",
      "type": "error"
    },
    {
      "inputs": [
        {
          "internalType": "address",
          "name": "account",
          "type": "address"
        },
        {
          "internalType": "bytes32",
          "name": "neededRole",
          "type": "bytes32"
        }
      ],
      "name": "AccessControlUnauthorizedAccount",
      "type": "error"
    },
    {
      "anonymous": false,
      "inputs": [
        {
          "indexed": false,
          "internalType": "uint256",
          "name": "rewards",
          "type": "uint256"
        },
        {
          "indexed": false,
          "internalType": "uint256",
          "name": "newIndex",
          "type": "uint256"
        }
      ],
      "name": "Compound",
      "type": "event"
    },
    {
      "anonymous": false,
      "inputs": [
        {
          "indexed": true,
          "internalType": "bytes32",
          "name": "role",
          "type": "bytes32"
        },
        {
          "indexed": true,
          "internalType": "bytes32",
          "name": "previousAdminRole",
          "type": "bytes32"
        },
        {
          "indexed": true,
          "internalType": "bytes32",
          "name": "newAdminRole",
          "type": "bytes32"
        }
      ],
      "name": "RoleAdminChanged",
      "type": "event"
    },
    {
      "anonymous": false,
      "inputs": [
        {
          "indexed": true,
          "internalType": "bytes32",
          "name": "role",
          "type": "bytes32"
        },
        {
          "indexed": true,
          "internalType": "address",
          "name": "account",
          "type": "address"
        },
        {
          "indexed": true,
          "internalType": "address",
          "name": "sender",
          "type": "address"
        }
      ],
      "name": "RoleGranted",
      "type": "event"
    },
    {
      "anonymous": false,
      "inputs": [
        {
          "indexed": true,
          "internalType": "bytes32",
          "name": "role",
          "type": "bytes32"
        },
        {
          "indexed": true,
          "internalType": "address",
          "name": "account",
          "type": "address"
        },
        {
          "indexed": true,
          "internalType": "address",
          "name": "sender",
          "type": "address"
        }
      ],
      "name": "RoleRevoked",
      "type": "event"
    },
    {
      "anonymous": false,
      "inputs": [
        {
          "indexed": true,
          "internalType": "address",
          "name": "user",
          "type": "address"
        },
        {
          "indexed": false,
          "internalType": "uint256",
          "name": "assets",
          "type": "uint256"
        },
        {
          "indexed": false,
          "internalType": "uint256",
          "name": "shares",
          "type": "uint256"
        }
      ],
      "name": "Stake",
      "type": "event"
    },
    {
      "anonymous": false,
      "inputs": [
        {
          "indexed": true,
          "internalType": "address",
          "name": "user",
          "type": "address"
        },
        {
          "indexed": false,
          "internalType": "uint256",
          "name": "assets",
          "type": "uint256"
        },
        {
          "indexed": false,
          "internalType": "uint256",
          "name": "shares",
          "type": "uint256"
        }
      ],
      "name": "Unstake",
      "type": "event"
    },
    {
      "inputs": [],
      "name": "DEFAULT_ADMIN_ROLE",
      "outputs": [
        {
          "internalType": "bytes32",
          "name": "",
          "type": "bytes32"
        }
      ],
      "stateMutability": "view",
      "type": "function"
    },
    {
      "inputs": [],
      "name": "ROLE_ADMIN",
      "outputs": [
        {
          "internalType": "bytes32",
          "name": "",
          "type": "bytes32"
        }
      ],
      "stateMutability": "view",
      "type": "function"
    },
    {
      "inputs": [],
      "name": "ROLE_KEEPER",
      "outputs": [
        {
          "internalType": "bytes32",
          "name": "",
          "type": "bytes32"
        }
      ],
      "stateMutability": "view",
      "type": "function"
    },
    {
      "inputs": [],
      "name": "ROLE_ORACLE",
      "outputs": [
        {
          "internalType": "bytes32",
          "name": "",
          "type": "bytes32"
        }
      ],
      "stateMutability": "view",
      "type": "function"
    },
    {
      "inputs": [],
      "name": "ROLE_PAUSER",
      "outputs": [
        {
          "internalType": "bytes32",
          "name": "",
          "type": "bytes32"
        }
      ],
      "stateMutability": "view",
      "type": "function"
    },
    {
      "inputs": [],
      "name": "ROLE_RISK",
      "outputs": [
        {
          "internalType": "bytes32",
          "name": "",
          "type": "bytes32"
        }
      ],
      "stateMutability": "view",
      "type": "function"
    },
    {
      "inputs": [],
      "name": "asset",
      "outputs": [
        {
          "internalType": "contract IERC20",
          "name": "",
          "type": "address"
        }
      ],
      "stateMutability": "view",
      "type": "function"
    },
    {
      "inputs": [],
      "name": "compound",
      "outputs": [],
      "stateMutability": "nonpayable",
      "type": "function"
    },
    {
      "inputs": [
        {
          "internalType": "uint256",
          "name": "assets",
          "type": "uint256"
        }
      ],
      "name": "deposit",
      "outputs": [
        {
          "internalType": "uint256",
          "name": "out",
          "type": "uint256"
        }
      ],
      "stateMutability": "nonpayable",
      "type": "function"
    },
    {
      "inputs": [
        {
          "internalType": "bytes32",
          "name": "role",
          "type": "bytes32"
        }
      ],
      "name": "getRoleAdmin",
      "outputs": [
        {
          "internalType": "bytes32",
          "name": "",
          "type": "bytes32"
        }
      ],
      "stateMutability": "view",
      "type": "function"
    },
    {
      "inputs": [
        {
          "internalType": "bytes32",
          "name": "role",
          "type": "bytes32"
        },
        {
          "internalType": "address",
          "name": "account",
          "type": "address"
        }
      ],
      "name": "grantRole",
      "outputs": [],
      "stateMutability": "nonpayable",
      "type": "function"
    },
    {
      "inputs": [
        {
          "internalType": "bytes32",
          "name": "role",
          "type": "bytes32"
        },
        {
          "internalType": "address",
          "name": "account",
          "type": "address"
        }
      ],
      "name": "hasRole",
      "outputs": [
        {
          "internalType": "bool",
          "name": "",
          "type": "bool"
        }
      ],
      "stateMutability": "view",
      "type": "function"
    },
    {
      "inputs": [
        {
          "internalType": "bytes32",
          "name": "role",
          "type": "bytes32"
        },
        {
          "internalType": "address",
          "name": "callerConfirmation",
          "type": "address"
        }
      ],
      "name": "renounceRole",
      "outputs": [],
      "stateMutability": "nonpayable",
      "type": "function"
    },
    {
      "inputs": [
        {
          "internalType": "bytes32",
          "name": "role",
          "type": "bytes32"
        },
        {
          "internalType": "address",
          "name": "account",
          "type": "address"
        }
      ],
      "name": "revokeRole",
      "outputs": [],
      "stateMutability": "nonpayable",
      "type": "function"
    },
    {
      "inputs": [],
      "name": "rewardsIndex",
      "outputs": [
        {
          "internalType": "uint256",
          "name": "",
          "type": "uint256"
        }
      ],
      "stateMutability": "view",
      "type": "function"
    },
    {
      "inputs": [
        {
          "internalType": "address",
          "name": "",
          "type": "address"
        }
      ],
      "name": "shares",
      "outputs": [
        {
          "internalType": "uint256",
          "name": "",
          "type": "uint256"
        }
      ],
      "stateMutability": "view",
      "type": "function"
    },
    {
      "inputs": [
        {
          "internalType": "bytes4",
          "name": "interfaceId",
          "type": "bytes4"
        }
      ],
      "name": "supportsInterface",
      "outputs": [
        {
          "internalType": "bool",
          "name": "",
          "type": "bool"
        }
      ],
      "stateMutability": "view",
      "type": "function"
    },
    {
      "inputs": [],
      "name": "totalShares",
      "outputs": [
        {
          "internalType": "uint256",
          "name": "",
          "type": "uint256"
        }
      ],
      "stateMutability": "view",
      "type": "function"
    },
    {
      "inputs": [
        {
          "internalType": "uint256",
          "name": "assets",
          "type": "uint256"
        }
      ],
      "name": "withdraw",
      "outputs": [
        {
          "internalType": "uint256",
          "name": "burned",
          "type": "uint256"
        }
      ],
      "stateMutability": "nonpayable",
      "type": "function"
    }
  ],
  "bytecode": "0x60a0604052670de0b6b3a76400006001553480156200001d57600080fd5b5060405162000ced38038062000ced833981016040819052620000409162000270565b816200005c60008051602062000ccd833981519152826200015d565b50620000987f73079b33c7c96c67a1fb6c710d1995195c9f4b3e62a619f237584f1bb28d0aa960008051602062000ccd8339815191526200020c565b620000d37f66098348ac86aa2c1efef4ea51eb3a0dd075bfeef7e5784ec740dc5b4ee760fd60008051602062000ccd8339815191526200020c565b6200010e7f061671c5d9c2848c4e78f3cfd7efc04c5d793e746efab769b3416aa5bbfb40cc60008051602062000ccd8339815191526200020c565b620001497f372d55e37651a7c6e1940a3fb8628e4b6122a3c1a8b2b70aee13e0722860456760008051602062000ccd8339815191526200020c565b506001600160a01b031660805250620002af565b6000828152602081815260408083206001600160a01b038516845290915281205460ff1662000202576000838152602081815260408083206001600160a01b03861684529091529020805460ff19166001179055620001b93390565b6001600160a01b0316826001600160a01b0316847f2f8788117e7eff1d82e926ec794901d17c78024a50270940304540a733656f0d60405160405180910390a450600162000206565b5060005b92915050565b600082815260208190526040808220600101805490849055905190918391839186917fbd79b86ffe0ab8e8776151514217cd7cacd52c909f66475c3af44e129f0b00ff9190a4505050565b6001600160a01b03811681146200026d57600080fd5b50565b600080604083850312156200028457600080fd5b8251620002918162000257565b6020840151909250620002a48162000257565b809150509250929050565b6080516109f4620002d9600039600081816101bf01528181610416015261057e01526109f46000f3fe608060405234801561001057600080fd5b50600436106101215760003560e01c8063895ec75f116100ad578063ce7c2ac211610071578063ce7c2ac2146102ae578063d391014b146102ce578063d547741f146102f5578063f017370314610308578063f69e20461461032f57600080fd5b8063895ec75f1461023257806391d1485414610259578063a217fddf1461026c578063b047eb0214610274578063b6b55f251461029b57600080fd5b806336568abe116100f457806336568abe146101a757806338d52e0f146101ba5780633a98ef39146101f957806342be00b81461020257806375ec5bd21461022957600080fd5b806301ffc9a714610126578063248a9ca31461014e5780632e1a7d4d1461017f5780632f2ff15d14610192575b600080fd5b61013961013436600461087a565b610337565b60405190151581526020015b60405180910390f35b61017161015c3660046108ab565b60009081526020819052604090206001015490565b604051908152602001610145565b61017161018d3660046108ab565b61036e565b6101a56101a03660046108e0565b6104cd565b005b6101a56101b53660046108e0565b6104f8565b6101e17f000000000000000000000000000000000000000000000000000000000000000081565b6040516001600160a01b039091168152602001610145565b61017160035481565b6101717f73079b33c7c96c67a1fb6c710d1995195c9f4b3e62a619f237584f1bb28d0aa981565b61017160015481565b6101717f061671c5d9c2848c4e78f3cfd7efc04c5d793e746efab769b3416aa5bbfb40cc81565b6101396102673660046108e0565b610530565b610171600081565b6101717f372d55e37651a7c6e1940a3fb8628e4b6122a3c1a8b2b70aee13e0722860456781565b6101716102a93660046108ab565b610559565b6101716102bc36600461090c565b60026020526000908152604090205481565b6101717f2172861495e7b85edac73e3cd5fbb42dd675baadf627720e687bcfdaca02509681565b6101a56103033660046108e0565b61066c565b6101717f66098348ac86aa2c1efef4ea51eb3a0dd075bfeef7e5784ec740dc5b4ee760fd81565b6101a5610691565b60006001600160e01b03198216637965db0b60e01b148061036857506301ffc9a760e01b6001600160e01b03198316145b92915050565b3360009081526002602052604090205481908111156103bd5760405162461bcd60e51b815260206004820152600660248201526573686172657360d01b60448201526064015b60405180910390fd5b33600090815260026020526040812080548392906103dc90849061093d565b9250508190555080600360008282546103f5919061093d565b909155505060405163a9059cbb60e01b8152336004820152602481018390527f00000000000000000000000000000000000000000000000000000000000000006001600160a01b03169063a9059cbb906044016020604051808303816000875af1158015610467573d6000803e3d6000fd5b505050506040513d601f19601f8201168201806040525081019061048b9190610950565b50604080518381526020810183905233917ff960dbf9e5d0682f7a298ed974e33a28b4464914b7a2bfac12ae419a9afeb28091015b60405180910390a2919050565b6000828152602081905260409020600101546104e881610733565b6104f28383610740565b50505050565b6001600160a01b03811633146105215760405163334bd91960e11b815260040160405180910390fd5b61052b82826107d2565b505050565b6000918252602082815260408084206001600160a01b0393909316845291905290205460ff1690565b6040516323b872dd60e01b8152336004820152306024820152604481018290526000907f00000000000000000000000000000000000000000000000000000000000000006001600160a01b0316906323b872dd906064016020604051808303816000875af11580156105cf573d6000803e3d6000fd5b505050506040513d601f19601f820116820180604052508101906105f39190610950565b505033600090815260026020526040812080548392839291610616908490610972565b92505081905550806003600082825461062f9190610972565b9091555050604080518381526020810183905233917f5af417134f72a9d41143ace85b0a26dce6f550f894f2cbc1eeee8810603d91b691016104c0565b60008281526020819052604090206001015461068781610733565b6104f283836107d2565b7f061671c5d9c2848c4e78f3cfd7efc04c5d793e746efab769b3416aa5bbfb40cc6106bb81610733565b6000612710600154600a6106cf9190610985565b6106d9919061099c565b905080600160008282546106ed9190610972565b90915550506001546040805183815260208101929092527fe3c48e43a3cc80f4a0c194845bdd6091fa19b9bb7d22e515c21e9f177e2e22ae910160405180910390a15050565b61073d813361083d565b50565b600061074c8383610530565b6107ca576000838152602081815260408083206001600160a01b03861684529091529020805460ff191660011790556107823390565b6001600160a01b0316826001600160a01b0316847f2f8788117e7eff1d82e926ec794901d17c78024a50270940304540a733656f0d60405160405180910390a4506001610368565b506000610368565b60006107de8383610530565b156107ca576000838152602081815260408083206001600160a01b0386168085529252808320805460ff1916905551339286917ff6391f5c32d9c69d2a47ea670b442974b53935d1edc7fd64eb21e047a839171b9190a4506001610368565b6108478282610530565b6108765760405163e2517d3f60e01b81526001600160a01b0382166004820152602481018390526044016103b4565b5050565b60006020828403121561088c57600080fd5b81356001600160e01b0319811681146108a457600080fd5b9392505050565b6000602082840312156108bd57600080fd5b5035919050565b80356001600160a01b03811681146108db57600080fd5b919050565b600080604083850312156108f357600080fd5b82359150610903602084016108c4565b90509250929050565b60006020828403121561091e57600080fd5b6108a4826108c4565b634e487b7160e01b600052601160045260246000fd5b8181038181111561036857610368610927565b60006020828403121561096257600080fd5b815180151581146108a457600080fd5b8082018082111561036857610368610927565b808202811582820484141761036857610368610927565b6000826109b957634e487b7160e01b600052601260045260246000fd5b50049056fea2646970667358221220cd141d84868dbd41fd73223b9f00d6fe6b1639c1017994c98f1068cb1594065c64736f6c634300081800332172861495e7b85edac73e3cd5fbb42dd675baadf627720e687bcfdaca025096",
  "linkReferences": {},
  "deployedLinkReferences": {}
}