{
  "_format": "hh-sol-artifact-1",
  "contractName": "CollateralVault",
  "sourceName": "contracts/core/CollateralVault.sol",
  "abi": [
    {
      "inputs": [
        {
          "internalType": "address",
          "name": "admin",
          "type": "address"
        },
        {
          "internalType": "contract IERC20",
          "name": "_asset",
          "type": "address"
        }
      ],
      "stateMutability": "nonpayable",
      "type": "constructor"
    },
    {
      "inputs": [],
      "name": "AccessControlBadConfirmation",
      "type": "error"
    },
    {
      "inputs": [
        {
          "internalType": "address",
          "name": "account",
          "type": "address"
        },
        {
          "internalType": "bytes32",
          "name": "neededRole",
          "type": "bytes32"
        }
      ],
      "name": "AccessControlUnauthorizedAccount",
      "type": "error"
    },
    {
      "inputs": [],
      "name": "EnforcedPause",
      "type": "error"
    },
    {
      "inputs": [],
      "name": "ExpectedPause",
      "type": "error"
    },
    {
      "inputs": [],
      "name": "ReentrancyGuardReentrantCall",
      "type": "error"
    },
    {
      "inputs": [
        {
          "internalType": "address",
          "name": "token",
          "type": "address"
        }
      ],
      "name": "SafeERC20FailedOperation",
      "type": "error"
    },
    {
      "anonymous": false,
      "inputs": [
        {
          "indexed": true,
          "internalType": "address",
          "name": "user",
          "type": "address"
        },
        {
          "indexed": false,
          "internalType": "uint256",
          "name": "amount",
          "type": "uint256"
        }
      ],
      "name": "DepositCollateral",
      "type": "event"
    },
    {
      "anonymous": false,
      "inputs": [
        {
          "indexed": false,
          "internalType": "address",
          "name": "account",
          "type": "address"
        }
      ],
      "name": "Paused",
      "type": "event"
    },
    {
      "anonymous": false,
      "inputs": [
        {
          "indexed": true,
          "internalType": "bytes32",
          "name": "role",
          "type": "bytes32"
        },
        {
          "indexed": true,
          "internalType": "bytes32",
          "name": "previousAdminRole",
          "type": "bytes32"
        },
        {
          "indexed": true,
          "internalType": "bytes32",
          "name": "newAdminRole",
          "type": "bytes32"
        }
      ],
      "name": "RoleAdminChanged",
      "type": "event"
    },
    {
      "anonymous": false,
      "inputs": [
        {
          "indexed": true,
          "internalType": "bytes32",
          "name": "role",
          "type": "bytes32"
        },
        {
          "indexed": true,
          "internalType": "address",
          "name": "account",
          "type": "address"
        },
        {
          "indexed": true,
          "internalType": "address",
          "name": "sender",
          "type": "address"
        }
      ],
      "name": "RoleGranted",
      "type": "event"
    },
    {
      "anonymous": false,
      "inputs": [
        {
          "indexed": true,
          "internalType": "bytes32",
          "name": "role",
          "type": "bytes32"
        },
        {
          "indexed": true,
          "internalType": "address",
          "name": "account",
          "type": "address"
        },
        {
          "indexed": true,
          "internalType": "address",
          "name": "sender",
          "type": "address"
        }
      ],
      "name": "RoleRevoked",
      "type": "event"
    },
    {
      "anonymous": false,
      "inputs": [
        {
          "indexed": false,
          "internalType": "address",
          "name": "account",
          "type": "address"
        }
      ],
      "name": "Unpaused",
      "type": "event"
    },
    {
      "anonymous": false,
      "inputs": [
        {
          "indexed": true,
          "internalType": "address",
          "name": "user",
          "type": "address"
        },
        {
          "indexed": false,
          "internalType": "uint256",
          "name": "amount",
          "type": "uint256"
        }
      ],
      "name": "WithdrawCollateral",
      "type": "event"
    },
    {
      "inputs": [],
      "name": "DEFAULT_ADMIN_ROLE",
      "outputs": [
        {
          "internalType": "bytes32",
          "name": "",
          "type": "bytes32"
        }
      ],
      "stateMutability": "view",
      "type": "function"
    },
    {
      "inputs": [],
      "name": "ROLE_ADMIN",
      "outputs": [
        {
          "internalType": "bytes32",
          "name": "",
          "type": "bytes32"
        }
      ],
      "stateMutability": "view",
      "type": "function"
    },
    {
      "inputs": [],
      "name": "ROLE_KEEPER",
      "outputs": [
        {
          "internalType": "bytes32",
          "name": "",
          "type": "bytes32"
        }
      ],
      "stateMutability": "view",
      "type": "function"
    },
    {
      "inputs": [],
      "name": "ROLE_ORACLE",
      "outputs": [
        {
          "internalType": "bytes32",
          "name": "",
          "type": "bytes32"
        }
      ],
      "stateMutability": "view",
      "type": "function"
    },
    {
      "inputs": [],
      "name": "ROLE_PAUSER",
      "outputs": [
        {
          "internalType": "bytes32",
          "name": "",
          "type": "bytes32"
        }
      ],
      "stateMutability": "view",
      "type": "function"
    },
    {
      "inputs": [],
      "name": "ROLE_RISK",
      "outputs": [
        {
          "internalType": "bytes32",
          "name": "",
          "type": "bytes32"
        }
      ],
      "stateMutability": "view",
      "type": "function"
    },
    {
      "inputs": [],
      "name": "asset",
      "outputs": [
        {
          "internalType": "contract IERC20",
          "name": "",
          "type": "address"
        }
      ],
      "stateMutability": "view",
      "type": "function"
    },
    {
      "inputs": [
        {
          "internalType": "address",
          "name": "user",
          "type": "address"
        }
      ],
      "name": "balanceOf",
      "outputs": [
        {
          "internalType": "uint256",
          "name": "",
          "type": "uint256"
        }
      ],
      "stateMutability": "view",
      "type": "function"
    },
    {
      "inputs": [
        {
          "internalType": "address",
          "name": "",
          "type": "address"
        }
      ],
      "name": "balances",
      "outputs": [
        {
          "internalType": "uint256",
          "name": "",
          "type": "uint256"
        }
      ],
      "stateMutability": "view",
      "type": "function"
    },
    {
      "inputs": [
        {
          "internalType": "uint256",
          "name": "amount",
          "type": "uint256"
        }
      ],
      "name": "deposit",
      "outputs": [],
      "stateMutability": "nonpayable",
      "type": "function"
    },
    {
      "inputs": [
        {
          "internalType": "bytes32",
          "name": "role",
          "type": "bytes32"
        }
      ],
      "name": "getRoleAdmin",
      "outputs": [
        {
          "internalType": "bytes32",
          "name": "",
          "type": "bytes32"
        }
      ],
      "stateMutability": "view",
      "type": "function"
    },
    {
      "inputs": [
        {
          "internalType": "bytes32",
          "name": "role",
          "type": "bytes32"
        },
        {
          "internalType": "address",
          "name": "account",
          "type": "address"
        }
      ],
      "name": "grantRole",
      "outputs": [],
      "stateMutability": "nonpayable",
      "type": "function"
    },
    {
      "inputs": [
        {
          "internalType": "bytes32",
          "name": "role",
          "type": "bytes32"
        },
        {
          "internalType": "address",
          "name": "account",
          "type": "address"
        }
      ],
      "name": "hasRole",
      "outputs": [
        {
          "internalType": "bool",
          "name": "",
          "type": "bool"
        }
      ],
      "stateMutability": "view",
      "type": "function"
    },
    {
      "inputs": [],
      "name": "loanManager",
      "outputs": [
        {
          "internalType": "contract ILoanManager",
          "name": "",
          "type": "address"
        }
      ],
      "stateMutability": "view",
      "type": "function"
    },
    {
      "inputs": [],
      "name": "pause",
      "outputs": [],
      "stateMutability": "nonpayable",
      "type": "function"
    },
    {
      "inputs": [],
      "name": "paused",
      "outputs": [
        {
          "internalType": "bool",
          "name": "",
          "type": "bool"
        }
      ],
      "stateMutability": "view",
      "type": "function"
    },
    {
      "inputs": [
        {
          "internalType": "bytes32",
          "name": "role",
          "type": "bytes32"
        },
        {
          "internalType": "address",
          "name": "callerConfirmation",
          "type": "address"
        }
      ],
      "name": "renounceRole",
      "outputs": [],
      "stateMutability": "nonpayable",
      "type": "function"
    },
    {
      "inputs": [
        {
          "internalType": "bytes32",
          "name": "role",
          "type": "bytes32"
        },
        {
          "internalType": "address",
          "name": "account",
          "type": "address"
        }
      ],
      "name": "revokeRole",
      "outputs": [],
      "stateMutability": "nonpayable",
      "type": "function"
    },
    {
      "inputs": [
        {
          "internalType": "address",
          "name": "user",
          "type": "address"
        },
        {
          "internalType": "address",
          "name": "to",
          "type": "address"
        },
        {
          "internalType": "uint256",
          "name": "amount",
          "type": "uint256"
        }
      ],
      "name": "seize",
      "outputs": [],
      "stateMutability": "nonpayable",
      "type": "function"
    },
    {
      "inputs": [
        {
          "internalType": "contract ILoanManager",
          "name": "_loan",
          "type": "address"
        }
      ],
      "name": "setLoanManager",
      "outputs": [],
      "stateMutability": "nonpayable",
      "type": "function"
    },
    {
      "inputs": [
        {
          "internalType": "bytes4",
          "name": "interfaceId",
          "type": "bytes4"
        }
      ],
      "name": "supportsInterface",
      "outputs": [
        {
          "internalType": "bool",
          "name": "",
          "type": "bool"
        }
      ],
      "stateMutability": "view",
      "type": "function"
    },
    {
      "inputs": [],
      "name": "unpause",
      "outputs": [],
      "stateMutability": "nonpayable",
      "type": "function"
    },
    {
      "inputs": [
        {
          "internalType": "uint256",
          "name": "amount",
          "type": "uint256"
        }
      ],
      "name": "withdraw",
      "outputs": [],
      "stateMutability": "nonpayable",
      "type": "function"
    }
  ],
  "bytecode": "0x60a06040523480156200001157600080fd5b506040516200115f3803806200115f833981016040819052620000349162000269565b81620000506000805160206200113f8339815191528262000156565b506200008c7f73079b33c7c96c67a1fb6c710d1995195c9f4b3e62a619f237584f1bb28d0aa96000805160206200113f83398151915262000205565b620000c77f66098348ac86aa2c1efef4ea51eb3a0dd075bfeef7e5784ec740dc5b4ee760fd6000805160206200113f83398151915262000205565b620001027f061671c5d9c2848c4e78f3cfd7efc04c5d793e746efab769b3416aa5bbfb40cc6000805160206200113f83398151915262000205565b6200013d7f372d55e37651a7c6e1940a3fb8628e4b6122a3c1a8b2b70aee13e072286045676000805160206200113f83398151915262000205565b5060016002556001600160a01b031660805250620002a8565b6000828152602081815260408083206001600160a01b038516845290915281205460ff16620001fb576000838152602081815260408083206001600160a01b03861684529091529020805460ff19166001179055620001b23390565b6001600160a01b0316826001600160a01b0316847f2f8788117e7eff1d82e926ec794901d17c78024a50270940304540a733656f0d60405160405180910390a4506001620001ff565b5060005b92915050565b600082815260208190526040808220600101805490849055905190918391839186917fbd79b86ffe0ab8e8776151514217cd7cacd52c909f66475c3af44e129f0b00ff9190a4505050565b6001600160a01b03811681146200026657600080fd5b50565b600080604083850312156200027d57600080fd5b82516200028a8162000250565b60208401519092506200029d8162000250565b809150509250929050565b608051610e66620002d96000396000818161020b015281816105cc0152818161082401526108920152610e666000f3fe608060405234801561001057600080fd5b506004361061014d5760003560e01c806370a08231116100c3578063b2a02ff11161007c578063b2a02ff11461032c578063b3ccbcfe1461033f578063b6b55f2514610352578063d391014b14610365578063d547741f1461038c578063f01737031461039f57600080fd5b806370a08231146102925780638456cb59146102bb578063895ec75f146102c357806391d14854146102ea578063a217fddf146102fd578063b047eb021461030557600080fd5b806336568abe1161011557806336568abe146101f357806338d52e0f146102065780633f4ba83a1461024557806342be00b81461024d5780635772ae70146102745780635c975abb1461028757600080fd5b806301ffc9a714610152578063248a9ca31461017a57806327e235e3146101ab5780632e1a7d4d146101cb5780632f2ff15d146101e0575b600080fd5b610165610160366004610c80565b6103c6565b60405190151581526020015b60405180910390f35b61019d610188366004610cb1565b60009081526020819052604090206001015490565b604051908152602001610171565b61019d6101b9366004610cdf565b60036020526000908152604090205481565b6101de6101d9366004610cb1565b6103fd565b005b6101de6101ee366004610cfc565b610636565b6101de610201366004610cfc565b610661565b61022d7f000000000000000000000000000000000000000000000000000000000000000081565b6040516001600160a01b039091168152602001610171565b6101de610699565b61019d7f73079b33c7c96c67a1fb6c710d1995195c9f4b3e62a619f237584f1bb28d0aa981565b6101de610282366004610cdf565b6106cb565b60015460ff16610165565b61019d6102a0366004610cdf565b6001600160a01b031660009081526003602052604090205490565b6101de610718565b61019d7f061671c5d9c2848c4e78f3cfd7efc04c5d793e746efab769b3416aa5bbfb40cc81565b6101656102f8366004610cfc565b61074a565b61019d600081565b61019d7f372d55e37651a7c6e1940a3fb8628e4b6122a3c1a8b2b70aee13e0722860456781565b6101de61033a366004610d2c565b610773565b60045461022d906001600160a01b031681565b6101de610360366004610cb1565b610855565b61019d7f2172861495e7b85edac73e3cd5fbb42dd675baadf627720e687bcfdaca02509681565b6101de61039a366004610cfc565b610910565b61019d7f66098348ac86aa2c1efef4ea51eb3a0dd075bfeef7e5784ec740dc5b4ee760fd81565b60006001600160e01b03198216637965db0b60e01b14806103f757506301ffc9a760e01b6001600160e01b03198316145b92915050565b610405610935565b61040d61095d565b60008111801561042c5750336000908152600360205260409020548111155b6104515760405162461bcd60e51b815260040161044890610d6d565b60405180910390fd5b6004546001600160a01b03161561059a57336000908152600360205260408120549061047d8383610da3565b60048054604051632ebc328760e11b8152339281019290925291925060009182916001600160a01b0390911690635d78650e90602401606060405180830381865afa1580156104d0573d6000803e3d6000fd5b505050506040513d601f19601f820116820180604052508101906104f49190610db6565b9093509150508115610595576000841161053d5760405162461bcd60e51b815260206004820152600a60248201526918dbdb1b185d195c985b60b21b6044820152606401610448565b60008461054a8584610de4565b6105549190610dfb565b9050670de0b6b3a76400008110156105935760405162461bcd60e51b8152602060048201526002602482015261343360f11b6044820152606401610448565b505b505050505b33600090815260036020526040812080548392906105b9908490610da3565b909155506105f390506001600160a01b037f0000000000000000000000000000000000000000000000000000000000000000163383610983565b60405181815233907fa8e76b822fc682be77f3b1c822ea81f6bda5aed92ba82e6873bfd889f328d1d2906020015b60405180910390a26106336001600255565b50565b600082815260208190526040902060010154610651816109e2565b61065b83836109ec565b50505050565b6001600160a01b038116331461068a5760405163334bd91960e11b815260040160405180910390fd5b6106948282610a7e565b505050565b7f372d55e37651a7c6e1940a3fb8628e4b6122a3c1a8b2b70aee13e072286045676106c3816109e2565b610633610ae9565b7f73079b33c7c96c67a1fb6c710d1995195c9f4b3e62a619f237584f1bb28d0aa96106f5816109e2565b50600480546001600160a01b0319166001600160a01b0392909216919091179055565b7f372d55e37651a7c6e1940a3fb8628e4b6122a3c1a8b2b70aee13e07228604567610742816109e2565b610633610b3b565b6000918252602082815260408084206001600160a01b0393909316845291905290205460ff1690565b7f061671c5d9c2848c4e78f3cfd7efc04c5d793e746efab769b3416aa5bbfb40cc61079d816109e2565b6107a5610935565b6000821180156107cd57506001600160a01b0384166000908152600360205260409020548211155b6107e95760405162461bcd60e51b815260040161044890610d6d565b6001600160a01b03841660009081526003602052604081208054849290610811908490610da3565b9091555061084b90506001600160a01b037f0000000000000000000000000000000000000000000000000000000000000000168484610983565b61065b6001600255565b61085d610935565b61086561095d565b600081116108855760405162461bcd60e51b815260040161044890610d6d565b6108ba6001600160a01b037f000000000000000000000000000000000000000000000000000000000000000016333084610b76565b33600090815260036020526040812080548392906108d9908490610e1d565b909155505060405181815233907f8c66c9368f6312eb21bf56acbd3a20448f7d1589d024c30482c3d0a33125523e90602001610621565b60008281526020819052604090206001015461092b816109e2565b61065b8383610a7e565b600280540361095757604051633ee5aeb560e01b815260040160405180910390fd5b60028055565b60015460ff16156109815760405163d93c066560e01b815260040160405180910390fd5b565b6040516001600160a01b0383811660248301526044820183905261069491859182169063a9059cbb906064015b604051602081830303815290604052915060e01b6020820180516001600160e01b038381831617835250505050610baf565b6106338133610c20565b60006109f8838361074a565b610a76576000838152602081815260408083206001600160a01b03861684529091529020805460ff19166001179055610a2e3390565b6001600160a01b0316826001600160a01b0316847f2f8788117e7eff1d82e926ec794901d17c78024a50270940304540a733656f0d60405160405180910390a45060016103f7565b5060006103f7565b6000610a8a838361074a565b15610a76576000838152602081815260408083206001600160a01b0386168085529252808320805460ff1916905551339286917ff6391f5c32d9c69d2a47ea670b442974b53935d1edc7fd64eb21e047a839171b9190a45060016103f7565b610af1610c5d565b6001805460ff191690557f5db9ee0a495bf2e6ff9c91a7834c1ba4fdd244a5e8aa4e537bd38aeae4b073aa335b6040516001600160a01b03909116815260200160405180910390a1565b610b4361095d565b6001805460ff1916811790557f62e78cea01bee320cd4e420270b5ea74000d11b0c9f74754ebdbfc544b05a25833610b1e565b6040516001600160a01b03848116602483015283811660448301526064820183905261065b9186918216906323b872dd906084016109b0565b600080602060008451602086016000885af180610bd2576040513d6000823e3d81fd5b50506000513d91508115610bea578060011415610bf7565b6001600160a01b0384163b155b1561065b57604051635274afe760e01b81526001600160a01b0385166004820152602401610448565b610c2a828261074a565b610c595760405163e2517d3f60e01b81526001600160a01b038216600482015260248101839052604401610448565b5050565b60015460ff1661098157604051638dfc202b60e01b815260040160405180910390fd5b600060208284031215610c9257600080fd5b81356001600160e01b031981168114610caa57600080fd5b9392505050565b600060208284031215610cc357600080fd5b5035919050565b6001600160a01b038116811461063357600080fd5b600060208284031215610cf157600080fd5b8135610caa81610cca565b60008060408385031215610d0f57600080fd5b823591506020830135610d2181610cca565b809150509250929050565b600080600060608486031215610d4157600080fd5b8335610d4c81610cca565b92506020840135610d5c81610cca565b929592945050506040919091013590565b602080825260069082015265185b5bdd5b9d60d21b604082015260600190565b634e487b7160e01b600052601160045260246000fd5b818103818111156103f7576103f7610d8d565b600080600060608486031215610dcb57600080fd5b8351925060208401519150604084015190509250925092565b80820281158282048414176103f7576103f7610d8d565b600082610e1857634e487b7160e01b600052601260045260246000fd5b500490565b808201808211156103f7576103f7610d8d56fea26469706673582212206d9df437a004f1b6368ab4fa64261043ddfb7c3cc28e70b79d8fbbae739b391264736f6c634300081800332172861495e7b85edac73e3cd5fbb42dd675baadf627720e687bcfdaca025096",
  "linkReferences": {},
  "deployedLinkReferences": {}
}