{
  "_format": "hh-sol-artifact-1",
  "contractName": "LoanManager",
  "sourceName": "contracts/core/LoanManager.sol",
  "abi": [
    {
      "inputs": [
        {
          "internalType": "address",
          "name": "admin",
          "type": "address"
        },
        {
          "internalType": "contract IERC20",
          "name": "_debtAsset",
          "type": "address"
        },
        {
          "internalType": "contract IVault",
          "name": "_vault",
          "type": "address"
        }
      ],
      "stateMutability": "nonpayable",
      "type": "constructor"
    },
    {
      "inputs": [],
      "name": "AccessControlBadConfirmation",
      "type": "error"
    },
    {
      "inputs": [
        {
          "internalType": "address",
          "name": "account",
          "type": "address"
        },
        {
          "internalType": "bytes32",
          "name": "neededRole",
          "type": "bytes32"
        }
      ],
      "name": "AccessControlUnauthorizedAccount",
      "type": "error"
    },
    {
      "inputs": [],
      "name": "EnforcedPause",
      "type": "error"
    },
    {
      "inputs": [],
      "name": "ExpectedPause",
      "type": "error"
    },
    {
      "inputs": [],
      "name": "ReentrancyGuardReentrantCall",
      "type": "error"
    },
    {
      "inputs": [
        {
          "internalType": "address",
          "name": "token",
          "type": "address"
        }
      ],
      "name": "SafeERC20FailedOperation",
      "type": "error"
    },
    {
      "anonymous": false,
      "inputs": [
        {
          "indexed": false,
          "internalType": "uint256",
          "name": "newIndex",
          "type": "uint256"
        },
        {
          "indexed": false,
          "internalType": "uint256",
          "name": "dt",
          "type": "uint256"
        }
      ],
      "name": "AccrueInterest",
      "type": "event"
    },
    {
      "anonymous": false,
      "inputs": [
        {
          "indexed": true,
          "internalType": "address",
          "name": "user",
          "type": "address"
        },
        {
          "indexed": false,
          "internalType": "uint256",
          "name": "amount",
          "type": "uint256"
        }
      ],
      "name": "Borrow",
      "type": "event"
    },
    {
      "anonymous": false,
      "inputs": [
        {
          "indexed": false,
          "internalType": "address",
          "name": "account",
          "type": "address"
        }
      ],
      "name": "Paused",
      "type": "event"
    },
    {
      "anonymous": false,
      "inputs": [
        {
          "indexed": true,
          "internalType": "address",
          "name": "user",
          "type": "address"
        },
        {
          "indexed": false,
          "internalType": "uint256",
          "name": "amount",
          "type": "uint256"
        }
      ],
      "name": "Repay",
      "type": "event"
    },
    {
      "anonymous": false,
      "inputs": [
        {
          "indexed": true,
          "internalType": "bytes32",
          "name": "role",
          "type": "bytes32"
        },
        {
          "indexed": true,
          "internalType": "bytes32",
          "name": "previousAdminRole",
          "type": "bytes32"
        },
        {
          "indexed": true,
          "internalType": "bytes32",
          "name": "newAdminRole",
          "type": "bytes32"
        }
      ],
      "name": "RoleAdminChanged",
      "type": "event"
    },
    {
      "anonymous": false,
      "inputs": [
        {
          "indexed": true,
          "internalType": "bytes32",
          "name": "role",
          "type": "bytes32"
        },
        {
          "indexed": true,
          "internalType": "address",
          "name": "account",
          "type": "address"
        },
        {
          "indexed": true,
          "internalType": "address",
          "name": "sender",
          "type": "address"
        }
      ],
      "name": "RoleGranted",
      "type": "event"
    },
    {
      "anonymous": false,
      "inputs": [
        {
          "indexed": true,
          "internalType": "bytes32",
          "name": "role",
          "type": "bytes32"
        },
        {
          "indexed": true,
          "internalType": "address",
          "name": "account",
          "type": "address"
        },
        {
          "indexed": true,
          "internalType": "address",
          "name": "sender",
          "type": "address"
        }
      ],
      "name": "RoleRevoked",
      "type": "event"
    },
    {
      "anonymous": false,
      "inputs": [
        {
          "indexed": false,
          "internalType": "address",
          "name": "account",
          "type": "address"
        }
      ],
      "name": "Unpaused",
      "type": "event"
    },
    {
      "anonymous": false,
      "inputs": [
        {
          "indexed": false,
          "internalType": "uint256",
          "name": "targetLtv",
          "type": "uint256"
        },
        {
          "indexed": false,
          "internalType": "uint256",
          "name": "liquidationLtv",
          "type": "uint256"
        },
        {
          "indexed": false,
          "internalType": "uint256",
          "name": "baseRate",
          "type": "uint256"
        }
      ],
      "name": "UpdateParams",
      "type": "event"
    },
    {
      "anonymous": false,
      "inputs": [
        {
          "indexed": false,
          "internalType": "uint256",
          "name": "baseRateBps",
          "type": "uint256"
        }
      ],
      "name": "UpdateRates",
      "type": "event"
    },
    {
      "inputs": [],
      "name": "DEFAULT_ADMIN_ROLE",
      "outputs": [
        {
          "internalType": "bytes32",
          "name": "",
          "type": "bytes32"
        }
      ],
      "stateMutability": "view",
      "type": "function"
    },
    {
      "inputs": [],
      "name": "ROLE_ADMIN",
      "outputs": [
        {
          "internalType": "bytes32",
          "name": "",
          "type": "bytes32"
        }
      ],
      "stateMutability": "view",
      "type": "function"
    },
    {
      "inputs": [],
      "name": "ROLE_KEEPER",
      "outputs": [
        {
          "internalType": "bytes32",
          "name": "",
          "type": "bytes32"
        }
      ],
      "stateMutability": "view",
      "type": "function"
    },
    {
      "inputs": [],
      "name": "ROLE_ORACLE",
      "outputs": [
        {
          "internalType": "bytes32",
          "name": "",
          "type": "bytes32"
        }
      ],
      "stateMutability": "view",
      "type": "function"
    },
    {
      "inputs": [],
      "name": "ROLE_PAUSER",
      "outputs": [
        {
          "internalType": "bytes32",
          "name": "",
          "type": "bytes32"
        }
      ],
      "stateMutability": "view",
      "type": "function"
    },
    {
      "inputs": [],
      "name": "ROLE_RISK",
      "outputs": [
        {
          "internalType": "bytes32",
          "name": "",
          "type": "bytes32"
        }
      ],
      "stateMutability": "view",
      "type": "function"
    },
    {
      "inputs": [],
      "name": "accrueInterest",
      "outputs": [],
      "stateMutability": "nonpayable",
      "type": "function"
    },
    {
      "inputs": [],
      "name": "baseRateBps",
      "outputs": [
        {
          "internalType": "uint256",
          "name": "",
          "type": "uint256"
        }
      ],
      "stateMutability": "view",
      "type": "function"
    },
    {
      "inputs": [
        {
          "internalType": "uint256",
          "name": "amount",
          "type": "uint256"
        }
      ],
      "name": "borrow",
      "outputs": [],
      "stateMutability": "nonpayable",
      "type": "function"
    },
    {
      "inputs": [],
      "name": "collateralToken",
      "outputs": [
        {
          "internalType": "address",
          "name": "",
          "type": "address"
        }
      ],
      "stateMutability": "view",
      "type": "function"
    },
    {
      "inputs": [],
      "name": "collateralVault",
      "outputs": [
        {
          "internalType": "contract IVault",
          "name": "",
          "type": "address"
        }
      ],
      "stateMutability": "view",
      "type": "function"
    },
    {
      "inputs": [],
      "name": "debtAsset",
      "outputs": [
        {
          "internalType": "contract IERC20",
          "name": "",
          "type": "address"
        }
      ],
      "stateMutability": "view",
      "type": "function"
    },
    {
      "inputs": [
        {
          "internalType": "address",
          "name": "user",
          "type": "address"
        }
      ],
      "name": "debtOf",
      "outputs": [
        {
          "internalType": "uint256",
          "name": "",
          "type": "uint256"
        }
      ],
      "stateMutability": "view",
      "type": "function"
    },
    {
      "inputs": [
        {
          "internalType": "address",
          "name": "user",
          "type": "address"
        }
      ],
      "name": "getAccountData",
      "outputs": [
        {
          "internalType": "uint256",
          "name": "collateral",
          "type": "uint256"
        },
        {
          "internalType": "uint256",
          "name": "_debt",
          "type": "uint256"
        },
        {
          "internalType": "uint256",
          "name": "healthFactor",
          "type": "uint256"
        }
      ],
      "stateMutability": "view",
      "type": "function"
    },
    {
      "inputs": [
        {
          "internalType": "bytes32",
          "name": "role",
          "type": "bytes32"
        }
      ],
      "name": "getRoleAdmin",
      "outputs": [
        {
          "internalType": "bytes32",
          "name": "",
          "type": "bytes32"
        }
      ],
      "stateMutability": "view",
      "type": "function"
    },
    {
      "inputs": [
        {
          "internalType": "bytes32",
          "name": "role",
          "type": "bytes32"
        },
        {
          "internalType": "address",
          "name": "account",
          "type": "address"
        }
      ],
      "name": "grantRole",
      "outputs": [],
      "stateMutability": "nonpayable",
      "type": "function"
    },
    {
      "inputs": [
        {
          "internalType": "bytes32",
          "name": "role",
          "type": "bytes32"
        },
        {
          "internalType": "address",
          "name": "account",
          "type": "address"
        }
      ],
      "name": "hasRole",
      "outputs": [
        {
          "internalType": "bool",
          "name": "",
          "type": "bool"
        }
      ],
      "stateMutability": "view",
      "type": "function"
    },
    {
      "inputs": [],
      "name": "interestIndex",
      "outputs": [
        {
          "internalType": "uint256",
          "name": "",
          "type": "uint256"
        }
      ],
      "stateMutability": "view",
      "type": "function"
    },
    {
      "inputs": [],
      "name": "lastAccrual",
      "outputs": [
        {
          "internalType": "uint256",
          "name": "",
          "type": "uint256"
        }
      ],
      "stateMutability": "view",
      "type": "function"
    },
    {
      "inputs": [],
      "name": "liquidationLtv",
      "outputs": [
        {
          "internalType": "uint256",
          "name": "",
          "type": "uint256"
        }
      ],
      "stateMutability": "view",
      "type": "function"
    },
    {
      "inputs": [],
      "name": "oracle",
      "outputs": [
        {
          "internalType": "contract IOracle",
          "name": "",
          "type": "address"
        }
      ],
      "stateMutability": "view",
      "type": "function"
    },
    {
      "inputs": [],
      "name": "paused",
      "outputs": [
        {
          "internalType": "bool",
          "name": "",
          "type": "bool"
        }
      ],
      "stateMutability": "view",
      "type": "function"
    },
    {
      "inputs": [
        {
          "internalType": "address",
          "name": "",
          "type": "address"
        }
      ],
      "name": "principalDebt",
      "outputs": [
        {
          "internalType": "uint256",
          "name": "",
          "type": "uint256"
        }
      ],
      "stateMutability": "view",
      "type": "function"
    },
    {
      "inputs": [
        {
          "internalType": "bytes32",
          "name": "role",
          "type": "bytes32"
        },
        {
          "internalType": "address",
          "name": "callerConfirmation",
          "type": "address"
        }
      ],
      "name": "renounceRole",
      "outputs": [],
      "stateMutability": "nonpayable",
      "type": "function"
    },
    {
      "inputs": [
        {
          "internalType": "uint256",
          "name": "amount",
          "type": "uint256"
        }
      ],
      "name": "repay",
      "outputs": [],
      "stateMutability": "nonpayable",
      "type": "function"
    },
    {
      "inputs": [
        {
          "internalType": "address",
          "name": "payer",
          "type": "address"
        },
        {
          "internalType": "address",
          "name": "user",
          "type": "address"
        },
        {
          "internalType": "uint256",
          "name": "amount",
          "type": "uint256"
        }
      ],
      "name": "repayFrom",
      "outputs": [],
      "stateMutability": "nonpayable",
      "type": "function"
    },
    {
      "inputs": [
        {
          "internalType": "bytes32",
          "name": "role",
          "type": "bytes32"
        },
        {
          "internalType": "address",
          "name": "account",
          "type": "address"
        }
      ],
      "name": "revokeRole",
      "outputs": [],
      "stateMutability": "nonpayable",
      "type": "function"
    },
    {
      "inputs": [
        {
          "internalType": "contract IOracle",
          "name": "_oracle",
          "type": "address"
        },
        {
          "internalType": "address",
          "name": "_collateralToken",
          "type": "address"
        }
      ],
      "name": "setOracle",
      "outputs": [],
      "stateMutability": "nonpayable",
      "type": "function"
    },
    {
      "inputs": [
        {
          "internalType": "uint256",
          "name": "_target",
          "type": "uint256"
        },
        {
          "internalType": "uint256",
          "name": "_liq",
          "type": "uint256"
        },
        {
          "internalType": "uint256",
          "name": "_baseRate",
          "type": "uint256"
        }
      ],
      "name": "setParams",
      "outputs": [],
      "stateMutability": "nonpayable",
      "type": "function"
    },
    {
      "inputs": [
        {
          "internalType": "bytes4",
          "name": "interfaceId",
          "type": "bytes4"
        }
      ],
      "name": "supportsInterface",
      "outputs": [
        {
          "internalType": "bool",
          "name": "",
          "type": "bool"
        }
      ],
      "stateMutability": "view",
      "type": "function"
    },
    {
      "inputs": [],
      "name": "targetLtv",
      "outputs": [
        {
          "internalType": "uint256",
          "name": "",
          "type": "uint256"
        }
      ],
      "stateMutability": "view",
      "type": "function"
    },
    {
      "inputs": [
        {
          "internalType": "address",
          "name": "",
          "type": "address"
        }
      ],
      "name": "userIndex",
      "outputs": [
        {
          "internalType": "uint256",
          "name": "",
          "type": "uint256"
        }
      ],
      "stateMutability": "view",
      "type": "function"
    }
  ],
  "bytecode": "0x60c0604052611770600555611d4c6006556101f4600755670de0b6b3a76400006008553480156200002f57600080fd5b506040516200164c3803806200164c833981016040819052620000529162000291565b826200006e6000805160206200162c833981519152826200017e565b50620000aa7f73079b33c7c96c67a1fb6c710d1995195c9f4b3e62a619f237584f1bb28d0aa96000805160206200162c8339815191526200022d565b620000e57f66098348ac86aa2c1efef4ea51eb3a0dd075bfeef7e5784ec740dc5b4ee760fd6000805160206200162c8339815191526200022d565b620001207f061671c5d9c2848c4e78f3cfd7efc04c5d793e746efab769b3416aa5bbfb40cc6000805160206200162c8339815191526200022d565b6200015b7f372d55e37651a7c6e1940a3fb8628e4b6122a3c1a8b2b70aee13e072286045676000805160206200162c8339815191526200022d565b5060016002556001600160a01b039182166080521660a0525042600955620002e5565b6000828152602081815260408083206001600160a01b038516845290915281205460ff1662000223576000838152602081815260408083206001600160a01b03861684529091529020805460ff19166001179055620001da3390565b6001600160a01b0316826001600160a01b0316847f2f8788117e7eff1d82e926ec794901d17c78024a50270940304540a733656f0d60405160405180910390a450600162000227565b5060005b92915050565b600082815260208190526040808220600101805490849055905190918391839186917fbd79b86ffe0ab8e8776151514217cd7cacd52c909f66475c3af44e129f0b00ff9190a4505050565b6001600160a01b03811681146200028e57600080fd5b50565b600080600060608486031215620002a757600080fd5b8351620002b48162000278565b6020850151909350620002c78162000278565b6040850151909250620002da8162000278565b809150509250925092565b60805160a05161130c620003206000396000818161023701526107360152600081816103de01528181610ab20152610bee015261130c6000f3fe608060405234801561001057600080fd5b50600436106101f05760003560e01c8063895ec75f1161010f578063c5ebeaec116100a2578063d547741f11610071578063d547741f146104b0578063de9ce35c146104c3578063ec921dc1146104e3578063f0173703146104ec57600080fd5b8063c5ebeaec14610443578063c96679fe14610456578063d283e75f14610476578063d391014b1461048957600080fd5b8063a919802d116100de578063a919802d146103d9578063aaa6a39114610400578063b047eb0214610409578063b2016bd41461043057600080fd5b8063895ec75f1461038f57806391d14854146103b6578063a217fddf146103c9578063a6afed95146103d157600080fd5b80635a0ce67611610187578063623142451161015657806362314245146103615780637a89dfca1461036a5780637b3baab4146103735780637dc0d1d01461037c57600080fd5b80635a0ce676146103025780635c38eb3a146103155780635c975abb146103285780635d78650e1461033357600080fd5b80632f2ff15d116101c35780632f2ff15d146102a257806336568abe146102b5578063371fd8e6146102c857806342be00b8146102db57600080fd5b806301ffc9a7146101f5578063098fe1051461021d5780630bece79c14610232578063248a9ca314610271575b600080fd5b6102086102033660046110dd565b610513565b60405190151581526020015b60405180910390f35b61023061022b366004611123565b61054a565b005b6102597f000000000000000000000000000000000000000000000000000000000000000081565b6040516001600160a01b039091168152602001610214565b61029461027f366004611164565b60009081526020819052604090206001015490565b604051908152602001610214565b6102306102b036600461117d565b610574565b6102306102c336600461117d565b61059f565b6102306102d6366004611164565b6105d2565b6102947f73079b33c7c96c67a1fb6c710d1995195c9f4b3e62a619f237584f1bb28d0aa981565b6102306103103660046111ad565b6105fa565b6102306103233660046111d9565b6106b7565b60015460ff16610208565b610346610341366004611207565b610710565b60408051938452602084019290925290820152606001610214565b61029460085481565b61029460065481565b61029460095481565b600354610259906001600160a01b031681565b6102947f061671c5d9c2848c4e78f3cfd7efc04c5d793e746efab769b3416aa5bbfb40cc81565b6102086103c436600461117d565b6108d0565b610294600081565b6102306108f9565b6102597f000000000000000000000000000000000000000000000000000000000000000081565b61029460075481565b6102947f372d55e37651a7c6e1940a3fb8628e4b6122a3c1a8b2b70aee13e0722860456781565b600454610259906001600160a01b031681565b610230610451366004611164565b6109cb565b610294610464366004611207565b600b6020526000908152604090205481565b610294610484366004611207565b610b23565b6102947f2172861495e7b85edac73e3cd5fbb42dd675baadf627720e687bcfdaca02509681565b6102306104be36600461117d565b610b2e565b6102946104d1366004611207565b600a6020526000908152604090205481565b61029460055481565b6102947f66098348ac86aa2c1efef4ea51eb3a0dd075bfeef7e5784ec740dc5b4ee760fd81565b60006001600160e01b03198216637965db0b60e01b148061054457506301ffc9a760e01b6001600160e01b03198316145b92915050565b610552610b53565b61055a610b7b565b610565838383610b9f565b61056f6001600255565b505050565b60008281526020819052604090206001015461058f81610cb6565b6105998383610cc0565b50505050565b6001600160a01b03811633146105c85760405163334bd91960e11b815260040160405180910390fd5b61056f8282610d52565b6105da610b53565b6105e2610b7b565b6105ed333383610b9f565b6105f76001600255565b50565b7f73079b33c7c96c67a1fb6c710d1995195c9f4b3e62a619f237584f1bb28d0aa961062481610cb6565b828410801561063557506123288311155b61066f5760405162461bcd60e51b8152602060048201526006602482015265706172616d7360d01b60448201526064015b60405180910390fd5b6005849055600683905560078290556040518281527f11d21e3fa4ceeb0310f7dcdd86974affae5aa26fc8f3f45a952e5d4b92e587199060200160405180910390a150505050565b7f73079b33c7c96c67a1fb6c710d1995195c9f4b3e62a619f237584f1bb28d0aa96106e181610cb6565b50600380546001600160a01b039384166001600160a01b03199182161790915560048054929093169116179055565b6040516370a0823160e01b81526001600160a01b038281166004830152600091829182917f0000000000000000000000000000000000000000000000000000000000000000909116906370a0823190602401602060405180830381865afa15801561077f573d6000803e3d6000fd5b505050506040513d601f19601f820116820180604052508101906107a39190611224565b92506107ae84610dbd565b9150816000036107c55750600090506000196108c9565b60035483906001600160a01b0316158015906107eb57506004546001600160a01b031615155b1561088857600354600480546040516341976e0960e01b81526001600160a01b039182169281019290925260009216906341976e09906024016040805180830381865afa158015610840573d6000803e3d6000fd5b505050506040513d601f19601f82011682018060405250810190610864919061123d565b509050670de0b6b3a764000061087a8287611277565b610884919061128e565b9150505b60006127106006548361089b9190611277565b6108a5919061128e565b9050836108ba82670de0b6b3a7640000611277565b6108c4919061128e565b925050505b9193909250565b6000918252602082815260408084206001600160a01b0393909316845291905290205460ff1690565b610901610b7b565b60006009544261091191906112b0565b90508060000361091e5750565b60006301e13380600754655af3107a40006109399190611277565b610943919061128e565b90506000670de0b6b3a7640000838360085461095f9190611277565b6109699190611277565b610973919061128e565b90508060085461098391906112c3565b60088190554260095560408051918252602082018590527ff66f28b40975dbb933913542c7e6a0f50a1d0f20aa74ea6e0efe65ab616323ec910160405180910390a15050505b565b6109d3610b53565b6109db610b7b565b60008111610a145760405162461bcd60e51b8152602060048201526006602482015265185b5bdd5b9d60d21b6044820152606401610666565b610a1d33610e33565b600080610a2933610710565b5090925090506000610a3b84836112c3565b9050600554610a4a8483610e71565b1115610a7e5760405162461bcd60e51b8152602060048201526003602482015262363a3b60e91b6044820152606401610666565b610a8781610f66565b336000818152600a6020908152604080832094909455600854600b90915292902091909155610ae1907f00000000000000000000000000000000000000000000000000000000000000006001600160a01b03169086610f97565b60405184815233907fcbc04eca7e9da35cb1393a6135a199ca52e450d5e9251cbd99f7847d33a367509060200160405180910390a25050506105f76001600255565b600061054482610dbd565b600082815260208190526040902060010154610b4981610cb6565b6105998383610d52565b6002805403610b7557604051633ee5aeb560e01b815260040160405180910390fd5b60028055565b60015460ff16156109c95760405163d93c066560e01b815260040160405180910390fd5b60008111610bd85760405162461bcd60e51b8152602060048201526006602482015265185b5bdd5b9d60d21b6044820152606401610666565b610be182610e33565b610c166001600160a01b037f000000000000000000000000000000000000000000000000000000000000000016843084610ff6565b6000610c2183610dbd565b9050600081831015610c3c57610c3783836112b0565b610c3f565b60005b9050610c4a81610f66565b6001600160a01b0385166000818152600a6020908152604080832094909455600854600b909152908390205590517f5c16de4f8b59bd9caf0f49a545f25819a895ed223294290b408242e72a59423190610ca79086815260200190565b60405180910390a25050505050565b6105f7813361102f565b6000610ccc83836108d0565b610d4a576000838152602081815260408083206001600160a01b03861684529091529020805460ff19166001179055610d023390565b6001600160a01b0316826001600160a01b0316847f2f8788117e7eff1d82e926ec794901d17c78024a50270940304540a733656f0d60405160405180910390a4506001610544565b506000610544565b6000610d5e83836108d0565b15610d4a576000838152602081815260408083206001600160a01b0386168085529252808320805460ff1916905551339286917ff6391f5c32d9c69d2a47ea670b442974b53935d1edc7fd64eb21e047a839171b9190a4506001610544565b6001600160a01b0381166000908152600a6020526040812054808203610de65750600092915050565b6008546001600160a01b0384166000908152600b602052604081205490819003610e155750670de0b6b3a76400005b80610e208385611277565b610e2a919061128e565b95945050505050565b6001600160a01b0381166000908152600b602052604081205490036105f7576008546001600160a01b0382166000908152600b602052604090205550565b600082600003610e845750600019610544565b60035483906001600160a01b031615801590610eaa57506004546001600160a01b031615155b15610f4757600354600480546040516341976e0960e01b81526001600160a01b039182169281019290925260009216906341976e09906024016040805180830381865afa158015610eff573d6000803e3d6000fd5b505050506040513d601f19601f82011682018060405250810190610f23919061123d565b509050670de0b6b3a7640000610f398287611277565b610f43919061128e565b9150505b80610f5484612710611277565b610f5e919061128e565b949350505050565b600081600003610f7857506000919050565b600854610f8d83670de0b6b3a7640000611277565b610544919061128e565b6040516001600160a01b0383811660248301526044820183905261056f91859182169063a9059cbb906064015b604051602081830303815290604052915060e01b6020820180516001600160e01b03838183161783525050505061106c565b6040516001600160a01b0384811660248301528381166044830152606482018390526105999186918216906323b872dd90608401610fc4565b61103982826108d0565b6110685760405163e2517d3f60e01b81526001600160a01b038216600482015260248101839052604401610666565b5050565b600080602060008451602086016000885af18061108f576040513d6000823e3d81fd5b50506000513d915081156110a75780600114156110b4565b6001600160a01b0384163b155b1561059957604051635274afe760e01b81526001600160a01b0385166004820152602401610666565b6000602082840312156110ef57600080fd5b81356001600160e01b03198116811461110757600080fd5b9392505050565b6001600160a01b03811681146105f757600080fd5b60008060006060848603121561113857600080fd5b83356111438161110e565b925060208401356111538161110e565b929592945050506040919091013590565b60006020828403121561117657600080fd5b5035919050565b6000806040838503121561119057600080fd5b8235915060208301356111a28161110e565b809150509250929050565b6000806000606084860312156111c257600080fd5b505081359360208301359350604090920135919050565b600080604083850312156111ec57600080fd5b82356111f78161110e565b915060208301356111a28161110e565b60006020828403121561121957600080fd5b81356111078161110e565b60006020828403121561123657600080fd5b5051919050565b6000806040838503121561125057600080fd5b505080516020909101519092909150565b634e487b7160e01b600052601160045260246000fd5b808202811582820484141761054457610544611261565b6000826112ab57634e487b7160e01b600052601260045260246000fd5b500490565b8181038181111561054457610544611261565b808201808211156105445761054461126156fea2646970667358221220cb7de4cebc1e47998426c2c9c5310c8052d9f6207ac556b4f092a7b63db5287d64736f6c634300081800332172861495e7b85edac73e3cd5fbb42dd675baadf627720e687bcfdaca025096",
  "linkReferences": {},
  "deployedLinkReferences": {}
}